{
  "address": "0xB97455fcF78eb37375e8be6f26df895341CA073d",
  "abi": [
    {
      "inputs": [
        {
          "internalType": "address",
          "name": "conditionalTokenAddress",
          "type": "address"
        },
        {
          "internalType": "address",
          "name": "umaFinderAddress",
          "type": "address"
        }
      ],
      "stateMutability": "nonpayable",
      "type": "constructor"
    },
    {
      "anonymous": false,
      "inputs": [
        {
          "indexed": true,
          "internalType": "address",
          "name": "usr",
          "type": "address"
        }
      ],
      "name": "AuthorizedUser",
      "type": "event"
    },
    {
      "anonymous": false,
      "inputs": [
        {
          "indexed": true,
          "internalType": "address",
          "name": "usr",
          "type": "address"
        }
      ],
      "name": "DeauthorizedUser",
      "type": "event"
    },
    {
      "anonymous": false,
      "inputs": [
        {
          "indexed": false,
          "internalType": "address",
          "name": "oldFinder",
          "type": "address"
        },
        {
          "indexed": false,
          "internalType": "address",
          "name": "newFinder",
          "type": "address"
        }
      ],
      "name": "NewFinderAddress",
      "type": "event"
    },
    {
      "anonymous": false,
      "inputs": [
        {
          "indexed": false,
          "internalType": "bytes32",
          "name": "questionID",
          "type": "bytes32"
        }
      ],
      "name": "QuestionFlaggedForAdminResolution",
      "type": "event"
    },
    {
      "anonymous": false,
      "inputs": [
        {
          "indexed": true,
          "internalType": "bytes32",
          "name": "questionID",
          "type": "bytes32"
        },
        {
          "indexed": false,
          "internalType": "bytes",
          "name": "ancillaryData",
          "type": "bytes"
        },
        {
          "indexed": false,
          "internalType": "uint256",
          "name": "resolutionTime",
          "type": "uint256"
        },
        {
          "indexed": false,
          "internalType": "address",
          "name": "rewardToken",
          "type": "address"
        },
        {
          "indexed": false,
          "internalType": "uint256",
          "name": "reward",
          "type": "uint256"
        },
        {
          "indexed": false,
          "internalType": "uint256",
          "name": "proposalBond",
          "type": "uint256"
        },
        {
          "indexed": false,
          "internalType": "bool",
          "name": "earlyResolutionEnabled",
          "type": "bool"
        }
      ],
      "name": "QuestionInitialized",
      "type": "event"
    },
    {
      "anonymous": false,
      "inputs": [
        {
          "indexed": false,
          "internalType": "bytes32",
          "name": "questionID",
          "type": "bytes32"
        }
      ],
      "name": "QuestionPaused",
      "type": "event"
    },
    {
      "anonymous": false,
      "inputs": [
        {
          "indexed": true,
          "internalType": "bytes32",
          "name": "questionID",
          "type": "bytes32"
        }
      ],
      "name": "QuestionReset",
      "type": "event"
    },
    {
      "anonymous": false,
      "inputs": [
        {
          "indexed": true,
          "internalType": "bytes32",
          "name": "questionID",
          "type": "bytes32"
        },
        {
          "indexed": true,
          "internalType": "bool",
          "name": "emergencyReport",
          "type": "bool"
        }
      ],
      "name": "QuestionResolved",
      "type": "event"
    },
    {
      "anonymous": false,
      "inputs": [
        {
          "indexed": true,
          "internalType": "bytes32",
          "name": "questionID",
          "type": "bytes32"
        },
        {
          "indexed": true,
          "internalType": "int256",
          "name": "settledPrice",
          "type": "int256"
        },
        {
          "indexed": true,
          "internalType": "bool",
          "name": "earlyResolution",
          "type": "bool"
        }
      ],
      "name": "QuestionSettled",
      "type": "event"
    },
    {
      "anonymous": false,
      "inputs": [
        {
          "indexed": false,
          "internalType": "bytes32",
          "name": "questionID",
          "type": "bytes32"
        }
      ],
      "name": "QuestionUnpaused",
      "type": "event"
    },
    {
      "anonymous": false,
      "inputs": [
        {
          "indexed": true,
          "internalType": "bytes32",
          "name": "questionID",
          "type": "bytes32"
        },
        {
          "indexed": false,
          "internalType": "bytes",
          "name": "ancillaryData",
          "type": "bytes"
        },
        {
          "indexed": false,
          "internalType": "uint256",
          "name": "resolutionTime",
          "type": "uint256"
        },
        {
          "indexed": false,
          "internalType": "address",
          "name": "rewardToken",
          "type": "address"
        },
        {
          "indexed": false,
          "internalType": "uint256",
          "name": "reward",
          "type": "uint256"
        },
        {
          "indexed": false,
          "internalType": "uint256",
          "name": "proposalBond",
          "type": "uint256"
        },
        {
          "indexed": false,
          "internalType": "bool",
          "name": "earlyResolutionEnabled",
          "type": "bool"
        }
      ],
      "name": "QuestionUpdated",
      "type": "event"
    },
    {
      "anonymous": false,
      "inputs": [
        {
          "indexed": true,
          "internalType": "address",
          "name": "requestor",
          "type": "address"
        },
        {
          "indexed": true,
          "internalType": "uint256",
          "name": "requestTimestamp",
          "type": "uint256"
        },
        {
          "indexed": true,
          "internalType": "bytes32",
          "name": "questionID",
          "type": "bytes32"
        },
        {
          "indexed": false,
          "internalType": "bytes32",
          "name": "identifier",
          "type": "bytes32"
        },
        {
          "indexed": false,
          "internalType": "bytes",
          "name": "ancillaryData",
          "type": "bytes"
        },
        {
          "indexed": false,
          "internalType": "address",
          "name": "rewardToken",
          "type": "address"
        },
        {
          "indexed": false,
          "internalType": "uint256",
          "name": "reward",
          "type": "uint256"
        },
        {
          "indexed": false,
          "internalType": "uint256",
          "name": "proposalBond",
          "type": "uint256"
        },
        {
          "indexed": false,
          "internalType": "bool",
          "name": "earlyResolution",
          "type": "bool"
        }
      ],
      "name": "ResolutionDataRequested",
      "type": "event"
    },
    {
      "inputs": [],
      "name": "conditionalTokenContract",
      "outputs": [
        {
          "internalType": "contract IConditionalTokens",
          "name": "",
          "type": "address"
        }
      ],
      "stateMutability": "view",
      "type": "function"
    },
    {
      "inputs": [
        {
          "internalType": "address",
          "name": "usr",
          "type": "address"
        }
      ],
      "name": "deny",
      "outputs": [],
      "stateMutability": "nonpayable",
      "type": "function"
    },
    {
      "inputs": [
        {
          "internalType": "bytes32",
          "name": "questionID",
          "type": "bytes32"
        },
        {
          "internalType": "uint256[]",
          "name": "payouts",
          "type": "uint256[]"
        }
      ],
      "name": "emergencyReportPayouts",
      "outputs": [],
      "stateMutability": "nonpayable",
      "type": "function"
    },
    {
      "inputs": [],
      "name": "emergencySafetyPeriod",
      "outputs": [
        {
          "internalType": "uint256",
          "name": "",
          "type": "uint256"
        }
      ],
      "stateMutability": "view",
      "type": "function"
    },
    {
      "inputs": [
        {
          "internalType": "bytes32",
          "name": "questionID",
          "type": "bytes32"
        }
      ],
      "name": "flagQuestionForEmergencyResolution",
      "outputs": [],
      "stateMutability": "nonpayable",
      "type": "function"
    },
    {
      "inputs": [
        {
          "internalType": "bytes32",
          "name": "questionID",
          "type": "bytes32"
        }
      ],
      "name": "getExpectedPayouts",
      "outputs": [
        {
          "internalType": "uint256[]",
          "name": "",
          "type": "uint256[]"
        }
      ],
      "stateMutability": "view",
      "type": "function"
    },
    {
      "inputs": [],
      "name": "identifier",
      "outputs": [
        {
          "internalType": "bytes32",
          "name": "",
          "type": "bytes32"
        }
      ],
      "stateMutability": "view",
      "type": "function"
    },
    {
      "inputs": [],
      "name": "ignorePrice",
      "outputs": [
        {
          "internalType": "int256",
          "name": "",
          "type": "int256"
        }
      ],
      "stateMutability": "pure",
      "type": "function"
    },
    {
      "inputs": [
        {
          "internalType": "bytes32",
          "name": "questionID",
          "type": "bytes32"
        },
        {
          "internalType": "bytes",
          "name": "ancillaryData",
          "type": "bytes"
        },
        {
          "internalType": "uint256",
          "name": "resolutionTime",
          "type": "uint256"
        },
        {
          "internalType": "address",
          "name": "rewardToken",
          "type": "address"
        },
        {
          "internalType": "uint256",
          "name": "reward",
          "type": "uint256"
        },
        {
          "internalType": "uint256",
          "name": "proposalBond",
          "type": "uint256"
        },
        {
          "internalType": "bool",
          "name": "earlyResolutionEnabled",
          "type": "bool"
        }
      ],
      "name": "initializeQuestion",
      "outputs": [],
      "stateMutability": "nonpayable",
      "type": "function"
    },
    {
      "inputs": [
        {
          "internalType": "bytes32",
          "name": "questionID",
          "type": "bytes32"
        }
      ],
      "name": "isQuestionFlaggedForEmergencyResolution",
      "outputs": [
        {
          "internalType": "bool",
          "name": "",
          "type": "bool"
        }
      ],
      "stateMutability": "view",
      "type": "function"
    },
    {
      "inputs": [
        {
          "internalType": "bytes32",
          "name": "questionID",
          "type": "bytes32"
        }
      ],
      "name": "isQuestionInitialized",
      "outputs": [
        {
          "internalType": "bool",
          "name": "",
          "type": "bool"
        }
      ],
      "stateMutability": "view",
      "type": "function"
    },
    {
      "inputs": [
        {
          "internalType": "bytes32",
          "name": "questionID",
          "type": "bytes32"
        }
      ],
      "name": "pauseQuestion",
      "outputs": [],
      "stateMutability": "nonpayable",
      "type": "function"
    },
    {
      "inputs": [
        {
          "internalType": "bytes32",
          "name": "questionID",
          "type": "bytes32"
        },
        {
          "internalType": "bytes",
          "name": "ancillaryData",
          "type": "bytes"
        },
        {
          "internalType": "uint256",
          "name": "resolutionTime",
          "type": "uint256"
        },
        {
          "internalType": "address",
          "name": "rewardToken",
          "type": "address"
        },
        {
          "internalType": "uint256",
          "name": "reward",
          "type": "uint256"
        },
        {
          "internalType": "uint256",
          "name": "proposalBond",
          "type": "uint256"
        },
        {
          "internalType": "bool",
          "name": "earlyResolutionEnabled",
          "type": "bool"
        }
      ],
      "name": "prepareAndInitialize",
      "outputs": [],
      "stateMutability": "nonpayable",
      "type": "function"
    },
    {
      "inputs": [
        {
          "internalType": "bytes32",
          "name": "",
          "type": "bytes32"
        }
      ],
      "name": "questions",
      "outputs": [
        {
          "internalType": "uint256",
          "name": "resolutionTime",
          "type": "uint256"
        },
        {
          "internalType": "uint256",
          "name": "reward",
          "type": "uint256"
        },
        {
          "internalType": "uint256",
          "name": "proposalBond",
          "type": "uint256"
        },
        {
          "internalType": "uint256",
          "name": "settled",
          "type": "uint256"
        },
        {
          "internalType": "uint256",
          "name": "requestTimestamp",
          "type": "uint256"
        },
        {
          "internalType": "uint256",
          "name": "adminResolutionTimestamp",
          "type": "uint256"
        },
        {
          "internalType": "bool",
          "name": "earlyResolutionEnabled",
          "type": "bool"
        },
        {
          "internalType": "bool",
          "name": "resolved",
          "type": "bool"
        },
        {
          "internalType": "bool",
          "name": "paused",
          "type": "bool"
        },
        {
          "internalType": "address",
          "name": "rewardToken",
          "type": "address"
        },
        {
          "internalType": "bytes",
          "name": "ancillaryData",
          "type": "bytes"
        }
      ],
      "stateMutability": "view",
      "type": "function"
    },
    {
      "inputs": [
        {
          "internalType": "bytes32",
          "name": "questionID",
          "type": "bytes32"
        }
      ],
      "name": "readyToRequestResolution",
      "outputs": [
        {
          "internalType": "bool",
          "name": "",
          "type": "bool"
        }
      ],
      "stateMutability": "view",
      "type": "function"
    },
    {
      "inputs": [
        {
          "internalType": "bytes32",
          "name": "questionID",
          "type": "bytes32"
        }
      ],
      "name": "readyToSettle",
      "outputs": [
        {
          "internalType": "bool",
          "name": "",
          "type": "bool"
        }
      ],
      "stateMutability": "view",
      "type": "function"
    },
    {
      "inputs": [
        {
          "internalType": "address",
          "name": "usr",
          "type": "address"
        }
      ],
      "name": "rely",
      "outputs": [],
      "stateMutability": "nonpayable",
      "type": "function"
    },
    {
      "inputs": [
        {
          "internalType": "bytes32",
          "name": "questionID",
          "type": "bytes32"
        }
      ],
      "name": "reportPayouts",
      "outputs": [],
      "stateMutability": "nonpayable",
      "type": "function"
    },
    {
      "inputs": [
        {
          "internalType": "bytes32",
          "name": "questionID",
          "type": "bytes32"
        }
      ],
      "name": "requestResolutionData",
      "outputs": [],
      "stateMutability": "nonpayable",
      "type": "function"
    },
    {
      "inputs": [
        {
          "internalType": "address",
          "name": "newFinderAddress",
          "type": "address"
        }
      ],
      "name": "setFinderAddress",
      "outputs": [],
      "stateMutability": "nonpayable",
      "type": "function"
    },
    {
      "inputs": [
        {
          "internalType": "bytes32",
          "name": "questionID",
          "type": "bytes32"
        }
      ],
      "name": "settle",
      "outputs": [],
      "stateMutability": "nonpayable",
      "type": "function"
    },
    {
      "inputs": [],
      "name": "umaFinder",
      "outputs": [
        {
          "internalType": "address",
          "name": "",
          "type": "address"
        }
      ],
      "stateMutability": "view",
      "type": "function"
    },
    {
      "inputs": [
        {
          "internalType": "bytes32",
          "name": "questionID",
          "type": "bytes32"
        }
      ],
      "name": "unPauseQuestion",
      "outputs": [],
      "stateMutability": "nonpayable",
      "type": "function"
    },
    {
      "inputs": [
        {
          "internalType": "bytes32",
          "name": "questionID",
          "type": "bytes32"
        },
        {
          "internalType": "bytes",
          "name": "ancillaryData",
          "type": "bytes"
        },
        {
          "internalType": "uint256",
          "name": "resolutionTime",
          "type": "uint256"
        },
        {
          "internalType": "address",
          "name": "rewardToken",
          "type": "address"
        },
        {
          "internalType": "uint256",
          "name": "reward",
          "type": "uint256"
        },
        {
          "internalType": "uint256",
          "name": "proposalBond",
          "type": "uint256"
        },
        {
          "internalType": "bool",
          "name": "earlyResolutionEnabled",
          "type": "bool"
        }
      ],
      "name": "updateQuestion",
      "outputs": [],
      "stateMutability": "nonpayable",
      "type": "function"
    },
    {
      "inputs": [
        {
          "internalType": "address",
          "name": "",
          "type": "address"
        }
      ],
      "name": "wards",
      "outputs": [
        {
          "internalType": "uint256",
          "name": "",
          "type": "uint256"
        }
      ],
      "stateMutability": "view",
      "type": "function"
    }
  ],
  "transactionHash": "0x24bde21ece4cc22ad43b007f414512155224745cab022d61cad0c355b696f575",
  "args": [
    "0x4D97DCd97eC945f40cF65F87097ACe5EA0476045",
    "0x09aea4b2242abC8bb4BB78D537A67a245A7bEC64"
  ],
  "solcInputHash": "3bbedc879f1dc62a9fcf0c431dfa0eff",
  "bytecode": "0x60a06040523480156200001157600080fd5b506040516200331c3803806200331c8339810160408190526200003491620000b7565b3360008181526020819052604080822060019055517f6be99b533364b794276e94ff114fbf96f7a82420a2033d88717a24603e4bd2959190a2600180556001600160a01b03918216608052600280546001600160a01b03191691909216179055620000ef565b80516001600160a01b0381168114620000b257600080fd5b919050565b60008060408385031215620000cb57600080fd5b620000d6836200009a565b9150620000e6602084016200009a565b90509250929050565b6080516131fc620001206000396000818161029f01528181610530015281816109870152611a8301526131fc6000f3fe608060405234801561001057600080fd5b50600436106101a35760003560e01c806386ec6288116100ee578063a29f7fd811610097578063bf353dbb11610071578063bf353dbb146103c6578063c66d4c6c146103e6578063de0ea612146103f0578063e81439991461040357600080fd5b8063a29f7fd81461038d578063a39cc299146103a0578063be705473146103b357600080fd5b806395addb90116100c857806395addb901461033d578063987757dd146103675780639c52a7f11461037a57600080fd5b806386ec6288146102f25780638b5dc50414610305578063918e2e351461031857600080fd5b8063275180c01161015057806365fae35e1161012a57806365fae35e1461028757806370b9e9041461029a5780637998a1c4146102d957600080fd5b8063275180c01461024157806334e5e28e146102545780633cc792651461027457600080fd5b806314b2dffc1161018157806314b2dffc146102075780631d45ae871461021a5780632654320c1461022e57600080fd5b8063092149ed146101a85780630b950ca9146101df5780630d21a1ac146101f4575b600080fd5b6101ca6101b6366004612a33565b600090815260036020526040902054151590565b60405190151581526020015b60405180910390f35b6101f26101ed366004612a74565b610416565b005b6101f2610202366004612b22565b6104f4565b6101f2610215366004612a33565b6105ac565b600160ff1b5b6040519081526020016101d6565b6101ca61023c366004612a33565b6107ae565b6101f261024f366004612a33565b610824565b610267610262366004612a33565b610a22565b6040516101d69190612c3a565b6101f2610282366004612a33565b610dd1565b6101f2610295366004612a74565b610f6b565b6102c17f000000000000000000000000000000000000000000000000000000000000000081565b6040516001600160a01b0390911681526020016101d6565b6102206e5945535f4f525f4e4f5f515545525960881b81565b6101f2610300366004612a33565b611008565b6002546102c1906001600160a01b031681565b6101ca610326366004612a33565b600090815260036020526040902060050154151590565b61035061034b366004612a33565b611141565b6040516101d69b9a99989796959493929190612ca9565b6101f2610375366004612a33565b61123b565b6101f2610388366004612a74565b611353565b6101f261039b366004612b22565b6113ef565b6101f26103ae366004612d1d565b6117cd565b6101f26103c1366004612a33565b611b22565b6102206103d4366004612a74565b60006020819052908152604090205481565b6102206202a30081565b6101f26103fe366004612b22565b611c48565b6101ca610411366004612a33565b611f38565b336000908152602081905260409020546001146104735760405162461bcd60e51b81526020600482015260166024820152751059185c1d195c8bdb9bdd0b585d5d1a1bdc9a5e995960521b60448201526064015b60405180910390fd5b600254604080516001600160a01b03928316815291831660208301527fbedcf54426d8d55b60e4e4112df13f213106b6fdfb1f61984a08d007a1653069910160405180910390a1600280547fffffffffffffffffffffffff0000000000000000000000000000000000000000166001600160a01b0392909216919091179055565b6040517fd96ee75400000000000000000000000000000000000000000000000000000000815230600482015260248101889052600260448201527f00000000000000000000000000000000000000000000000000000000000000006001600160a01b03169063d96ee75490606401600060405180830381600087803b15801561057c57600080fd5b505af1158015610590573d6000803e3d6000fd5b505050506105a387878787878787611c48565b50505050505050565b336000908152602081905260409020546001146106045760405162461bcd60e51b81526020600482015260166024820152751059185c1d195c8bdb9bdd0b585d5d1a1bdc9a5e995960521b604482015260640161046a565b6000818152600360205260409020546106ab5760405162461bcd60e51b815260206004820152604660248201527f416461707465723a3a666c61675175657374696f6e466f724561726c7952657360448201527f6f6c7574696f6e3a207175657374696f6e4944206973206e6f7420696e69746960648201527f616c697a65640000000000000000000000000000000000000000000000000000608482015260a40161046a565b600081815260036020526040902060050154156107565760405162461bcd60e51b815260206004820152605760248201527f416461707465723a3a656d657267656e63795265706f72745061796f7574733a60448201527f207175657374696f6e494420697320616c726561647920666c6167676564206660648201527f6f7220656d657267656e6379207265736f6c7574696f6e000000000000000000608482015260a40161046a565b6107636202a30042612d9c565b60008281526003602090815260409182902060050192909255518281527fd96b8927b38f8cc48e678eeb45ee1c3a281d2ba49078ed4a5c00895d251e573b910160405180910390a150565b6000818152600360205260408120546107c957506000919050565b60008281526003602052604090206004810154156107ea5750600092915050565b6006810154610100900460ff16156108055750600092915050565b600681015460ff161561081b5750600192915050565b54421192915050565b60008181526003602052604090206006810154610100900460ff16156108b25760405162461bcd60e51b815260206004820152603b60248201527f416461707465723a3a67657445787065637465645061796f7574733a2071756560448201527f7374696f6e494420697320616c7265616479207265736f6c7665640000000000606482015260840161046a565b806003015443116109515760405162461bcd60e51b815260206004820152605060248201527f416461707465723a3a7265706f72745061796f7574733a20417474656d70746960448201527f6e6720746f20736574746c6520616e64207265706f72745061796f757473206960648201527f6e207468652073616d6520626c6f636b00000000000000000000000000000000608482015260a40161046a565b600061095c83610a22565b60068301805461ff001916610100179055604051633124a62b60e21b81529091506001600160a01b037f0000000000000000000000000000000000000000000000000000000000000000169063c49298ac906109be9086908590600401612dc2565b600060405180830381600087803b1580156109d857600080fd5b505af11580156109ec573d6000803e3d6000fd5b5050604051600092508591507f5c3937ed929cd157b73b417381d743daf6e1ef65999e3ccb5dd64bc3247e28d6908390a3505050565b600081815260036020526040902054606090610aa65760405162461bcd60e51b815260206004820152603a60248201527f416461707465723a3a67657445787065637465645061796f7574733a2071756560448201527f7374696f6e4944206973206e6f7420696e697469616c697a6564000000000000606482015260840161046a565b60008281526003602052604090206004810154610b515760405162461bcd60e51b815260206004820152604260248201527f416461707465723a3a67657445787065637465645061796f7574733a2072657360448201527f6f6c7574696f6e4461746120686173206e6f74206265656e207265717565737460648201527f6564000000000000000000000000000000000000000000000000000000000000608482015260a40161046a565b6000816003015411610bcb5760405162461bcd60e51b815260206004820152603660248201527f416461707465723a3a67657445787065637465645061796f7574733a2071756560448201527f7374696f6e4944206973206e6f7420736574746c656400000000000000000000606482015260840161046a565b600681015462010000900460ff1615610c4c5760405162461bcd60e51b815260206004820152602f60248201527f416461707465723a3a67657445787065637465645061796f7574733a2051756560448201527f7374696f6e206973207061757365640000000000000000000000000000000000606482015260840161046a565b6000610c5782612057565b6040805160028082526060820183529293506000929091602083019080368337019050509050811580610c915750816706f05b59d3b20000145b80610ca3575081670de0b6b3a7640000145b610d155760405162461bcd60e51b815260206004820152602f60248201527f416461707465723a3a7265706f72745061796f7574733a20496e76616c69642060448201527f7265736f6c7574696f6e20646174610000000000000000000000000000000000606482015260840161046a565b81610d6157600081600081518110610d2f57610d2f612ddb565b602002602001018181525050600181600181518110610d5057610d50612ddb565b602002602001018181525050610dc9565b816706f05b59d3b200001415610d8657600181600081518110610d2f57610d2f612ddb565b600181600081518110610d9b57610d9b612ddb565b602002602001018181525050600081600181518110610dbc57610dbc612ddb565b6020026020010181815250505b949350505050565b60026001541415610e245760405162461bcd60e51b815260206004820152601f60248201527f5265656e7472616e637947756172643a207265656e7472616e742063616c6c00604482015260640161046a565b6002600155610e32816107ae565b610eca5760405162461bcd60e51b815260206004820152604160248201527f416461707465723a3a726571756573745265736f6c7574696f6e446174613a2060448201527f5175657374696f6e206e6f7420726561647920746f206265207265736f6c766560648201527f6400000000000000000000000000000000000000000000000000000000000000608482015260a40161046a565b6000818152600360205260409020600681015462010000900460ff1615610f595760405162461bcd60e51b815260206004820152603260248201527f416461707465723a3a726571756573745265736f6c7574696f6e446174613a2060448201527f5175657374696f6e206973207061757365640000000000000000000000000000606482015260840161046a565b610f6382826120f7565b505060018055565b33600090815260208190526040902054600114610fc35760405162461bcd60e51b81526020600482015260166024820152751059185c1d195c8bdb9bdd0b585d5d1a1bdc9a5e995960521b604482015260640161046a565b6001600160a01b03811660008181526020819052604080822060019055517f6be99b533364b794276e94ff114fbf96f7a82420a2033d88717a24603e4bd2959190a250565b336000908152602081905260409020546001146110605760405162461bcd60e51b81526020600482015260166024820152751059185c1d195c8bdb9bdd0b585d5d1a1bdc9a5e995960521b604482015260640161046a565b6000818152600360205260409020546110e15760405162461bcd60e51b815260206004820152603560248201527f416461707465723a3a70617573655175657374696f6e3a207175657374696f6e60448201527f4944206973206e6f7420696e697469616c697a65640000000000000000000000606482015260840161046a565b6000818152600360205260409081902060068101805462ff000019166201000017905590517f6ded7250a9d5f79aef5add44600fc20a74a0af6f4730baa4fc4ab87bf484b812906111359084815260200190565b60405180910390a15050565b60036020819052600091825260409091208054600182015460028301549383015460048401546005850154600686015460078701805496989597959694959394929360ff8084169461010085048216946201000081049092169363010000009092046001600160a01b03169291906111b890612df1565b80601f01602080910402602001604051908101604052809291908181526020018280546111e490612df1565b80156112315780601f1061120657610100808354040283529160200191611231565b820191906000526020600020905b81548152906001019060200180831161121457829003601f168201915b505050505090508b565b61124481611f38565b6112b65760405162461bcd60e51b815260206004820152603660248201527f416461707465723a3a736574746c653a207175657374696f6e4944206973206e60448201527f6f7420726561647920746f20626520736574746c656400000000000000000000606482015260840161046a565b6000818152600360205260409020600681015462010000900460ff16156113455760405162461bcd60e51b815260206004820152602360248201527f416461707465723a3a736574746c653a205175657374696f6e2069732070617560448201527f7365640000000000000000000000000000000000000000000000000000000000606482015260840161046a565b61134f8282612265565b5050565b336000908152602081905260409020546001146113ab5760405162461bcd60e51b81526020600482015260166024820152751059185c1d195c8bdb9bdd0b585d5d1a1bdc9a5e995960521b604482015260640161046a565b6001600160a01b038116600081815260208190526040808220829055517f75f7d814a7e98645388e45a05bafaf87a30979dbebd30db64acf618a8de3b10a9190a250565b336000908152602081905260409020546001146114475760405162461bcd60e51b81526020600482015260166024820152751059185c1d195c8bdb9bdd0b585d5d1a1bdc9a5e995960521b604482015260640161046a565b6000878152600360205260409020546114c85760405162461bcd60e51b815260206004820152603160248201527f416461707465723a3a7570646174655175657374696f6e3a205175657374696f60448201527f6e206e6f7420696e697469616c697a6564000000000000000000000000000000606482015260840161046a565b6000851161153e5760405162461bcd60e51b815260206004820152603860248201527f416461707465723a3a7570646174655175657374696f6e3a207265736f6c757460448201527f696f6e54696d65206d75737420626520706f7369746976650000000000000000606482015260840161046a565b61154784612359565b61159d5760405162461bcd60e51b815260206004820152602160248201527f416461707465723a3a756e737570706f727465642072657761726420746f6b656044820152603760f91b606482015260840161046a565b60008781526003602081905260409091200154156116235760405162461bcd60e51b815260206004820152603460248201527f416461707465723a3a7570646174655175657374696f6e3a205175657374696f60448201527f6e20697320616c726561647920736574746c6564000000000000000000000000606482015260840161046a565b6040518061016001604052808681526020018481526020018381526020016000815260200160008152602001600081526020018215158152602001600015158152602001600015158152602001856001600160a01b031681526020018781525060036000898152602001908152602001600020600082015181600001556020820151816001015560408201518160020155606082015181600301556080820151816004015560a0820151816005015560c08201518160060160006101000a81548160ff02191690831515021790555060e08201518160060160016101000a81548160ff0219169083151502179055506101008201518160060160026101000a81548160ff0219169083151502179055506101208201518160060160036101000a8154816001600160a01b0302191690836001600160a01b0316021790555061014082015181600701908051906020019061177e92919061299a565b50905050867f32da4770ea275a14ae9d822d58709fe7bfb296969d46357149ed02fb4135a17b8787878787876040516117bc96959493929190612e2c565b60405180910390a250505050505050565b336000908152602081905260409020546001146118255760405162461bcd60e51b81526020600482015260166024820152751059185c1d195c8bdb9bdd0b585d5d1a1bdc9a5e995960521b604482015260640161046a565b6000838152600360205260409020546118a65760405162461bcd60e51b815260206004820152603e60248201527f416461707465723a3a656d657267656e63795265706f72745061796f7574733a60448201527f207175657374696f6e4944206973206e6f7420696e697469616c697a65640000606482015260840161046a565b6000838152600360205260409020600501546119505760405162461bcd60e51b815260206004820152605360248201527f416461707465723a3a656d657267656e63795265706f72745061796f7574733a60448201527f207175657374696f6e4944206973206e6f7420666c616767656420666f72206560648201527f6d657267656e6379207265736f6c7574696f6e00000000000000000000000000608482015260a40161046a565b60008381526003602052604090206005015442116119d65760405162461bcd60e51b815260206004820152603d60248201527f416461707465723a3a656d657267656e63795265706f72745061796f7574733a60448201527f2073616665747920706572696f6420686173206e6f7420706173736564000000606482015260840161046a565b60028114611a4c5760405162461bcd60e51b815260206004820152603760248201527f416461707465723a3a656d657267656e63795265706f72745061796f7574733a60448201527f207061796f757473206d7573742062652062696e617279000000000000000000606482015260840161046a565b6000838152600360205260409081902060068101805461ff0019166101001790559051633124a62b60e21b81526001600160a01b037f0000000000000000000000000000000000000000000000000000000000000000169063c49298ac90611abc90879087908790600401612e73565b600060405180830381600087803b158015611ad657600080fd5b505af1158015611aea573d6000803e3d6000fd5b5050604051600192508691507f5c3937ed929cd157b73b417381d743daf6e1ef65999e3ccb5dd64bc3247e28d690600090a350505050565b33600090815260208190526040902054600114611b7a5760405162461bcd60e51b81526020600482015260166024820152751059185c1d195c8bdb9bdd0b585d5d1a1bdc9a5e995960521b604482015260640161046a565b600081815260036020526040902054611bfb5760405162461bcd60e51b815260206004820152603760248201527f416461707465723a3a756e50617573655175657374696f6e3a2071756573746960448201527f6f6e4944206973206e6f7420696e697469616c697a6564000000000000000000606482015260840161046a565b60008181526003602090815260409182902060068101805462ff00001916905591518381527f92d28918c5574e7fc0f4f948c39502682c81cfb4089b07b83f95b3264e5e5e069101611135565b60008781526003602052604090205415611cca5760405162461bcd60e51b815260206004820152603960248201527f416461707465723a3a696e697469616c697a655175657374696f6e3a2051756560448201527f7374696f6e20616c726561647920696e697469616c697a656400000000000000606482015260840161046a565b60008511611d405760405162461bcd60e51b815260206004820152603c60248201527f416461707465723a3a696e697469616c697a655175657374696f6e3a2072657360448201527f6f6c7574696f6e54696d65206d75737420626520706f73697469766500000000606482015260840161046a565b611d4984612359565b611d9f5760405162461bcd60e51b815260206004820152602160248201527f416461707465723a3a756e737570706f727465642072657761726420746f6b656044820152603760f91b606482015260840161046a565b6040518061016001604052808681526020018481526020018381526020016000815260200160008152602001600081526020018215158152602001600015158152602001600015158152602001856001600160a01b031681526020018781525060036000898152602001908152602001600020600082015181600001556020820151816001015560408201518160020155606082015181600301556080820151816004015560a0820151816005015560c08201518160060160006101000a81548160ff02191690831515021790555060e08201518160060160016101000a81548160ff0219169083151502179055506101008201518160060160026101000a81548160ff0219169083151502179055506101208201518160060160036101000a8154816001600160a01b0302191690836001600160a01b03160217905550610140820151816007019080519060200190611efa92919061299a565b50905050867f53af6c2e40505bb55a47d917203a12c8f063b6c505c11094d98ac8f772e8a0318787878787876040516117bc96959493929190612e2c565b600081815260036020526040812054611f5357506000919050565b60008281526003602052604090206004810154611f735750600092915050565b600681015460ff61010090910416151560011415611f945750600092915050565b600381015415611fa75750600092915050565b6000611fb16123ee565b6004808401546040517fbc58ccaa0000000000000000000000000000000000000000000000000000000081529293506001600160a01b0384169263bc58ccaa926120169230926e5945535f4f525f4e4f5f515545525960881b9260078a019101612f6f565b602060405180830381865afa158015612033573d6000803e3d6000fd5b505050506040513d601f19601f82011682018060405250810190610dc99190612fb2565b60006120616123ee565b6001600160a01b031663a9904f9b306e5945535f4f525f4e4f5f515545525960881b8560040154866007016040518563ffffffff1660e01b81526004016120ab9493929190612f6f565b61018060405180830381865afa1580156120c9573d6000803e3d6000fd5b505050506040513d601f19601f820116820180604052508101906120ed9190612fda565b60c0015192915050565b42600482018190556007820180546121cd9233926e5945535f4f525f4e4f5f515545525960881b9261212890612df1565b80601f016020809104026020016040519081016040528092919081815260200182805461215490612df1565b80156121a15780601f10612176576101008083540402835291602001916121a1565b820191906000526020600020905b81548152906001019060200180831161218457829003601f168201915b50505050508560060160039054906101000a90046001600160a01b0316866001015487600201546123fd565b600481015460068201546001830154600284015485939233927f6010c5373137e7c7c584b6bf87be56bf4a685890351251ac0a8d74e599455929926e5945535f4f525f4e4f5f515545525960881b926007890192630100000082046001600160a01b031692909160ff1680156122475750895460048b0154105b60405161225996959493929190613097565b60405180910390a45050565b600061226f6123ee565b6001600160a01b03166353b592396e5945535f4f525f4e4f5f515545525960881b8460040154856007016040518463ffffffff1660e01b81526004016122b7939291906130e0565b6020604051808303816000875af11580156122d6573d6000803e3d6000fd5b505050506040513d601f19601f820116820180604052508101906122fa9190613108565b9050600160ff1b8114156123175761231283836125eb565b505050565b43600383015581546004830154604051911190829085907fa6da625874a330dac87557bbedb7b127cb0a1877a8a3e62d97dc00f8b57622bb90600090a4505050565b6000612363612620565b6040517f3a3ab6720000000000000000000000000000000000000000000000000000000081526001600160a01b0384811660048301529190911690633a3ab67290602401602060405180830381865afa1580156123c4573d6000803e3d6000fd5b505050506040513d601f19601f820116820180604052508101906123e89190612fb2565b92915050565b60006123f86126ae565b905090565b60006124076123ee565b905082156124ba5761241b848930866126ff565b6040517fdd62ed3e0000000000000000000000000000000000000000000000000000000081523060048201526001600160a01b03828116602483015284919086169063dd62ed3e90604401602060405180830381865afa158015612483573d6000803e3d6000fd5b505050506040513d601f19601f820116820180604052508101906124a79190613108565b10156124ba576124ba8482600019612851565b6040517f11df92f10000000000000000000000000000000000000000000000000000000081526001600160a01b038216906311df92f190612507908a908a908a908a908a90600401613121565b6020604051808303816000875af1158015612526573d6000803e3d6000fd5b505050506040513d601f19601f8201168201806040525081019061254a9190613108565b5081156125e1576040517fad5a755a0000000000000000000000000000000000000000000000000000000081526001600160a01b0382169063ad5a755a9061259c908a908a908a90889060040161315d565b6020604051808303816000875af11580156125bb573d6000803e3d6000fd5b505050506040513d601f19601f820116820180604052508101906125df9190613108565b505b5050505050505050565b60006004820181905560405183917f7981b5832932948db4e32a4a16a0f44b2ce7ff088574afb9364b313f70f82e8f91a25050565b6002546040516302abf57960e61b81527f436f6c6c61746572616c57686974656c6973740000000000000000000000000060048201526000916001600160a01b03169063aafd5e40906024015b602060405180830381865afa15801561268a573d6000803e3d6000fd5b505050506040513d601f19601f820116820180604052508101906123f8919061318d565b6002546040516302abf57960e61b81527f4f7074696d69737469634f7261636c650000000000000000000000000000000060048201526000916001600160a01b03169063aafd5e409060240161266d565b604080516001600160a01b0385811660248301528481166044830152606480830185905283518084039091018152608490920183526020820180517bffffffffffffffffffffffffffffffffffffffffffffffffffffffff167f23b872dd00000000000000000000000000000000000000000000000000000000179052915160009283929088169161279191906131aa565b6000604051808303816000865af19150503d80600081146127ce576040519150601f19603f3d011682016040523d82523d6000602084013e6127d3565b606091505b50915091508180156127fd5750805115806127fd5750808060200190518101906127fd9190612fb2565b6128495760405162461bcd60e51b815260206004820152600360248201527f5354460000000000000000000000000000000000000000000000000000000000604482015260640161046a565b505050505050565b604080516001600160a01b038481166024830152604480830185905283518084039091018152606490920183526020820180517bffffffffffffffffffffffffffffffffffffffffffffffffffffffff167f095ea7b30000000000000000000000000000000000000000000000000000000017905291516000928392908716916128db91906131aa565b6000604051808303816000865af19150503d8060008114612918576040519150601f19603f3d011682016040523d82523d6000602084013e61291d565b606091505b50915091508180156129475750805115806129475750808060200190518101906129479190612fb2565b6129935760405162461bcd60e51b815260206004820152600260248201527f5341000000000000000000000000000000000000000000000000000000000000604482015260640161046a565b5050505050565b8280546129a690612df1565b90600052602060002090601f0160209004810192826129c85760008555612a0e565b82601f106129e157805160ff1916838001178555612a0e565b82800160010185558215612a0e579182015b82811115612a0e5782518255916020019190600101906129f3565b50612a1a929150612a1e565b5090565b5b80821115612a1a5760008155600101612a1f565b600060208284031215612a4557600080fd5b5035919050565b6001600160a01b0381168114612a6157600080fd5b50565b8035612a6f81612a4c565b919050565b600060208284031215612a8657600080fd5b8135612a9181612a4c565b9392505050565b634e487b7160e01b600052604160045260246000fd5b604051610180810167ffffffffffffffff81118282101715612ad257612ad2612a98565b60405290565b604051601f8201601f1916810167ffffffffffffffff81118282101715612b0157612b01612a98565b604052919050565b8015158114612a6157600080fd5b8035612a6f81612b09565b600080600080600080600060e0888a031215612b3d57600080fd5b8735965060208089013567ffffffffffffffff80821115612b5d57600080fd5b818b0191508b601f830112612b7157600080fd5b813581811115612b8357612b83612a98565b612b95601f8201601f19168501612ad8565b91508082528c84828501011115612bab57600080fd5b808484018584013760008482840101525080985050505060408801359450612bd560608901612a64565b93506080880135925060a08801359150612bf160c08901612b17565b905092959891949750929550565b600081518084526020808501945080840160005b83811015612c2f57815187529582019590820190600101612c13565b509495945050505050565b602081526000612a916020830184612bff565b60005b83811015612c68578181015183820152602001612c50565b83811115612c77576000848401525b50505050565b60008151808452612c95816020860160208601612c4d565b601f01601f19169290920160200192915050565b60006101608d83528c60208401528b60408401528a60608401528960808401528860a084015287151560c084015286151560e08401528515156101008401526001600160a01b03851661012084015280610140840152612d0b81840185612c7d565b9e9d5050505050505050505050505050565b600080600060408486031215612d3257600080fd5b83359250602084013567ffffffffffffffff80821115612d5157600080fd5b818601915086601f830112612d6557600080fd5b813581811115612d7457600080fd5b8760208260051b8501011115612d8957600080fd5b6020830194508093505050509250925092565b60008219821115612dbd57634e487b7160e01b600052601160045260246000fd5b500190565b828152604060208201526000610dc96040830184612bff565b634e487b7160e01b600052603260045260246000fd5b600181811c90821680612e0557607f821691505b60208210811415612e2657634e487b7160e01b600052602260045260246000fd5b50919050565b60c081526000612e3f60c0830189612c7d565b6020830197909752506001600160a01b0394909416604085015260608401929092526080830152151560a090910152919050565b8381526040602082015281604082015260007f07ffffffffffffffffffffffffffffffffffffffffffffffffffffffffffffff831115612eb257600080fd5b8260051b8085606085013760009201606001918252509392505050565b8054600090600181811c9080831680612ee957607f831692505b6020808410821415612f0b57634e487b7160e01b600052602260045260246000fd5b83885260208801828015612f265760018114612f3757612f62565b60ff19871682528282019750612f62565b60008981526020902060005b87811015612f5c57815484820152908601908401612f43565b83019850505b5050505050505092915050565b6001600160a01b0385168152836020820152826040820152608060608201526000612f9d6080830184612ecf565b9695505050505050565b8051612a6f81612b09565b600060208284031215612fc457600080fd5b8151612a9181612b09565b8051612a6f81612a4c565b60006101808284031215612fed57600080fd5b612ff5612aae565b612ffe83612fcf565b815261300c60208401612fcf565b602082015261301d60408401612fcf565b604082015261302e60608401612fa7565b606082015261303f60808401612fa7565b608082015260a0838101519082015260c0808401519082015260e08084015190820152610100808401519082015261012080840151908201526101408084015190820152610160928301519281019290925250919050565b86815260c0602082015260006130b060c0830188612ecf565b90506001600160a01b038616604083015284606083015283608083015282151560a0830152979650505050505050565b8381528260208201526060604082015260006130ff6060830184612ecf565b95945050505050565b60006020828403121561311a57600080fd5b5051919050565b85815284602082015260a06040820152600061314060a0830186612c7d565b6001600160a01b0394909416606083015250608001529392505050565b84815283602082015260806040820152600061317c6080830185612c7d565b905082606083015295945050505050565b60006020828403121561319f57600080fd5b8151612a9181612a4c565b600082516131bc818460208701612c4d565b919091019291505056fea26469706673582212202ffbd87cb8194f0b1724edd0367e30512480a8077a11f7b18f95bb9cbfd03cb764736f6c634300080a0033",
  "devdoc": {
    "kind": "dev",
    "methods": {
      "emergencyReportPayouts(bytes32,uint256[])": {
        "params": {
          "payouts": "- Array of position payouts for the referenced question",
          "questionID": "- The unique questionID of the question"
        }
      },
      "flagQuestionForEmergencyResolution(bytes32)": {
        "params": {
          "questionID": "- The unique questionID of the question"
        }
      },
      "getExpectedPayouts(bytes32)": {
        "params": {
          "questionID": "- The unique questionID of the question"
        }
      },
      "initializeQuestion(bytes32,bytes,uint256,address,uint256,uint256,bool)": {
        "params": {
          "ancillaryData": "- Data used to resolve a question",
          "earlyResolutionEnabled": "- Determines whether a question can be resolved early",
          "proposalBond": "- Bond required to be posted by a price proposer and disputer",
          "questionID": "- The unique questionID of the question",
          "resolutionTime": "- Timestamp after which the Adapter can resolve a question",
          "reward": "- Reward offered to a successful proposer",
          "rewardToken": "- ERC20 token address used for payment of rewards and fees"
        }
      },
      "isQuestionInitialized(bytes32)": {
        "params": {
          "questionID": "- The unique questionID"
        }
      },
      "pauseQuestion(bytes32)": {
        "params": {
          "questionID": "- The unique questionID of the question"
        }
      },
      "prepareAndInitialize(bytes32,bytes,uint256,address,uint256,uint256,bool)": {
        "details": "Prepares the condition using the Adapter as the oracle and a fixed outcomeSlotCount",
        "params": {
          "ancillaryData": "- Data used to resolve a question",
          "earlyResolutionEnabled": "- Determines whether a question can be resolved early",
          "proposalBond": "- Bond required to be posted by a price proposer and disputer",
          "questionID": "- The unique questionID of the question",
          "resolutionTime": "- Timestamp after which the Adapter can resolve a question",
          "reward": "- Reward offered to a successful proposer",
          "rewardToken": "- ERC20 token address used for payment of rewards and fees"
        }
      },
      "readyToRequestResolution(bytes32)": {
        "params": {
          "questionID": "- The unique questionID of the question"
        }
      },
      "readyToSettle(bytes32)": {
        "params": {
          "questionID": "- The unique questionID of the question"
        }
      },
      "reportPayouts(bytes32)": {
        "params": {
          "questionID": "- The unique questionID of the question"
        }
      },
      "requestResolutionData(bytes32)": {
        "params": {
          "questionID": "- The unique questionID of the question"
        }
      },
      "setFinderAddress(address)": {
        "params": {
          "newFinderAddress": "- The new finder address"
        }
      },
      "settle(bytes32)": {
        "params": {
          "questionID": "- The unique questionID of the question"
        }
      },
      "unPauseQuestion(bytes32)": {
        "params": {
          "questionID": "- The unique questionID of the question"
        }
      },
      "updateQuestion(bytes32,bytes,uint256,address,uint256,uint256,bool)": {
        "params": {
          "ancillaryData": "- Data used to resolve a question",
          "earlyResolutionEnabled": "- Determines whether a question can be resolved early",
          "proposalBond": "- Bond required to be posted by a price proposer and disputer",
          "questionID": "- The unique questionID of the question",
          "resolutionTime": "- Timestamp after which the Adapter can resolve a question",
          "reward": "- Reward offered to a successful proposer",
          "rewardToken": "- ERC20 token address used for payment of rewards and fees"
        }
      }
    },
    "title": "UmaConditionalTokensBinaryAdapter",
    "version": 1
  },
  "userdoc": {
    "events": {
      "NewFinderAddress(address,address)": {
        "notice": "Emitted when the UMA Finder is changed"
      },
      "QuestionFlaggedForAdminResolution(bytes32)": {
        "notice": "Emitted when a question is flagged by an admin for emergency resolution"
      },
      "QuestionInitialized(bytes32,bytes,uint256,address,uint256,uint256,bool)": {
        "notice": "Emitted when a questionID is initialized"
      },
      "QuestionPaused(bytes32)": {
        "notice": "Emitted when a question is paused by an authorized user"
      },
      "QuestionReset(bytes32)": {
        "notice": "Emitted when a question is reset"
      },
      "QuestionResolved(bytes32,bool)": {
        "notice": "Emitted when a question is resolved"
      },
      "QuestionSettled(bytes32,int256,bool)": {
        "notice": "Emitted when a question is settled"
      },
      "QuestionUnpaused(bytes32)": {
        "notice": "Emitted when a question is unpaused by an authorized user"
      },
      "QuestionUpdated(bytes32,bytes,uint256,address,uint256,uint256,bool)": {
        "notice": "Emitted when a questionID is updated"
      },
      "ResolutionDataRequested(address,uint256,bytes32,bytes32,bytes,address,uint256,uint256,bool)": {
        "notice": "Emitted when resolution data is requested from the Optimistic Oracle"
      }
    },
    "kind": "user",
    "methods": {
      "conditionalTokenContract()": {
        "notice": "Conditional Tokens"
      },
      "deny(address)": {
        "notice": "Deauthorizes a user"
      },
      "emergencyReportPayouts(bytes32,uint256[])": {
        "notice": "Allows an authorized user to report payouts in an emergency"
      },
      "emergencySafetyPeriod()": {
        "notice": "Time period after which an authorized user can emergency resolve a condition"
      },
      "flagQuestionForEmergencyResolution(bytes32)": {
        "notice": "Flags a market for emergency resolution in an emergency"
      },
      "getExpectedPayouts(bytes32)": {
        "notice": "Retrieves the expected payout of a settled question"
      },
      "identifier()": {
        "notice": "Unique query identifier for the Optimistic Oracle"
      },
      "ignorePrice()": {
        "notice": "Price that indicates that the OO does not have a valid price yet"
      },
      "initializeQuestion(bytes32,bytes,uint256,address,uint256,uint256,bool)": {
        "notice": "Initializes a question on the Adapter to report on"
      },
      "isQuestionInitialized(bytes32)": {
        "notice": "Utility function that verifies if a question is initialized"
      },
      "pauseQuestion(bytes32)": {
        "notice": "Allows an authorized user to pause market resolution in an emergency"
      },
      "prepareAndInitialize(bytes32,bytes,uint256,address,uint256,uint256,bool)": {
        "notice": "Utility function that atomically prepares a question on the Conditional Tokens contract         and initializes it on the Adapter"
      },
      "questions(bytes32)": {
        "notice": "Mapping of questionID to QuestionData"
      },
      "readyToRequestResolution(bytes32)": {
        "notice": "Checks whether or not a question can start the resolution process"
      },
      "readyToSettle(bytes32)": {
        "notice": "Checks whether a questionID is ready to be settled"
      },
      "rely(address)": {
        "notice": "Authorizes a user"
      },
      "reportPayouts(bytes32)": {
        "notice": "Resolves a question"
      },
      "requestResolutionData(bytes32)": {
        "notice": "Request resolution data from the Optimistic Oracle"
      },
      "setFinderAddress(address)": {
        "notice": "Allows an authorized user to update the UMA Finder address"
      },
      "settle(bytes32)": {
        "notice": "Settle/finalize the resolution data of a questionIf the OO returns the ignore price, this method resets the question, allowing new price requests"
      },
      "umaFinder()": {
        "notice": "UMA Finder address"
      },
      "unPauseQuestion(bytes32)": {
        "notice": "Allows an authorized user to unpause market resolution in an emergency"
      },
      "updateQuestion(bytes32,bytes,uint256,address,uint256,uint256,bool)": {
        "notice": "Allows an authorized user to update a question"
      },
      "wards(address)": {
        "notice": "Auth"
      }
    },
    "notice": "Enables CTF resolution via UMA's Optimistic Oracle",
    "version": 1
  },
  "storageLayout": {
    "storage": [
      {
        "astId": 2914,
        "contract": "contracts/UmaConditionalTokensBinaryAdapter.sol:UmaConditionalTokensBinaryAdapter",
        "label": "wards",
        "offset": 0,
        "slot": "0",
        "type": "t_mapping(t_address,t_uint256)"
      },
      {
        "astId": 10,
        "contract": "contracts/UmaConditionalTokensBinaryAdapter.sol:UmaConditionalTokensBinaryAdapter",
        "label": "_status",
        "offset": 0,
        "slot": "1",
        "type": "t_uint256"
      },
      {
        "astId": 1092,
        "contract": "contracts/UmaConditionalTokensBinaryAdapter.sol:UmaConditionalTokensBinaryAdapter",
        "label": "umaFinder",
        "offset": 0,
        "slot": "2",
        "type": "t_address"
      },
      {
        "astId": 1140,
        "contract": "contracts/UmaConditionalTokensBinaryAdapter.sol:UmaConditionalTokensBinaryAdapter",
        "label": "questions",
        "offset": 0,
        "slot": "3",
        "type": "t_mapping(t_bytes32,t_struct(QuestionData)1134_storage)"
      }
    ],
    "types": {
      "t_address": {
        "encoding": "inplace",
        "label": "address",
        "numberOfBytes": "20"
      },
      "t_bool": {
        "encoding": "inplace",
        "label": "bool",
        "numberOfBytes": "1"
      },
      "t_bytes32": {
        "encoding": "inplace",
        "label": "bytes32",
        "numberOfBytes": "32"
      },
      "t_bytes_storage": {
        "encoding": "bytes",
        "label": "bytes",
        "numberOfBytes": "32"
      },
      "t_mapping(t_address,t_uint256)": {
        "encoding": "mapping",
        "key": "t_address",
        "label": "mapping(address => uint256)",
        "numberOfBytes": "32",
        "value": "t_uint256"
      },
      "t_mapping(t_bytes32,t_struct(QuestionData)1134_storage)": {
        "encoding": "mapping",
        "key": "t_bytes32",
        "label": "mapping(bytes32 => struct UmaConditionalTokensBinaryAdapter.QuestionData)",
        "numberOfBytes": "32",
        "value": "t_struct(QuestionData)1134_storage"
      },
      "t_struct(QuestionData)1134_storage": {
        "encoding": "inplace",
        "label": "struct UmaConditionalTokensBinaryAdapter.QuestionData",
        "members": [
          {
            "astId": 1103,
            "contract": "contracts/UmaConditionalTokensBinaryAdapter.sol:UmaConditionalTokensBinaryAdapter",
            "label": "resolutionTime",
            "offset": 0,
            "slot": "0",
            "type": "t_uint256"
          },
          {
            "astId": 1106,
            "contract": "contracts/UmaConditionalTokensBinaryAdapter.sol:UmaConditionalTokensBinaryAdapter",
            "label": "reward",
            "offset": 0,
            "slot": "1",
            "type": "t_uint256"
          },
          {
            "astId": 1109,
            "contract": "contracts/UmaConditionalTokensBinaryAdapter.sol:UmaConditionalTokensBinaryAdapter",
            "label": "proposalBond",
            "offset": 0,
            "slot": "2",
            "type": "t_uint256"
          },
          {
            "astId": 1112,
            "contract": "contracts/UmaConditionalTokensBinaryAdapter.sol:UmaConditionalTokensBinaryAdapter",
            "label": "settled",
            "offset": 0,
            "slot": "3",
            "type": "t_uint256"
          },
          {
            "astId": 1115,
            "contract": "contracts/UmaConditionalTokensBinaryAdapter.sol:UmaConditionalTokensBinaryAdapter",
            "label": "requestTimestamp",
            "offset": 0,
            "slot": "4",
            "type": "t_uint256"
          },
          {
            "astId": 1118,
            "contract": "contracts/UmaConditionalTokensBinaryAdapter.sol:UmaConditionalTokensBinaryAdapter",
            "label": "adminResolutionTimestamp",
            "offset": 0,
            "slot": "5",
            "type": "t_uint256"
          },
          {
            "astId": 1121,
            "contract": "contracts/UmaConditionalTokensBinaryAdapter.sol:UmaConditionalTokensBinaryAdapter",
            "label": "earlyResolutionEnabled",
            "offset": 0,
            "slot": "6",
            "type": "t_bool"
          },
          {
            "astId": 1124,
            "contract": "contracts/UmaConditionalTokensBinaryAdapter.sol:UmaConditionalTokensBinaryAdapter",
            "label": "resolved",
            "offset": 1,
            "slot": "6",
            "type": "t_bool"
          },
          {
            "astId": 1127,
            "contract": "contracts/UmaConditionalTokensBinaryAdapter.sol:UmaConditionalTokensBinaryAdapter",
            "label": "paused",
            "offset": 2,
            "slot": "6",
            "type": "t_bool"
          },
          {
            "astId": 1130,
            "contract": "contracts/UmaConditionalTokensBinaryAdapter.sol:UmaConditionalTokensBinaryAdapter",
            "label": "rewardToken",
            "offset": 3,
            "slot": "6",
            "type": "t_address"
          },
          {
            "astId": 1133,
            "contract": "contracts/UmaConditionalTokensBinaryAdapter.sol:UmaConditionalTokensBinaryAdapter",
            "label": "ancillaryData",
            "offset": 0,
            "slot": "7",
            "type": "t_bytes_storage"
          }
        ],
        "numberOfBytes": "256"
      },
      "t_uint256": {
        "encoding": "inplace",
        "label": "uint256",
        "numberOfBytes": "32"
      }
    }
  }
}