{
  "address": "0x5df4AFB8530e4Cf1Ec64dC31B28994B72665Aa5f",
  "abi": [
    {
      "inputs": [
        {
          "internalType": "address",
          "name": "conditionalTokenAddress",
          "type": "address"
        },
        {
          "internalType": "address",
          "name": "umaFinderAddress",
          "type": "address"
        }
      ],
      "stateMutability": "nonpayable",
      "type": "constructor"
    },
    {
      "anonymous": false,
      "inputs": [
        {
          "indexed": true,
          "internalType": "address",
          "name": "usr",
          "type": "address"
        }
      ],
      "name": "AuthorizedUser",
      "type": "event"
    },
    {
      "anonymous": false,
      "inputs": [
        {
          "indexed": true,
          "internalType": "address",
          "name": "usr",
          "type": "address"
        }
      ],
      "name": "DeauthorizedUser",
      "type": "event"
    },
    {
      "anonymous": false,
      "inputs": [
        {
          "indexed": false,
          "internalType": "address",
          "name": "oldFinder",
          "type": "address"
        },
        {
          "indexed": false,
          "internalType": "address",
          "name": "newFinder",
          "type": "address"
        }
      ],
      "name": "NewFinderAddress",
      "type": "event"
    },
    {
      "anonymous": false,
      "inputs": [
        {
          "indexed": true,
          "internalType": "bytes32",
          "name": "questionID",
          "type": "bytes32"
        },
        {
          "indexed": false,
          "internalType": "bytes",
          "name": "ancillaryData",
          "type": "bytes"
        },
        {
          "indexed": false,
          "internalType": "uint256",
          "name": "resolutionTime",
          "type": "uint256"
        },
        {
          "indexed": false,
          "internalType": "address",
          "name": "rewardToken",
          "type": "address"
        },
        {
          "indexed": false,
          "internalType": "uint256",
          "name": "reward",
          "type": "uint256"
        },
        {
          "indexed": false,
          "internalType": "uint256",
          "name": "proposalBond",
          "type": "uint256"
        },
        {
          "indexed": false,
          "internalType": "bool",
          "name": "earlyResolutionEnabled",
          "type": "bool"
        }
      ],
      "name": "QuestionInitialized",
      "type": "event"
    },
    {
      "anonymous": false,
      "inputs": [
        {
          "indexed": false,
          "internalType": "bytes32",
          "name": "questionID",
          "type": "bytes32"
        }
      ],
      "name": "QuestionPaused",
      "type": "event"
    },
    {
      "anonymous": false,
      "inputs": [
        {
          "indexed": true,
          "internalType": "bytes32",
          "name": "questionID",
          "type": "bytes32"
        }
      ],
      "name": "QuestionReset",
      "type": "event"
    },
    {
      "anonymous": false,
      "inputs": [
        {
          "indexed": true,
          "internalType": "bytes32",
          "name": "questionID",
          "type": "bytes32"
        },
        {
          "indexed": true,
          "internalType": "bool",
          "name": "emergencyReport",
          "type": "bool"
        }
      ],
      "name": "QuestionResolved",
      "type": "event"
    },
    {
      "anonymous": false,
      "inputs": [
        {
          "indexed": true,
          "internalType": "bytes32",
          "name": "questionID",
          "type": "bytes32"
        },
        {
          "indexed": true,
          "internalType": "int256",
          "name": "settledPrice",
          "type": "int256"
        },
        {
          "indexed": true,
          "internalType": "bool",
          "name": "earlyResolution",
          "type": "bool"
        }
      ],
      "name": "QuestionSettled",
      "type": "event"
    },
    {
      "anonymous": false,
      "inputs": [
        {
          "indexed": false,
          "internalType": "bytes32",
          "name": "questionID",
          "type": "bytes32"
        }
      ],
      "name": "QuestionUnpaused",
      "type": "event"
    },
    {
      "anonymous": false,
      "inputs": [
        {
          "indexed": true,
          "internalType": "bytes32",
          "name": "questionID",
          "type": "bytes32"
        },
        {
          "indexed": false,
          "internalType": "bytes",
          "name": "ancillaryData",
          "type": "bytes"
        },
        {
          "indexed": false,
          "internalType": "uint256",
          "name": "resolutionTime",
          "type": "uint256"
        },
        {
          "indexed": false,
          "internalType": "address",
          "name": "rewardToken",
          "type": "address"
        },
        {
          "indexed": false,
          "internalType": "uint256",
          "name": "reward",
          "type": "uint256"
        },
        {
          "indexed": false,
          "internalType": "uint256",
          "name": "proposalBond",
          "type": "uint256"
        },
        {
          "indexed": false,
          "internalType": "bool",
          "name": "earlyResolutionEnabled",
          "type": "bool"
        }
      ],
      "name": "QuestionUpdated",
      "type": "event"
    },
    {
      "anonymous": false,
      "inputs": [
        {
          "indexed": true,
          "internalType": "address",
          "name": "requestor",
          "type": "address"
        },
        {
          "indexed": true,
          "internalType": "uint256",
          "name": "resolutionTimestamp",
          "type": "uint256"
        },
        {
          "indexed": true,
          "internalType": "bytes32",
          "name": "questionID",
          "type": "bytes32"
        },
        {
          "indexed": false,
          "internalType": "bytes32",
          "name": "identifier",
          "type": "bytes32"
        },
        {
          "indexed": false,
          "internalType": "bytes",
          "name": "ancillaryData",
          "type": "bytes"
        },
        {
          "indexed": false,
          "internalType": "address",
          "name": "rewardToken",
          "type": "address"
        },
        {
          "indexed": false,
          "internalType": "uint256",
          "name": "reward",
          "type": "uint256"
        },
        {
          "indexed": false,
          "internalType": "uint256",
          "name": "proposalBond",
          "type": "uint256"
        },
        {
          "indexed": false,
          "internalType": "bool",
          "name": "earlyResolution",
          "type": "bool"
        }
      ],
      "name": "ResolutionDataRequested",
      "type": "event"
    },
    {
      "inputs": [],
      "name": "conditionalTokenContract",
      "outputs": [
        {
          "internalType": "contract IConditionalTokens",
          "name": "",
          "type": "address"
        }
      ],
      "stateMutability": "view",
      "type": "function"
    },
    {
      "inputs": [
        {
          "internalType": "address",
          "name": "usr",
          "type": "address"
        }
      ],
      "name": "deny",
      "outputs": [],
      "stateMutability": "nonpayable",
      "type": "function"
    },
    {
      "inputs": [
        {
          "internalType": "bytes32",
          "name": "questionID",
          "type": "bytes32"
        },
        {
          "internalType": "uint256[]",
          "name": "payouts",
          "type": "uint256[]"
        }
      ],
      "name": "emergencyReportPayouts",
      "outputs": [],
      "stateMutability": "nonpayable",
      "type": "function"
    },
    {
      "inputs": [],
      "name": "emergencySafetyPeriod",
      "outputs": [
        {
          "internalType": "uint256",
          "name": "",
          "type": "uint256"
        }
      ],
      "stateMutability": "view",
      "type": "function"
    },
    {
      "inputs": [
        {
          "internalType": "bytes32",
          "name": "questionID",
          "type": "bytes32"
        }
      ],
      "name": "getExpectedPayouts",
      "outputs": [
        {
          "internalType": "uint256[]",
          "name": "",
          "type": "uint256[]"
        }
      ],
      "stateMutability": "view",
      "type": "function"
    },
    {
      "inputs": [],
      "name": "identifier",
      "outputs": [
        {
          "internalType": "bytes32",
          "name": "",
          "type": "bytes32"
        }
      ],
      "stateMutability": "view",
      "type": "function"
    },
    {
      "inputs": [],
      "name": "ignorePrice",
      "outputs": [
        {
          "internalType": "int256",
          "name": "",
          "type": "int256"
        }
      ],
      "stateMutability": "pure",
      "type": "function"
    },
    {
      "inputs": [
        {
          "internalType": "bytes32",
          "name": "questionID",
          "type": "bytes32"
        },
        {
          "internalType": "bytes",
          "name": "ancillaryData",
          "type": "bytes"
        },
        {
          "internalType": "uint256",
          "name": "resolutionTime",
          "type": "uint256"
        },
        {
          "internalType": "address",
          "name": "rewardToken",
          "type": "address"
        },
        {
          "internalType": "uint256",
          "name": "reward",
          "type": "uint256"
        },
        {
          "internalType": "uint256",
          "name": "proposalBond",
          "type": "uint256"
        },
        {
          "internalType": "bool",
          "name": "earlyResolutionEnabled",
          "type": "bool"
        }
      ],
      "name": "initializeQuestion",
      "outputs": [],
      "stateMutability": "nonpayable",
      "type": "function"
    },
    {
      "inputs": [
        {
          "internalType": "bytes32",
          "name": "questionID",
          "type": "bytes32"
        }
      ],
      "name": "isQuestionInitialized",
      "outputs": [
        {
          "internalType": "bool",
          "name": "",
          "type": "bool"
        }
      ],
      "stateMutability": "view",
      "type": "function"
    },
    {
      "inputs": [
        {
          "internalType": "bytes32",
          "name": "questionID",
          "type": "bytes32"
        }
      ],
      "name": "pauseQuestion",
      "outputs": [],
      "stateMutability": "nonpayable",
      "type": "function"
    },
    {
      "inputs": [
        {
          "internalType": "bytes32",
          "name": "questionID",
          "type": "bytes32"
        },
        {
          "internalType": "bytes",
          "name": "ancillaryData",
          "type": "bytes"
        },
        {
          "internalType": "uint256",
          "name": "resolutionTime",
          "type": "uint256"
        },
        {
          "internalType": "address",
          "name": "rewardToken",
          "type": "address"
        },
        {
          "internalType": "uint256",
          "name": "reward",
          "type": "uint256"
        },
        {
          "internalType": "uint256",
          "name": "proposalBond",
          "type": "uint256"
        },
        {
          "internalType": "bool",
          "name": "earlyResolutionEnabled",
          "type": "bool"
        }
      ],
      "name": "prepareAndInitialize",
      "outputs": [],
      "stateMutability": "nonpayable",
      "type": "function"
    },
    {
      "inputs": [
        {
          "internalType": "bytes32",
          "name": "",
          "type": "bytes32"
        }
      ],
      "name": "questions",
      "outputs": [
        {
          "internalType": "uint256",
          "name": "resolutionTime",
          "type": "uint256"
        },
        {
          "internalType": "uint256",
          "name": "reward",
          "type": "uint256"
        },
        {
          "internalType": "uint256",
          "name": "proposalBond",
          "type": "uint256"
        },
        {
          "internalType": "uint256",
          "name": "settled",
          "type": "uint256"
        },
        {
          "internalType": "uint256",
          "name": "earlyResolutionTimestamp",
          "type": "uint256"
        },
        {
          "internalType": "bool",
          "name": "earlyResolutionEnabled",
          "type": "bool"
        },
        {
          "internalType": "bool",
          "name": "resolutionDataRequested",
          "type": "bool"
        },
        {
          "internalType": "bool",
          "name": "resolved",
          "type": "bool"
        },
        {
          "internalType": "bool",
          "name": "paused",
          "type": "bool"
        },
        {
          "internalType": "address",
          "name": "rewardToken",
          "type": "address"
        },
        {
          "internalType": "bytes",
          "name": "ancillaryData",
          "type": "bytes"
        }
      ],
      "stateMutability": "view",
      "type": "function"
    },
    {
      "inputs": [
        {
          "internalType": "bytes32",
          "name": "questionID",
          "type": "bytes32"
        }
      ],
      "name": "readyToRequestResolution",
      "outputs": [
        {
          "internalType": "bool",
          "name": "",
          "type": "bool"
        }
      ],
      "stateMutability": "view",
      "type": "function"
    },
    {
      "inputs": [
        {
          "internalType": "bytes32",
          "name": "questionID",
          "type": "bytes32"
        }
      ],
      "name": "readyToSettle",
      "outputs": [
        {
          "internalType": "bool",
          "name": "",
          "type": "bool"
        }
      ],
      "stateMutability": "view",
      "type": "function"
    },
    {
      "inputs": [
        {
          "internalType": "address",
          "name": "usr",
          "type": "address"
        }
      ],
      "name": "rely",
      "outputs": [],
      "stateMutability": "nonpayable",
      "type": "function"
    },
    {
      "inputs": [
        {
          "internalType": "bytes32",
          "name": "questionID",
          "type": "bytes32"
        }
      ],
      "name": "reportPayouts",
      "outputs": [],
      "stateMutability": "nonpayable",
      "type": "function"
    },
    {
      "inputs": [
        {
          "internalType": "bytes32",
          "name": "questionID",
          "type": "bytes32"
        }
      ],
      "name": "requestResolutionData",
      "outputs": [],
      "stateMutability": "nonpayable",
      "type": "function"
    },
    {
      "inputs": [
        {
          "internalType": "address",
          "name": "newFinderAddress",
          "type": "address"
        }
      ],
      "name": "setFinderAddress",
      "outputs": [],
      "stateMutability": "nonpayable",
      "type": "function"
    },
    {
      "inputs": [
        {
          "internalType": "bytes32",
          "name": "questionID",
          "type": "bytes32"
        }
      ],
      "name": "settle",
      "outputs": [],
      "stateMutability": "nonpayable",
      "type": "function"
    },
    {
      "inputs": [],
      "name": "umaFinder",
      "outputs": [
        {
          "internalType": "address",
          "name": "",
          "type": "address"
        }
      ],
      "stateMutability": "view",
      "type": "function"
    },
    {
      "inputs": [
        {
          "internalType": "bytes32",
          "name": "questionID",
          "type": "bytes32"
        }
      ],
      "name": "unPauseQuestion",
      "outputs": [],
      "stateMutability": "nonpayable",
      "type": "function"
    },
    {
      "inputs": [
        {
          "internalType": "bytes32",
          "name": "questionID",
          "type": "bytes32"
        },
        {
          "internalType": "bytes",
          "name": "ancillaryData",
          "type": "bytes"
        },
        {
          "internalType": "uint256",
          "name": "resolutionTime",
          "type": "uint256"
        },
        {
          "internalType": "address",
          "name": "rewardToken",
          "type": "address"
        },
        {
          "internalType": "uint256",
          "name": "reward",
          "type": "uint256"
        },
        {
          "internalType": "uint256",
          "name": "proposalBond",
          "type": "uint256"
        },
        {
          "internalType": "bool",
          "name": "earlyResolutionEnabled",
          "type": "bool"
        }
      ],
      "name": "updateQuestion",
      "outputs": [],
      "stateMutability": "nonpayable",
      "type": "function"
    },
    {
      "inputs": [
        {
          "internalType": "address",
          "name": "",
          "type": "address"
        }
      ],
      "name": "wards",
      "outputs": [
        {
          "internalType": "uint256",
          "name": "",
          "type": "uint256"
        }
      ],
      "stateMutability": "view",
      "type": "function"
    }
  ],
  "transactionHash": "0xf64bf58162b1cceb4c8b5fc702d7c9d23ce36931bc89248f3f9d923089729e74",
  "args": [
    "0x4D97DCd97eC945f40cF65F87097ACe5EA0476045",
    "0x09aea4b2242abC8bb4BB78D537A67a245A7bEC64"
  ],
  "solcInputHash": "8a534343df06f0a230a0c58226f6a579",
  "bytecode": "0x60a06040523480156200001157600080fd5b5060405162003581380380620035818339810160408190526200003491620000c8565b6001600081815533808252602083905260408083209390935591517f6be99b533364b794276e94ff114fbf96f7a82420a2033d88717a24603e4bd2959190a260609190911b6001600160601b031916608052600280546001600160a01b0319166001600160a01b03909216919091179055620000ff565b80516001600160a01b0381168114620000c357600080fd5b919050565b60008060408385031215620000db578182fd5b620000e683620000ab565b9150620000f660208401620000ab565b90509250929050565b60805160601c61344e6200013360003960008181610467015281816105f401528181610a1a0152611097015261344e6000f3fe608060405234801561001057600080fd5b506004361061018d5760003560e01c806386ec6288116100e3578063a39cc2991161008c578063c66d4c6c11610066578063c66d4c6c14610338578063de0ea61214610340578063e8143999146103535761018d565b8063a39cc299146102ff578063be70547314610312578063bf353dbb146103255761018d565b8063987757dd116100bd578063987757dd146102c65780639c52a7f1146102d9578063a29f7fd8146102ec5761018d565b806386ec6288146102815780638b5dc5041461029457806395addb901461029c5761018d565b8063275180c01161014557806365fae35e1161011f57806365fae35e1461025157806370b9e904146102645780637998a1c4146102795761018d565b8063275180c01461020b57806334e5e28e1461021e5780633cc792651461023e5761018d565b80630d21a1ac116101765780630d21a1ac146101d05780631d45ae87146101e35780632654320c146101f85761018d565b8063092149ed146101925780630b950ca9146101bb575b600080fd5b6101a56101a0366004612349565b610366565b6040516101b29190612781565b60405180910390f35b6101ce6101c93660046122ee565b61037d565b005b6101ce6101de3660046123da565b610437565b6101eb6104eb565b6040516101b2919061278c565b6101a5610206366004612349565b61050f565b6101ce610219366004612349565b61058d565b61023161022c366004612349565b61068f565b6040516101b2919061276e565b6101ce61024c366004612349565b6108dd565b6101ce61025f3660046122ee565b6109a1565b61026c610a18565b6040516101b291906126aa565b6101eb610a3c565b6101ce61028f366004612349565b610a52565b61026c610b07565b6102af6102aa366004612349565b610b16565b6040516101b29b9a999897969594939291906132a4565b6101ce6102d4366004612349565b610c13565b6101ce6102e73660046122ee565b610cae565b6101ce6102fa3660046123da565b610d22565b6101ce61030d366004612361565b610fae565b6101ce610320366004612349565b611136565b6101eb6103333660046122ee565b6111d9565b6101eb6111eb565b6101ce61034e3660046123da565b6111f2565b6101a5610361366004612349565b61140e565b60008181526003602052604090205415155b919050565b33600090815260016020819052604090912054146103b65760405162461bcd60e51b81526004016103ad90612b83565b60405180910390fd5b6002546040517fbedcf54426d8d55b60e4e4112df13f213106b6fdfb1f61984a08d007a1653069916103f5916001600160a01b039091169084906126be565b60405180910390a1600280547fffffffffffffffffffffffff0000000000000000000000000000000000000000166001600160a01b0392909216919091179055565b6040517fd96ee7540000000000000000000000000000000000000000000000000000000081526001600160a01b037f0000000000000000000000000000000000000000000000000000000000000000169063d96ee754906104a19030908b906002906004016126fc565b600060405180830381600087803b1580156104bb57600080fd5b505af11580156104cf573d6000803e3d6000fd5b505050506104e2878787878787876111f2565b50505050505050565b7f800000000000000000000000000000000000000000000000000000000000000090565b600061051a82610366565b61052657506000610378565b60008281526003602052604090206005810154610100900460ff1615610550576000915050610378565b600581015462010000900460ff161561056d576000915050610378565b600581015460ff1615610584576001915050610378565b54421192915050565b6000818152600360205260408120906105a58361068f565b9050816003015443116105ca5760405162461bcd60e51b81526004016103ad90612f5c565b60058201805462ff0000191662010000179055604051633124a62b60e21b81526001600160a01b037f0000000000000000000000000000000000000000000000000000000000000000169063c49298ac9061062b90869085906004016127ef565b600060405180830381600087803b15801561064557600080fd5b505af1158015610659573d6000803e3d6000fd5b5050604051600092508591507f5c3937ed929cd157b73b417381d743daf6e1ef65999e3ccb5dd64bc3247e28d6908390a3505050565b606061069a82610366565b6106b65760405162461bcd60e51b81526004016103ad90612e45565b60008281526003602052604090206005810154610100900460ff166106ed5760405162461bcd60e51b81526004016103ad9061292c565b600581015462010000900460ff16156107185760405162461bcd60e51b81526004016103ad906130d0565b600081600301541161073c5760405162461bcd60e51b81526004016103ad90612c3d565b60058101546301000000900460ff16156107685760405162461bcd60e51b81526004016103ad90612b26565b60006107738261152f565b60408051600280825260608201835292935060009290916020830190803683370190505090508115806107ad5750816706f05b59d3b20000145b806107bf575081670de0b6b3a7640000145b6107db5760405162461bcd60e51b81526004016103ad906129af565b816108435760008160008151811061080357634e487b7160e01b600052603260045260246000fd5b60200260200101818152505060018160018151811061083257634e487b7160e01b600052603260045260246000fd5b6020026020010181815250506108d5565b816706f05b59d3b2000014156108765760018160008151811061080357634e487b7160e01b600052603260045260246000fd5b60018160008151811061089957634e487b7160e01b600052603260045260246000fd5b6020026020010181815250506000816001815181106108c857634e487b7160e01b600052603260045260246000fd5b6020026020010181815250505b949350505050565b600260005414156109005760405162461bcd60e51b81526004016103ad906131b3565b600260005561090e8161050f565b61092a5760405162461bcd60e51b81526004016103ad90612bba565b600081815260036020526040902060058101546301000000900460ff16156109645760405162461bcd60e51b81526004016103ad906131ea565b600581015460ff1680156109785750805442105b1561098d5761098782826115e2565b50610999565b6109978282611747565b505b506001600055565b33600090815260016020819052604090912054146109d15760405162461bcd60e51b81526004016103ad90612b83565b6001600160a01b038116600081815260016020819052604080832091909155517f6be99b533364b794276e94ff114fbf96f7a82420a2033d88717a24603e4bd2959190a250565b7f000000000000000000000000000000000000000000000000000000000000000081565b6e5945535f4f525f4e4f5f515545525960881b81565b3360009081526001602081905260409091205414610a825760405162461bcd60e51b81526004016103ad90612b83565b610a8b81610366565b610aa75760405162461bcd60e51b81526004016103ad90612ac9565b6000818152600360205260409081902060058101805463ff0000001916630100000017905590517f6ded7250a9d5f79aef5add44600fc20a74a0af6f4730baa4fc4ab87bf484b81290610afb90849061278c565b60405180910390a15050565b6002546001600160a01b031681565b600360208190526000918252604090912080546001820154600283015493830154600484015460058501546006860180549597949694959394929360ff80841694610100850482169462010000810483169463010000008204909316936401000000009091046001600160a01b03169290610b90906133a4565b80601f0160208091040260200160405190810160405280929190818152602001828054610bbc906133a4565b8015610c095780601f10610bde57610100808354040283529160200191610c09565b820191906000526020600020905b815481529060010190602001808311610bec57829003601f168201915b505050505090508b565b610c1c8161140e565b610c385760405162461bcd60e51b81526004016103ad90612eff565b600081815260036020526040902060058101546301000000900460ff1615610c725760405162461bcd60e51b81526004016103ad90612d8b565b600581015460ff168015610c8a575060008160040154115b15610c9f57610c9982826118a5565b50610cab565b610ca98282611a52565b505b50565b3360009081526001602081905260409091205414610cde5760405162461bcd60e51b81526004016103ad90612b83565b6001600160a01b038116600081815260016020526040808220829055517f75f7d814a7e98645388e45a05bafaf87a30979dbebd30db64acf618a8de3b10a9190a250565b3360009081526001602081905260409091205414610d525760405162461bcd60e51b81526004016103ad90612b83565b610d5b87610366565b610d775760405162461bcd60e51b81526004016103ad90613073565b60008511610d975760405162461bcd60e51b81526004016103ad90613247565b610da084611c0d565b610dbc5760405162461bcd60e51b81526004016103ad90612c9a565b6000878152600360208190526040909120015415610dec5760405162461bcd60e51b81526004016103ad90613016565b60405180610160016040528086815260200184815260200183815260200160008152602001600081526020018215158152602001600015158152602001600015158152602001600015158152602001856001600160a01b031681526020018781525060036000898152602001908152602001600020600082015181600001556020820151816001015560408201518160020155606082015181600301556080820151816004015560a08201518160050160006101000a81548160ff02191690831515021790555060c08201518160050160016101000a81548160ff02191690831515021790555060e08201518160050160026101000a81548160ff0219169083151502179055506101008201518160050160036101000a81548160ff0219169083151502179055506101208201518160050160046101000a8154816001600160a01b0302191690836001600160a01b03160217905550610140820151816006019080519060200190610f5f929190612229565b50905050867f32da4770ea275a14ae9d822d58709fe7bfb296969d46357149ed02fb4135a17b878787878787604051610f9d969594939291906128e5565b60405180910390a250505050505050565b3360009081526001602081905260409091205414610fde5760405162461bcd60e51b81526004016103ad90612b83565b610fe783610366565b6110035760405162461bcd60e51b81526004016103ad90612d2e565b600083815260036020526040902054611020906202a30090613350565b421161103e5760405162461bcd60e51b81526004016103ad90612ea2565b6002811461105e5760405162461bcd60e51b81526004016103ad90612de8565b6000838152600360205260409081902060058101805462ff00001916620100001790559051633124a62b60e21b81526001600160a01b037f0000000000000000000000000000000000000000000000000000000000000000169063c49298ac906110d090879087908790600401612795565b600060405180830381600087803b1580156110ea57600080fd5b505af11580156110fe573d6000803e3d6000fd5b5050604051600192508691507f5c3937ed929cd157b73b417381d743daf6e1ef65999e3ccb5dd64bc3247e28d690600090a350505050565b33600090815260016020819052604090912054146111665760405162461bcd60e51b81526004016103ad90612b83565b61116f81610366565b61118b5760405162461bcd60e51b81526004016103ad90612cd1565b6000818152600360205260409081902060058101805463ff0000001916905590517f92d28918c5574e7fc0f4f948c39502682c81cfb4089b07b83f95b3264e5e5e0690610afb90849061278c565b60016020526000908152604090205481565b6202a30081565b6111fb87610366565b156112185760405162461bcd60e51b81526004016103ad9061312d565b600085116112385760405162461bcd60e51b81526004016103ad90612a43565b61124184611c0d565b61125d5760405162461bcd60e51b81526004016103ad90612c9a565b60405180610160016040528086815260200184815260200183815260200160008152602001600081526020018215158152602001600015158152602001600015158152602001600015158152602001856001600160a01b031681526020018781525060036000898152602001908152602001600020600082015181600001556020820151816001015560408201518160020155606082015181600301556080820151816004015560a08201518160050160006101000a81548160ff02191690831515021790555060c08201518160050160016101000a81548160ff02191690831515021790555060e08201518160050160026101000a81548160ff0219169083151502179055506101008201518160050160036101000a81548160ff0219169083151502179055506101208201518160050160046101000a8154816001600160a01b0302191690836001600160a01b031602179055506101408201518160060190805190602001906113d0929190612229565b50905050867f53af6c2e40505bb55a47d917203a12c8f063b6c505c11094d98ac8f772e8a031878787878787604051610f9d969594939291906128e5565b600061141982610366565b61142557506000610378565b60008281526003602052604090206005810154610100900460ff1661144e576000915050610378565b600581015462010000900460ff16151560011415611470576000915050610378565b600381015415611484576000915050610378565b600061148e611c98565b9050806001600160a01b031663bc58ccaa306e5945535f4f525f4e4f5f515545525960881b6114bc86611ca7565b866006016040518563ffffffff1660e01b81526004016114df949392919061271d565b60206040518083038186803b1580156114f757600080fd5b505afa15801561150b573d6000803e3d6000fd5b505050506040513d601f19601f820116820180604052508101906108d5919061232d565b6000611539611c98565b6001600160a01b031663a9904f9b306e5945535f4f525f4e4f5f515545525960881b61156486611ca7565b866006016040518563ffffffff1660e01b8152600401611587949392919061271d565b6101806040518083038186803b1580156115a057600080fd5b505afa1580156115b4573d6000803e3d6000fd5b505050506040513d601f19601f820116820180604052508101906115d891906124c7565b60c0015192915050565b60004290506116b3336e5945535f4f525f4e4f5f515545525960881b8385600601805461160e906133a4565b80601f016020809104026020016040519081016040528092919081815260200182805461163a906133a4565b80156116875780601f1061165c57610100808354040283529160200191611687565b820191906000526020600020905b81548152906001019060200180831161166a57829003601f168201915b50505050508660050160049054906101000a90046001600160a01b031687600101548860020154611cd7565b6004820181905560058201805461ff001916610100179081905560018084015460028501546040518794869433947f6010c5373137e7c7c584b6bf87be56bf4a685890351251ac0a8d74e5994559299461173a946e5945535f4f525f4e4f5f515545525960881b9460068d01946401000000009091046001600160a01b0316939291612808565b60405180910390a4505050565b611817336e5945535f4f525f4e4f5f515545525960881b8360000154846006018054611772906133a4565b80601f016020809104026020016040519081016040528092919081815260200182805461179e906133a4565b80156117eb5780601f106117c0576101008083540402835291602001916117eb565b820191906000526020600020905b8154815290600101906020018083116117ce57829003601f168201915b50505050508560050160049054906101000a90046001600160a01b031686600101548760020154611cd7565b60058101805461ff0019166101001790819055815460018301546002840154604051869433937f6010c5373137e7c7c584b6bf87be56bf4a685890351251ac0a8d74e59945592993611899936e5945535f4f525f4e4f5f515545525960881b9360068b01936401000000009091046001600160a01b0316929091600090612808565b60405180910390a45050565b60006118af611c98565b90506000816001600160a01b031663a9904f9b306e5945535f4f525f4e4f5f515545525960881b8660040154876006016040518563ffffffff1660e01b81526004016118fe949392919061271d565b6101806040518083038186803b15801561191757600080fd5b505afa15801561192b573d6000803e3d6000fd5b505050506040513d601f19601f8201168201806040525081019061194f91906124c7565b60a00151905061195d6104eb565b8114156119755761196e8484611ef2565b5050610ca9565b4360038401556004808401546040516353b5923960e01b81526000926001600160a01b038616926353b59239926119c6926e5945535f4f525f4e4f5f515545525960881b929160068b0191016128bd565b602060405180830381600087803b1580156119e057600080fd5b505af11580156119f4573d6000803e3d6000fd5b505050506040513d601f19601f82011682018060405250810190611a1891906124af565b604051909150600190829087907fa6da625874a330dac87557bbedb7b127cb0a1877a8a3e62d97dc00f8b57622bb90600090a45050505050565b6000611a5c611c98565b82546040517fa9904f9b0000000000000000000000000000000000000000000000000000000081529192506000916001600160a01b0384169163a9904f9b91611ac39130916e5945535f4f525f4e4f5f515545525960881b919060068a019060040161271d565b6101806040518083038186803b158015611adc57600080fd5b505afa158015611af0573d6000803e3d6000fd5b505050506040513d601f19601f82011682018060405250810190611b1491906124c7565b60a001519050611b226104eb565b811415611b335761196e8484611ef2565b43600384015582546040516353b5923960e01b81526000916001600160a01b038516916353b5923991611b82916e5945535f4f525f4e4f5f515545525960881b919060068a01906004016128bd565b602060405180830381600087803b158015611b9c57600080fd5b505af1158015611bb0573d6000803e3d6000fd5b505050506040513d601f19601f82011682018060405250810190611bd491906124af565b604051909150600090829087907fa6da625874a330dac87557bbedb7b127cb0a1877a8a3e62d97dc00f8b57622bb908490a45050505050565b6000611c17611f34565b6001600160a01b0316633a3ab672836040518263ffffffff1660e01b8152600401611c4291906126aa565b60206040518083038186803b158015611c5a57600080fd5b505afa158015611c6e573d6000803e3d6000fd5b505050506040513d601f19601f82011682018060405250810190611c92919061232d565b92915050565b6000611ca2611fb3565b905090565b600581015460009060ff168015611cc2575060008260040154115b15611cd257506004810154610378565b505490565b6000611ce1611c98565b90508215611da357611cf584893086611fe2565b6040517fdd62ed3e000000000000000000000000000000000000000000000000000000008152600019906001600160a01b0386169063dd62ed3e90611d4090309086906004016126be565b60206040518083038186803b158015611d5857600080fd5b505afa158015611d6c573d6000803e3d6000fd5b505050506040513d601f19601f82011682018060405250810190611d9091906124af565b1015611da357611da38482600019612107565b6040517f11df92f10000000000000000000000000000000000000000000000000000000081526001600160a01b038216906311df92f190611df0908a908a908a908a908a90600401612851565b602060405180830381600087803b158015611e0a57600080fd5b505af1158015611e1e573d6000803e3d6000fd5b505050506040513d601f19601f82011682018060405250810190611e4291906124af565b508115611ee8576040517fad5a755a0000000000000000000000000000000000000000000000000000000081526001600160a01b0382169063ad5a755a90611e94908a908a908a90889060040161288d565b602060405180830381600087803b158015611eae57600080fd5b505af1158015611ec2573d6000803e3d6000fd5b505050506040513d601f19601f82011682018060405250810190611ee691906124af565b505b5050505050505050565b60006004820181905560058201805461ff001916905560405183917f7981b5832932948db4e32a4a16a0f44b2ce7ff088574afb9364b313f70f82e8f91a25050565b6002546040516302abf57960e61b81526000916001600160a01b03169063aafd5e4090611f639060040161318a565b60206040518083038186803b158015611f7b57600080fd5b505afa158015611f8f573d6000803e3d6000fd5b505050506040513d601f19601f82011682018060405250810190611ca29190612311565b6002546040516302abf57960e61b81526000916001600160a01b03169063aafd5e4090611f6390600401612aa0565b600080856001600160a01b03166323b872dd60e01b86868660405160240161200c939291906126d8565b60408051601f198184030181529181526020820180517bffffffffffffffffffffffffffffffffffffffffffffffffffffffff167fffffffff00000000000000000000000000000000000000000000000000000000909416939093179092529051612077919061268e565b6000604051808303816000865af19150503d80600081146120b4576040519150601f19603f3d011682016040523d82523d6000602084013e6120b9565b606091505b50915091508180156120e35750805115806120e35750808060200190518101906120e3919061232d565b6120ff5760405162461bcd60e51b81526004016103ad90612fdf565b505050505050565b600080846001600160a01b031663095ea7b360e01b858560405160240161212f929190612755565b60408051601f198184030181529181526020820180517bffffffffffffffffffffffffffffffffffffffffffffffffffffffff167fffffffff0000000000000000000000000000000000000000000000000000000090941693909317909252905161219a919061268e565b6000604051808303816000865af19150503d80600081146121d7576040519150601f19603f3d011682016040523d82523d6000602084013e6121dc565b606091505b5091509150818015612206575080511580612206575080806020019051810190612206919061232d565b6122225760405162461bcd60e51b81526004016103ad90612a0c565b5050505050565b828054612235906133a4565b90600052602060002090601f016020900481019282612257576000855561229d565b82601f1061227057805160ff191683800117855561229d565b8280016001018555821561229d579182015b8281111561229d578251825591602001919060010190612282565b506122a99291506122ad565b5090565b5b808211156122a957600081556001016122ae565b8035610378816133f5565b8051610378816133f5565b80356103788161340a565b80516103788161340a565b6000602082840312156122ff578081fd5b813561230a816133f5565b9392505050565b600060208284031215612322578081fd5b815161230a816133f5565b60006020828403121561233e578081fd5b815161230a8161340a565b60006020828403121561235a578081fd5b5035919050565b600080600060408486031215612375578182fd5b83359250602084013567ffffffffffffffff80821115612393578384fd5b818601915086601f8301126123a6578384fd5b8135818111156123b4578485fd5b87602080830285010111156123c7578485fd5b6020830194508093505050509250925092565b600080600080600080600060e0888a0312156123f4578283fd5b8735965060208089013567ffffffffffffffff80821115612413578586fd5b818b0191508b601f830112612426578586fd5b813581811115612438576124386133df565b61244a601f8201601f1916850161331a565b91508082528c8482850101111561245f578687fd5b8084840185840137810190920185905250955060408801359450612485606089016122c2565b93506080880135925060a088013591506124a160c089016122d8565b905092959891949750929550565b6000602082840312156124c0578081fd5b5051919050565b60006101808083850312156124da578182fd5b6124e38161331a565b90506124ee836122cd565b81526124fc602084016122cd565b602082015261250d604084016122cd565b604082015261251e606084016122e3565b606082015261252f608084016122e3565b608082015260a0838101519082015260c0808401519082015260e08084015190820152610100808401519082015261012080840151908201526101408084015190820152610160928301519281019290925250919050565b6000815180845260208085019450808401835b838110156125b65781518752958201959082019060010161259a565b509495945050505050565b600081518084526125d9816020860160208601613374565b601f01601f19169290920160200192915050565b80546000906002810460018083168061260757607f831692505b602080841082141561262757634e487b7160e01b86526022600452602486fd5b612631848961278c565b828015612645576001811461265657612681565b60ff19871682528282019750612681565b61265f89613344565b60005b8781101561267b57815484820152908601908401612662565b83019850505b5050505050505092915050565b600082516126a0818460208701613374565b9190910192915050565b6001600160a01b0391909116815260200190565b6001600160a01b0392831681529116602082015260400190565b6001600160a01b039384168152919092166020820152604081019190915260600190565b6001600160a01b039390931683526020830191909152604082015260600190565b60006001600160a01b03861682528460208301528360408301526080606083015261274b60808301846125ed565b9695505050505050565b6001600160a01b03929092168252602082015260400190565b60006020825261230a6020830184612587565b901515815260200190565b90815260200190565b6000848252604060208301528260408301527f07ffffffffffffffffffffffffffffffffffffffffffffffffffffffffffffff8311156127d3578081fd5b6020830280856060850137919091016060019081529392505050565b6000838252604060208301526108d56040830184612587565b600087825260c0602083015261282160c08301886125ed565b90506001600160a01b038616604083015284606083015283608083015282151560a0830152979650505050505050565b600086825285602083015260a0604083015261287060a08301866125c1565b6001600160a01b0394909416606083015250608001529392505050565b6000858252846020830152608060408301526128ac60808301856125c1565b905082606083015295945050505050565b6000848252836020830152606060408301526128dc60608301846125ed565b95945050505050565b600060c082526128f860c08301896125c1565b6020830197909752506001600160a01b0394909416604085015260608401929092526080830152151560a090910152919050565b60208082526042908201527f416461707465723a3a67657445787065637465645061796f7574733a2072657360408201527f6f6c7574696f6e4461746120686173206e6f74206265656e207265717565737460608201527f6564000000000000000000000000000000000000000000000000000000000000608082015260a00190565b6020808252602f908201527f416461707465723a3a7265706f72745061796f7574733a20496e76616c69642060408201527f7265736f6c7574696f6e20646174610000000000000000000000000000000000606082015260800190565b60208082526002908201527f5341000000000000000000000000000000000000000000000000000000000000604082015260600190565b6020808252603c908201527f416461707465723a3a696e697469616c697a655175657374696f6e3a2072657360408201527f6f6c7574696f6e54696d65206d75737420626520706f73697469766500000000606082015260800190565b7f4f7074696d69737469634f7261636c6500000000000000000000000000000000815260200190565b60208082526035908201527f416461707465723a3a70617573655175657374696f6e3a207175657374696f6e60408201527f4944206973206e6f7420696e697469616c697a65640000000000000000000000606082015260800190565b6020808252602f908201527f416461707465723a3a67657445787065637465645061796f7574733a2051756560408201527f7374696f6e206973207061757365640000000000000000000000000000000000606082015260800190565b60208082526016908201527f416461707465722f6e6f742d617574686f72697a656400000000000000000000604082015260600190565b60208082526041908201527f416461707465723a3a726571756573745265736f6c7574696f6e446174613a2060408201527f5175657374696f6e206e6f7420726561647920746f206265207265736f6c766560608201527f6400000000000000000000000000000000000000000000000000000000000000608082015260a00190565b60208082526036908201527f416461707465723a3a67657445787065637465645061796f7574733a2071756560408201527f7374696f6e4944206973206e6f7420736574746c656400000000000000000000606082015260800190565b6020808252601d908201527f416461707465723a3a756e737570706f727465642063757272656e6379000000604082015260600190565b60208082526037908201527f416461707465723a3a756e50617573655175657374696f6e3a2071756573746960408201527f6f6e4944206973206e6f7420696e697469616c697a6564000000000000000000606082015260800190565b6020808252603e908201527f416461707465723a3a656d657267656e63795265706f72745061796f7574733a60408201527f207175657374696f6e4944206973206e6f7420696e697469616c697a65640000606082015260800190565b60208082526023908201527f416461707465723a3a736574746c653a205175657374696f6e2069732070617560408201527f7365640000000000000000000000000000000000000000000000000000000000606082015260800190565b60208082526037908201527f416461707465723a3a656d657267656e63795265706f72745061796f7574733a60408201527f207061796f757473206d7573742062652062696e617279000000000000000000606082015260800190565b6020808252603a908201527f416461707465723a3a67657445787065637465645061796f7574733a2071756560408201527f7374696f6e4944206973206e6f7420696e697469616c697a6564000000000000606082015260800190565b6020808252603d908201527f416461707465723a3a656d657267656e63795265706f72745061796f7574733a60408201527f2073616665747920706572696f6420686173206e6f7420706173736564000000606082015260800190565b60208082526036908201527f416461707465723a3a736574746c653a207175657374696f6e4944206973206e60408201527f6f7420726561647920746f20626520736574746c656400000000000000000000606082015260800190565b60208082526050908201527f416461707465723a3a7265706f72745061796f7574733a20417474656d70746960408201527f6e6720746f20736574746c6520616e64207265706f72745061796f757473206960608201527f6e207468652073616d6520626c6f636b00000000000000000000000000000000608082015260a00190565b60208082526003908201527f5354460000000000000000000000000000000000000000000000000000000000604082015260600190565b60208082526034908201527f416461707465723a3a7570646174655175657374696f6e3a205175657374696f60408201527f6e20697320616c726561647920736574746c6564000000000000000000000000606082015260800190565b60208082526031908201527f416461707465723a3a7570646174655175657374696f6e3a205175657374696f60408201527f6e206e6f7420696e697469616c697a6564000000000000000000000000000000606082015260800190565b6020808252603b908201527f416461707465723a3a67657445787065637465645061796f7574733a2071756560408201527f7374696f6e494420697320616c7265616479207265736f6c7665640000000000606082015260800190565b60208082526039908201527f416461707465723a3a696e697469616c697a655175657374696f6e3a2051756560408201527f7374696f6e20616c726561647920696e697469616c697a656400000000000000606082015260800190565b7f436f6c6c61746572616c57686974656c69737400000000000000000000000000815260200190565b6020808252601f908201527f5265656e7472616e637947756172643a207265656e7472616e742063616c6c00604082015260600190565b60208082526032908201527f416461707465723a3a726571756573745265736f6c7574696f6e446174613a2060408201527f5175657374696f6e206973207061757365640000000000000000000000000000606082015260800190565b60208082526038908201527f416461707465723a3a7570646174655175657374696f6e3a207265736f6c757460408201527f696f6e54696d65206d75737420626520706f7369746976650000000000000000606082015260800190565b60006101608d83528c60208401528b60408401528a606084015289608084015288151560a084015287151560c084015286151560e08401528515156101008401526001600160a01b03851661012084015280610140840152613308818401856125c1565b9e9d5050505050505050505050505050565b60405181810167ffffffffffffffff8111828210171561333c5761333c6133df565b604052919050565b60009081526020902090565b6000821982111561336f57634e487b7160e01b81526011600452602481fd5b500190565b60005b8381101561338f578181015183820152602001613377565b8381111561339e576000848401525b50505050565b6002810460018216806133b857607f821691505b602082108114156133d957634e487b7160e01b600052602260045260246000fd5b50919050565b634e487b7160e01b600052604160045260246000fd5b6001600160a01b0381168114610cab57600080fd5b8015158114610cab57600080fdfea264697066735822122021f9dd4d73699181aa670dda411e50cbc0d41cd40ea9410c82589ac6bb41a5cf64736f6c63430008000033",
  "devdoc": {
    "kind": "dev",
    "methods": {
      "emergencyReportPayouts(bytes32,uint256[])": {
        "params": {
          "questionID": "- The unique questionID of the question"
        }
      },
      "getExpectedPayouts(bytes32)": {
        "params": {
          "questionID": "- The unique questionID of the question"
        }
      },
      "initializeQuestion(bytes32,bytes,uint256,address,uint256,uint256,bool)": {
        "params": {
          "ancillaryData": "- Data used to resolve a question",
          "earlyResolutionEnabled": "- Determines whether a question can be resolved early",
          "proposalBond": "- Bond required to be posted by a price proposer and disputer",
          "questionID": "- The unique questionID of the question",
          "resolutionTime": "- Timestamp after which the Adapter can resolve a question",
          "reward": "- Reward offered to a successful proposer",
          "rewardToken": "- ERC20 token address used for payment of rewards and fees"
        }
      },
      "isQuestionInitialized(bytes32)": {
        "params": {
          "questionID": "- The unique questionID"
        }
      },
      "pauseQuestion(bytes32)": {
        "params": {
          "questionID": "- The unique questionID of the question"
        }
      },
      "prepareAndInitialize(bytes32,bytes,uint256,address,uint256,uint256,bool)": {
        "details": "Prepares the condition using the Adapter as the oracle and a fixed outcomeSlotCount",
        "params": {
          "ancillaryData": "- Data used to resolve a question",
          "earlyResolutionEnabled": "- Determines whether a question can be resolved early",
          "proposalBond": "- Bond required to be posted by a price proposer and disputer",
          "questionID": "- The unique questionID of the question",
          "resolutionTime": "- Timestamp after which the Adapter can resolve a question",
          "reward": "- Reward offered to a successful proposer",
          "rewardToken": "- ERC20 token address used for payment of rewards and fees"
        }
      },
      "readyToRequestResolution(bytes32)": {
        "params": {
          "questionID": "- The unique questionID of the question"
        }
      },
      "readyToSettle(bytes32)": {
        "params": {
          "questionID": "- The unique questionID of the question"
        }
      },
      "reportPayouts(bytes32)": {
        "params": {
          "questionID": "- The unique questionID of the question"
        }
      },
      "requestResolutionData(bytes32)": {
        "params": {
          "questionID": "- The unique questionID of the question"
        }
      },
      "setFinderAddress(address)": {
        "params": {
          "newFinderAddress": "- The new finder address"
        }
      },
      "settle(bytes32)": {
        "params": {
          "questionID": "- The unique questionID of the question"
        }
      },
      "unPauseQuestion(bytes32)": {
        "params": {
          "questionID": "- The unique questionID of the question"
        }
      },
      "updateQuestion(bytes32,bytes,uint256,address,uint256,uint256,bool)": {
        "params": {
          "ancillaryData": "- Data used to resolve a question",
          "earlyResolutionEnabled": "- Determines whether a question can be resolved early",
          "proposalBond": "- Bond required to be posted by a price proposer and disputer",
          "questionID": "- The unique questionID of the question",
          "resolutionTime": "- Timestamp after which the Adapter can resolve a question",
          "reward": "- Reward offered to a successful proposer",
          "rewardToken": "- ERC20 token address used for payment of rewards and fees"
        }
      }
    },
    "title": "UmaConditionalTokensBinaryAdapter",
    "version": 1
  },
  "userdoc": {
    "events": {
      "NewFinderAddress(address,address)": {
        "notice": "Emitted when the UMA Finder is changed"
      },
      "QuestionInitialized(bytes32,bytes,uint256,address,uint256,uint256,bool)": {
        "notice": "Emitted when a questionID is initialized"
      },
      "QuestionPaused(bytes32)": {
        "notice": "Emitted when a question is paused by an authorized user"
      },
      "QuestionReset(bytes32)": {
        "notice": "Emitted when a question is reset"
      },
      "QuestionResolved(bytes32,bool)": {
        "notice": "Emitted when a question is resolved"
      },
      "QuestionSettled(bytes32,int256,bool)": {
        "notice": "Emitted when a question is settled"
      },
      "QuestionUnpaused(bytes32)": {
        "notice": "Emitted when a question is unpaused by an authorized user"
      },
      "QuestionUpdated(bytes32,bytes,uint256,address,uint256,uint256,bool)": {
        "notice": "Emitted when a questionID is updated"
      },
      "ResolutionDataRequested(address,uint256,bytes32,bytes32,bytes,address,uint256,uint256,bool)": {
        "notice": "Emitted when resolution data is requested from the Optimistic Oracle"
      }
    },
    "kind": "user",
    "methods": {
      "conditionalTokenContract()": {
        "notice": "Conditional Tokens"
      },
      "deny(address)": {
        "notice": "Deauthorizes a user"
      },
      "emergencyReportPayouts(bytes32,uint256[])": {
        "notice": "Allows an authorized user to report payouts in an emergency"
      },
      "emergencySafetyPeriod()": {
        "notice": "Time period after which an authorized user can emergency resolve a condition"
      },
      "getExpectedPayouts(bytes32)": {
        "notice": "Retrieves the expected payout of a settled question"
      },
      "identifier()": {
        "notice": "Unique query identifier for the Optimistic Oracle"
      },
      "ignorePrice()": {
        "notice": "Price that indicates that the OO does not have a valid price yet"
      },
      "initializeQuestion(bytes32,bytes,uint256,address,uint256,uint256,bool)": {
        "notice": "Initializes a question on the Adapter to report on"
      },
      "isQuestionInitialized(bytes32)": {
        "notice": "Utility function that verifies if a question is initialized"
      },
      "pauseQuestion(bytes32)": {
        "notice": "Allows an authorized user to pause market resolution in an emergency"
      },
      "prepareAndInitialize(bytes32,bytes,uint256,address,uint256,uint256,bool)": {
        "notice": "Utility function that atomically prepares a question on the Conditional Tokens contract         and initializes it on the Adapter"
      },
      "questions(bytes32)": {
        "notice": "Mapping of questionID to QuestionData"
      },
      "readyToRequestResolution(bytes32)": {
        "notice": "Checks whether or not a question can start the resolution process"
      },
      "readyToSettle(bytes32)": {
        "notice": "Checks whether a questionID is ready to be settled"
      },
      "rely(address)": {
        "notice": "Authorizes a user"
      },
      "reportPayouts(bytes32)": {
        "notice": "Resolves a question"
      },
      "requestResolutionData(bytes32)": {
        "notice": "Request resolution data from the Optimistic Oracle"
      },
      "setFinderAddress(address)": {
        "notice": "Allows an authorized user to update the UMA Finder address"
      },
      "settle(bytes32)": {
        "notice": "Settle/finalize the resolution data of a questionIf the OO returns the ignore price, this method resets the question, allowing new price requests"
      },
      "umaFinder()": {
        "notice": "UMA Finder address"
      },
      "unPauseQuestion(bytes32)": {
        "notice": "Allows an authorized user to unpause market resolution in an emergency"
      },
      "updateQuestion(bytes32,bytes,uint256,address,uint256,uint256,bool)": {
        "notice": "Allows an authorized user to update a question"
      },
      "wards(address)": {
        "notice": "Auth"
      }
    },
    "notice": "Enables Conditional Token resolution via UMA's Optimistic Oracle",
    "version": 1
  },
  "storageLayout": {
    "storage": [
      {
        "astId": 10,
        "contract": "contracts/UmaConditionalTokensBinaryAdapter.sol:UmaConditionalTokensBinaryAdapter",
        "label": "_status",
        "offset": 0,
        "slot": "0",
        "type": "t_uint256"
      },
      {
        "astId": 1046,
        "contract": "contracts/UmaConditionalTokensBinaryAdapter.sol:UmaConditionalTokensBinaryAdapter",
        "label": "wards",
        "offset": 0,
        "slot": "1",
        "type": "t_mapping(t_address,t_uint256)"
      },
      {
        "astId": 1114,
        "contract": "contracts/UmaConditionalTokensBinaryAdapter.sol:UmaConditionalTokensBinaryAdapter",
        "label": "umaFinder",
        "offset": 0,
        "slot": "2",
        "type": "t_address"
      },
      {
        "astId": 1151,
        "contract": "contracts/UmaConditionalTokensBinaryAdapter.sol:UmaConditionalTokensBinaryAdapter",
        "label": "questions",
        "offset": 0,
        "slot": "3",
        "type": "t_mapping(t_bytes32,t_struct(QuestionData)1145_storage)"
      }
    ],
    "types": {
      "t_address": {
        "encoding": "inplace",
        "label": "address",
        "numberOfBytes": "20"
      },
      "t_bool": {
        "encoding": "inplace",
        "label": "bool",
        "numberOfBytes": "1"
      },
      "t_bytes32": {
        "encoding": "inplace",
        "label": "bytes32",
        "numberOfBytes": "32"
      },
      "t_bytes_storage": {
        "encoding": "bytes",
        "label": "bytes",
        "numberOfBytes": "32"
      },
      "t_mapping(t_address,t_uint256)": {
        "encoding": "mapping",
        "key": "t_address",
        "label": "mapping(address => uint256)",
        "numberOfBytes": "32",
        "value": "t_uint256"
      },
      "t_mapping(t_bytes32,t_struct(QuestionData)1145_storage)": {
        "encoding": "mapping",
        "key": "t_bytes32",
        "label": "mapping(bytes32 => struct UmaConditionalTokensBinaryAdapter.QuestionData)",
        "numberOfBytes": "32",
        "value": "t_struct(QuestionData)1145_storage"
      },
      "t_struct(QuestionData)1145_storage": {
        "encoding": "inplace",
        "label": "struct UmaConditionalTokensBinaryAdapter.QuestionData",
        "members": [
          {
            "astId": 1124,
            "contract": "contracts/UmaConditionalTokensBinaryAdapter.sol:UmaConditionalTokensBinaryAdapter",
            "label": "resolutionTime",
            "offset": 0,
            "slot": "0",
            "type": "t_uint256"
          },
          {
            "astId": 1126,
            "contract": "contracts/UmaConditionalTokensBinaryAdapter.sol:UmaConditionalTokensBinaryAdapter",
            "label": "reward",
            "offset": 0,
            "slot": "1",
            "type": "t_uint256"
          },
          {
            "astId": 1128,
            "contract": "contracts/UmaConditionalTokensBinaryAdapter.sol:UmaConditionalTokensBinaryAdapter",
            "label": "proposalBond",
            "offset": 0,
            "slot": "2",
            "type": "t_uint256"
          },
          {
            "astId": 1130,
            "contract": "contracts/UmaConditionalTokensBinaryAdapter.sol:UmaConditionalTokensBinaryAdapter",
            "label": "settled",
            "offset": 0,
            "slot": "3",
            "type": "t_uint256"
          },
          {
            "astId": 1132,
            "contract": "contracts/UmaConditionalTokensBinaryAdapter.sol:UmaConditionalTokensBinaryAdapter",
            "label": "earlyResolutionTimestamp",
            "offset": 0,
            "slot": "4",
            "type": "t_uint256"
          },
          {
            "astId": 1134,
            "contract": "contracts/UmaConditionalTokensBinaryAdapter.sol:UmaConditionalTokensBinaryAdapter",
            "label": "earlyResolutionEnabled",
            "offset": 0,
            "slot": "5",
            "type": "t_bool"
          },
          {
            "astId": 1136,
            "contract": "contracts/UmaConditionalTokensBinaryAdapter.sol:UmaConditionalTokensBinaryAdapter",
            "label": "resolutionDataRequested",
            "offset": 1,
            "slot": "5",
            "type": "t_bool"
          },
          {
            "astId": 1138,
            "contract": "contracts/UmaConditionalTokensBinaryAdapter.sol:UmaConditionalTokensBinaryAdapter",
            "label": "resolved",
            "offset": 2,
            "slot": "5",
            "type": "t_bool"
          },
          {
            "astId": 1140,
            "contract": "contracts/UmaConditionalTokensBinaryAdapter.sol:UmaConditionalTokensBinaryAdapter",
            "label": "paused",
            "offset": 3,
            "slot": "5",
            "type": "t_bool"
          },
          {
            "astId": 1142,
            "contract": "contracts/UmaConditionalTokensBinaryAdapter.sol:UmaConditionalTokensBinaryAdapter",
            "label": "rewardToken",
            "offset": 4,
            "slot": "5",
            "type": "t_address"
          },
          {
            "astId": 1144,
            "contract": "contracts/UmaConditionalTokensBinaryAdapter.sol:UmaConditionalTokensBinaryAdapter",
            "label": "ancillaryData",
            "offset": 0,
            "slot": "6",
            "type": "t_bytes_storage"
          }
        ],
        "numberOfBytes": "224"
      },
      "t_uint256": {
        "encoding": "inplace",
        "label": "uint256",
        "numberOfBytes": "32"
      }
    }
  }
}