{
  "address": "0x5efD28C1528818250090C54e26b0755cFBceF3b7",
  "abi": [
    {
      "inputs": [
        {
          "internalType": "address",
          "name": "conditionalTokenAddress",
          "type": "address"
        },
        {
          "internalType": "address",
          "name": "optimisticOracleAddress",
          "type": "address"
        }
      ],
      "stateMutability": "nonpayable",
      "type": "constructor"
    },
    {
      "anonymous": false,
      "inputs": [
        {
          "indexed": true,
          "internalType": "bytes32",
          "name": "questionID",
          "type": "bytes32"
        },
        {
          "indexed": false,
          "internalType": "bytes",
          "name": "question",
          "type": "bytes"
        },
        {
          "indexed": false,
          "internalType": "uint256",
          "name": "resolutionTime",
          "type": "uint256"
        },
        {
          "indexed": false,
          "internalType": "address",
          "name": "rewardToken",
          "type": "address"
        },
        {
          "indexed": false,
          "internalType": "uint256",
          "name": "reward",
          "type": "uint256"
        }
      ],
      "name": "QuestionInitialized",
      "type": "event"
    },
    {
      "anonymous": false,
      "inputs": [
        {
          "indexed": true,
          "internalType": "bytes32",
          "name": "questionId",
          "type": "bytes32"
        },
        {
          "indexed": true,
          "internalType": "bool",
          "name": "emergencyReport",
          "type": "bool"
        }
      ],
      "name": "QuestionResolved",
      "type": "event"
    },
    {
      "anonymous": false,
      "inputs": [
        {
          "indexed": true,
          "internalType": "bytes32",
          "name": "identifier",
          "type": "bytes32"
        },
        {
          "indexed": true,
          "internalType": "uint256",
          "name": "timestamp",
          "type": "uint256"
        },
        {
          "indexed": true,
          "internalType": "bytes32",
          "name": "questionID",
          "type": "bytes32"
        },
        {
          "indexed": false,
          "internalType": "bytes",
          "name": "ancillaryData",
          "type": "bytes"
        }
      ],
      "name": "ResolutionDataRequested",
      "type": "event"
    },
    {
      "anonymous": false,
      "inputs": [
        {
          "indexed": true,
          "internalType": "bytes32",
          "name": "role",
          "type": "bytes32"
        },
        {
          "indexed": true,
          "internalType": "bytes32",
          "name": "previousAdminRole",
          "type": "bytes32"
        },
        {
          "indexed": true,
          "internalType": "bytes32",
          "name": "newAdminRole",
          "type": "bytes32"
        }
      ],
      "name": "RoleAdminChanged",
      "type": "event"
    },
    {
      "anonymous": false,
      "inputs": [
        {
          "indexed": true,
          "internalType": "bytes32",
          "name": "role",
          "type": "bytes32"
        },
        {
          "indexed": true,
          "internalType": "address",
          "name": "account",
          "type": "address"
        },
        {
          "indexed": true,
          "internalType": "address",
          "name": "sender",
          "type": "address"
        }
      ],
      "name": "RoleGranted",
      "type": "event"
    },
    {
      "anonymous": false,
      "inputs": [
        {
          "indexed": true,
          "internalType": "bytes32",
          "name": "role",
          "type": "bytes32"
        },
        {
          "indexed": true,
          "internalType": "address",
          "name": "account",
          "type": "address"
        },
        {
          "indexed": true,
          "internalType": "address",
          "name": "sender",
          "type": "address"
        }
      ],
      "name": "RoleRevoked",
      "type": "event"
    },
    {
      "inputs": [],
      "name": "DEFAULT_ADMIN_ROLE",
      "outputs": [
        {
          "internalType": "bytes32",
          "name": "",
          "type": "bytes32"
        }
      ],
      "stateMutability": "view",
      "type": "function"
    },
    {
      "inputs": [],
      "name": "conditionalTokenContract",
      "outputs": [
        {
          "internalType": "contract IConditionalTokens",
          "name": "",
          "type": "address"
        }
      ],
      "stateMutability": "view",
      "type": "function"
    },
    {
      "inputs": [
        {
          "internalType": "bytes32",
          "name": "questionID",
          "type": "bytes32"
        },
        {
          "internalType": "uint256[]",
          "name": "payouts",
          "type": "uint256[]"
        }
      ],
      "name": "emergencyReportPayouts",
      "outputs": [],
      "stateMutability": "nonpayable",
      "type": "function"
    },
    {
      "inputs": [],
      "name": "emergencySafetyPeriod",
      "outputs": [
        {
          "internalType": "uint256",
          "name": "",
          "type": "uint256"
        }
      ],
      "stateMutability": "view",
      "type": "function"
    },
    {
      "inputs": [
        {
          "internalType": "bytes32",
          "name": "role",
          "type": "bytes32"
        }
      ],
      "name": "getRoleAdmin",
      "outputs": [
        {
          "internalType": "bytes32",
          "name": "",
          "type": "bytes32"
        }
      ],
      "stateMutability": "view",
      "type": "function"
    },
    {
      "inputs": [
        {
          "internalType": "bytes32",
          "name": "role",
          "type": "bytes32"
        },
        {
          "internalType": "uint256",
          "name": "index",
          "type": "uint256"
        }
      ],
      "name": "getRoleMember",
      "outputs": [
        {
          "internalType": "address",
          "name": "",
          "type": "address"
        }
      ],
      "stateMutability": "view",
      "type": "function"
    },
    {
      "inputs": [
        {
          "internalType": "bytes32",
          "name": "role",
          "type": "bytes32"
        }
      ],
      "name": "getRoleMemberCount",
      "outputs": [
        {
          "internalType": "uint256",
          "name": "",
          "type": "uint256"
        }
      ],
      "stateMutability": "view",
      "type": "function"
    },
    {
      "inputs": [
        {
          "internalType": "bytes32",
          "name": "role",
          "type": "bytes32"
        },
        {
          "internalType": "address",
          "name": "account",
          "type": "address"
        }
      ],
      "name": "grantRole",
      "outputs": [],
      "stateMutability": "nonpayable",
      "type": "function"
    },
    {
      "inputs": [
        {
          "internalType": "bytes32",
          "name": "role",
          "type": "bytes32"
        },
        {
          "internalType": "address",
          "name": "account",
          "type": "address"
        }
      ],
      "name": "hasRole",
      "outputs": [
        {
          "internalType": "bool",
          "name": "",
          "type": "bool"
        }
      ],
      "stateMutability": "view",
      "type": "function"
    },
    {
      "inputs": [],
      "name": "identifier",
      "outputs": [
        {
          "internalType": "bytes32",
          "name": "",
          "type": "bytes32"
        }
      ],
      "stateMutability": "view",
      "type": "function"
    },
    {
      "inputs": [
        {
          "internalType": "bytes32",
          "name": "questionID",
          "type": "bytes32"
        },
        {
          "internalType": "bytes",
          "name": "ancillaryData",
          "type": "bytes"
        },
        {
          "internalType": "uint256",
          "name": "resolutionTime",
          "type": "uint256"
        },
        {
          "internalType": "address",
          "name": "rewardToken",
          "type": "address"
        },
        {
          "internalType": "uint256",
          "name": "reward",
          "type": "uint256"
        }
      ],
      "name": "initializeQuestion",
      "outputs": [],
      "stateMutability": "nonpayable",
      "type": "function"
    },
    {
      "inputs": [],
      "name": "optimisticOracleContract",
      "outputs": [
        {
          "internalType": "contract IOptimisticOracle",
          "name": "",
          "type": "address"
        }
      ],
      "stateMutability": "view",
      "type": "function"
    },
    {
      "inputs": [
        {
          "internalType": "bytes32",
          "name": "",
          "type": "bytes32"
        }
      ],
      "name": "questions",
      "outputs": [
        {
          "internalType": "bytes32",
          "name": "questionID",
          "type": "bytes32"
        },
        {
          "internalType": "bytes",
          "name": "ancillaryData",
          "type": "bytes"
        },
        {
          "internalType": "uint256",
          "name": "resolutionTime",
          "type": "uint256"
        },
        {
          "internalType": "address",
          "name": "rewardToken",
          "type": "address"
        },
        {
          "internalType": "uint256",
          "name": "reward",
          "type": "uint256"
        },
        {
          "internalType": "bool",
          "name": "resolutionDataRequested",
          "type": "bool"
        },
        {
          "internalType": "bool",
          "name": "resolved",
          "type": "bool"
        }
      ],
      "stateMutability": "view",
      "type": "function"
    },
    {
      "inputs": [
        {
          "internalType": "bytes32",
          "name": "questionID",
          "type": "bytes32"
        }
      ],
      "name": "readyToReportPayouts",
      "outputs": [
        {
          "internalType": "bool",
          "name": "",
          "type": "bool"
        }
      ],
      "stateMutability": "view",
      "type": "function"
    },
    {
      "inputs": [
        {
          "internalType": "bytes32",
          "name": "questionID",
          "type": "bytes32"
        }
      ],
      "name": "readyToRequestResolution",
      "outputs": [
        {
          "internalType": "bool",
          "name": "",
          "type": "bool"
        }
      ],
      "stateMutability": "view",
      "type": "function"
    },
    {
      "inputs": [
        {
          "internalType": "bytes32",
          "name": "role",
          "type": "bytes32"
        },
        {
          "internalType": "address",
          "name": "account",
          "type": "address"
        }
      ],
      "name": "renounceRole",
      "outputs": [],
      "stateMutability": "nonpayable",
      "type": "function"
    },
    {
      "inputs": [
        {
          "internalType": "bytes32",
          "name": "questionID",
          "type": "bytes32"
        }
      ],
      "name": "reportPayouts",
      "outputs": [],
      "stateMutability": "nonpayable",
      "type": "function"
    },
    {
      "inputs": [
        {
          "internalType": "bytes32",
          "name": "questionID",
          "type": "bytes32"
        }
      ],
      "name": "requestResolutionData",
      "outputs": [],
      "stateMutability": "nonpayable",
      "type": "function"
    },
    {
      "inputs": [
        {
          "internalType": "bytes32",
          "name": "role",
          "type": "bytes32"
        },
        {
          "internalType": "address",
          "name": "account",
          "type": "address"
        }
      ],
      "name": "revokeRole",
      "outputs": [],
      "stateMutability": "nonpayable",
      "type": "function"
    }
  ],
  "transactionHash": "0x22eb03f9745589cd68f0b30f18e06cd0c333f12530aa805a57efd87dff7b9353",
  "args": [
    "0x4D97DCd97eC945f40cF65F87097ACe5EA0476045",
    "0xAaF3F29521877d7a28C21E379Bf7A5401883A6B2"
  ],
  "solcInputHash": "79adeae265f0a44024092feb5ff304d8",
  "bytecode": "0x60c06040523480156200001157600080fd5b5060405162001d7238038062001d72833981810160405260408110156200003757600080fd5b5080516020909101516001600160601b0319606083811b821660805282901b1660a052620000676000336200006f565b505062000183565b6200007b82826200007f565b5050565b600082815260208181526040909120620000a49183906200153d620000f8821b17901c565b156200007b57620000b462000118565b6001600160a01b0316816001600160a01b0316837f2f8788117e7eff1d82e926ec794901d17c78024a50270940304540a733656f0d60405160405180910390a45050565b60006200010f836001600160a01b0384166200011c565b90505b92915050565b3390565b60006200012a83836200016b565b620001625750815460018181018455600084815260208082209093018490558454848252828601909352604090209190915562000112565b50600062000112565b60009081526001919091016020526040902054151590565b60805160601c60a05160601c611bac620001c6600039806105a652806107e15280610b095280610c55525080610a3f5280610eab52806111ca5250611bac6000f3fe608060405234801561001057600080fd5b50600436106101515760003560e01c80637998a1c4116100cd578063a39cc29911610081578063c66d4c6c11610066578063c66d4c6c146104f6578063ca15c873146104fe578063d547741f1461051b57610151565b8063a39cc299146103be578063c33da5061461043557610151565b806391d14854116100b257806391d14854146102be57806395addb90146102ea578063a217fddf146103b657610151565b80637998a1c4146102935780639010d07c1461029b57610151565b80632baf63ea1161012457806336568abe1161010957806336568abe146102425780633cc792651461026e57806370b9e9041461028b57610151565b80632baf63ea146101f25780632f2ff15d1461021657610151565b806310e16b5a14610156578063248a9ca3146101875780632654320c146101b6578063275180c0146101d3575b600080fd5b6101736004803603602081101561016c57600080fd5b5035610547565b604080519115158252519081900360200190f35b6101a46004803603602081101561019d57600080fd5b50356106f9565b60408051918252519081900360200190f35b610173600480360360208110156101cc57600080fd5b503561070e565b6101f0600480360360208110156101e957600080fd5b5035610782565b005b6101fa610b07565b604080516001600160a01b039092168252519081900360200190f35b6101f06004803603604081101561022c57600080fd5b50803590602001356001600160a01b0316610b2b565b6101f06004803603604081101561025857600080fd5b50803590602001356001600160a01b0316610b97565b6101f06004803603602081101561028457600080fd5b5035610bf8565b6101fa610ea9565b6101a4610ecd565b6101fa600480360360408110156102b157600080fd5b5080359060200135610ee3565b610173600480360360408110156102d457600080fd5b50803590602001356001600160a01b0316610f04565b6103076004803603602081101561030057600080fd5b5035610f1c565b6040518088815260200180602001878152602001866001600160a01b0316815260200185815260200184151581526020018315158152602001828103825288818151815260200191508051906020019080838360005b8381101561037557818101518382015260200161035d565b50505050905090810190601f1680156103a25780820380516001836020036101000a031916815260200191505b509850505050505050505060405180910390f35b6101a4610ff1565b6101f0600480360360408110156103d457600080fd5b813591908101906040810160208201356401000000008111156103f657600080fd5b82018360208201111561040857600080fd5b8035906020019184602083028401116401000000008311171561042a57600080fd5b509092509050610ff6565b6101f0600480360360a081101561044b57600080fd5b8135919081019060408101602082013564010000000081111561046d57600080fd5b82018360208201111561047f57600080fd5b803590602001918460018302840111640100000000831117156104a157600080fd5b91908080601f0160208091040260200160405190810160405280939291908181526020018383808284376000920191909152509295505082359350505060208101356001600160a01b03169060400135611288565b6101a46114c6565b6101a46004803603602081101561051457600080fd5b50356114cd565b6101f06004803603604081101561053157600080fd5b50803590602001356001600160a01b03166114e4565b600061055282611552565b61055e575060006106f4565b6000828152600160205260409020600581015460ff166105825760009150506106f4565b600581015460ff610100909104161515600114156105a45760009150506106f4565b7f00000000000000000000000000000000000000000000000000000000000000006001600160a01b031663bc58ccaa306e5945535f4f525f4e4f5f515545525960881b8460020154856001016040518563ffffffff1660e01b815260040180856001600160a01b03168152602001848152602001838152602001806020018281038252838181546001816001161561010002031660029004815260200191508054600181600116156101000203166002900480156106a35780601f10610678576101008083540402835291602001916106a3565b820191906000526020600020905b81548152906001019060200180831161068657829003601f168201915b50509550505050505060206040518083038186803b1580156106c457600080fd5b505afa1580156106d8573d6000803e3d6000fd5b505050506040513d60208110156106ee57600080fd5b50519150505b919050565b60009081526020819052604090206002015490565b600061071982611552565b610725575060006106f4565b60008281526001602081905260409091206005810154909160ff909116151514156107545760009150506106f4565b600581015460ff610100909104161515600114156107765760009150506106f4565b60020154421192915050565b61078b81610547565b6107c65760405162461bcd60e51b815260040180806020018281038252603e815260200180611973603e913960400191505060405180910390fd5b600060016000838152602001908152602001600020905060007f00000000000000000000000000000000000000000000000000000000000000006001600160a01b03166353b592396e5945535f4f525f4e4f5f515545525960881b8460020154856001016040518463ffffffff1660e01b815260040180848152602001838152602001806020018281038252838181546001816001161561010002031660029004815260200191508054600181600116156101000203166002900480156108ce5780601f106108a3576101008083540402835291602001916108ce565b820191906000526020600020905b8154815290600101906020018083116108b157829003601f168201915b5050945050505050602060405180830381600087803b1580156108f057600080fd5b505af1158015610904573d6000803e3d6000fd5b505050506040513d602081101561091a57600080fd5b505160408051600280825260608083018452939450909160208301908036833701905050905081158061094d5750816001145b6109885760405162461bcd60e51b815260040180806020018281038252602f815260200180611903602f913960400191505060405180910390fd5b816109c85760008160008151811061099c57fe5b6020026020010181815250506001816001815181106109b757fe5b6020026020010181815250506109ff565b6001816000815181106109d757fe5b6020026020010181815250506000816001815181106109f257fe5b6020026020010181815250505b60058301805461ff00191661010017905560408051633124a62b60e21b815260048101868152602482019283528351604483015283516001600160a01b037f0000000000000000000000000000000000000000000000000000000000000000169363c49298ac9389938793909291606401906020808601910280838360005b83811015610a96578181015183820152602001610a7e565b505050509050019350505050600060405180830381600087803b158015610abc57600080fd5b505af1158015610ad0573d6000803e3d6000fd5b5050604051600092508691507f5c3937ed929cd157b73b417381d743daf6e1ef65999e3ccb5dd64bc3247e28d6908390a350505050565b7f000000000000000000000000000000000000000000000000000000000000000081565b600082815260208190526040902060020154610b4e90610b49611569565b610f04565b610b895760405162461bcd60e51b815260040180806020018281038252602f8152602001806118d4602f913960400191505060405180910390fd5b610b93828261156d565b5050565b610b9f611569565b6001600160a01b0316816001600160a01b031614610bee5760405162461bcd60e51b815260040180806020018281038252602f815260200180611b48602f913960400191505060405180910390fd5b610b9382826115d6565b610c018161070e565b610c3c5760405162461bcd60e51b81526004018080602001828103825260418152602001806119326041913960600191505060405180910390fd5b60006001600083815260200190815260200160002090507f00000000000000000000000000000000000000000000000000000000000000006001600160a01b03166311df92f16e5945535f4f525f4e4f5f515545525960881b8360020154846001018560030160009054906101000a90046001600160a01b031686600401546040518663ffffffff1660e01b81526004018086815260200185815260200180602001846001600160a01b03168152602001838152602001828103825285818154600181600116156101000203166002900481526020019150805460018160011615610100020316600290048015610d745780601f10610d4957610100808354040283529160200191610d74565b820191906000526020600020905b815481529060010190602001808311610d5757829003601f168201915b50509650505050505050602060405180830381600087803b158015610d9857600080fd5b505af1158015610dac573d6000803e3d6000fd5b505050506040513d6020811015610dc257600080fd5b505060058101805460ff19166001908117909155600280830154604080516020808252868601805460001997811615610100029790970190961694909404938101849052869492936e5945535f4f525f4e4f5f515545525960881b937fb3036668442f09de8ac90882eb5202b825623fdea099ea280fea875ff73f308893909291829182019084908015610e975780601f10610e6c57610100808354040283529160200191610e97565b820191906000526020600020905b815481529060010190602001808311610e7a57829003601f168201915b50509250505060405180910390a45050565b7f000000000000000000000000000000000000000000000000000000000000000081565b6e5945535f4f525f4e4f5f515545525960881b81565b6000828152602081905260408120610efb908361163f565b90505b92915050565b6000828152602081905260408120610efb908361164b565b600160208181526000928352604092839020805481840180548651600296821615610100026000190190911695909504601f81018590048502860185019096528585529094919392909190830182828015610fb85780601f10610f8d57610100808354040283529160200191610fb8565b820191906000526020600020905b815481529060010190602001808311610f9b57829003601f168201915b50505050600283015460038401546004850154600590950154939491936001600160a01b03909116925060ff8082169161010090041687565b600081565b611001600033610f04565b61103c5760405162461bcd60e51b8152600401808060200182810382526040815260200180611a936040913960400191505060405180910390fd5b61104583611552565b6110805760405162461bcd60e51b815260040180806020018281038252603e8152602001806119b1603e913960400191505060405180910390fd5b60008381526001602052604090206002015462278d000142116110d45760405162461bcd60e51b815260040180806020018281038252603d815260200180611a56603d913960400191505060405180910390fd5b818160018181106110e157fe5b90506020020135828260008181106110f557fe5b905060200201350160011461113b5760405162461bcd60e51b81526004018080602001828103825260378152602001806119ef6037913960400191505060405180910390fd5b6002811461117a5760405162461bcd60e51b81526004018080602001828103825260378152602001806119ef6037913960400191505060405180910390fd5b60008381526001602090815260409182902060058101805461ff0019166101001790558251633124a62b60e21b815260048101878152602482019485526044820186905291936001600160a01b037f0000000000000000000000000000000000000000000000000000000000000000169363c49298ac938993899389939091606401908590850280828437600081840152601f19601f820116905080830192505050945050505050600060405180830381600087803b15801561123c57600080fd5b505af1158015611250573d6000803e3d6000fd5b5050604051600192508691507f5c3937ed929cd157b73b417381d743daf6e1ef65999e3ccb5dd64bc3247e28d690600090a350505050565b611293600033610f04565b6112ce5760405162461bcd60e51b815260040180806020018281038252603c815260200180611ad3603c913960400191505060405180910390fd5b6112d785611552565b156113135760405162461bcd60e51b8152600401808060200182810382526039815260200180611b0f6039913960400191505060405180910390fd5b6040805160e08101825286815260208082018781528284018790526001600160a01b038616606084015260808301859052600060a0840181905260c08401819052898152600180845294902083518155905180519394919361137d93928501929190910190611810565b5060408281015160028301556060808401516003840180547fffffffffffffffffffffffff0000000000000000000000000000000000000000166001600160a01b03928316179055608080860151600486015560a0808701516005909601805460c09098015160ff199098169615159690961761ff0019166101009715159790970296909617909455825160208082018a905291881693810193909352908201859052828252875192820192909252865188937fc90825528edadcc19b4719354e63fb57b1e7d378e1ed2d11a3df71861b3b2dbf9389938993899389938392918301919088019080838360005b8381101561148257818101518382015260200161146a565b50505050905090810190601f1680156114af5780820380516001836020036101000a031916815260200191505b509550505050505060405180910390a25050505050565b62278d0081565b6000818152602081905260408120610efe90611660565b60008281526020819052604090206002015461150290610b49611569565b610bee5760405162461bcd60e51b8152600401808060200182810382526030815260200180611a266030913960400191505060405180910390fd5b6000610efb836001600160a01b03841661166b565b600090815260016020526040902060020154151590565b3390565b6000828152602081905260409020611585908261153d565b15610b9357611592611569565b6001600160a01b0316816001600160a01b0316837f2f8788117e7eff1d82e926ec794901d17c78024a50270940304540a733656f0d60405160405180910390a45050565b60008281526020819052604090206115ee90826116b5565b15610b93576115fb611569565b6001600160a01b0316816001600160a01b0316837ff6391f5c32d9c69d2a47ea670b442974b53935d1edc7fd64eb21e047a839171b60405160405180910390a45050565b6000610efb83836116ca565b6000610efb836001600160a01b03841661172e565b6000610efe82611746565b6000611677838361172e565b6116ad57508154600181810184556000848152602080822090930184905584548482528286019093526040902091909155610efe565b506000610efe565b6000610efb836001600160a01b03841661174a565b8154600090821061170c5760405162461bcd60e51b81526004018080602001828103825260228152602001806118b26022913960400191505060405180910390fd5b82600001828154811061171b57fe5b9060005260206000200154905092915050565b60009081526001919091016020526040902054151590565b5490565b60008181526001830160205260408120548015611806578354600019808301919081019060009087908390811061177d57fe5b906000526020600020015490508087600001848154811061179a57fe5b6000918252602080832090910192909255828152600189810190925260409020908401905586548790806117ca57fe5b60019003818190600052602060002001600090559055866001016000878152602001908152602001600020600090556001945050505050610efe565b6000915050610efe565b828054600181600116156101000203166002900490600052602060002090601f016020900481019282611846576000855561188c565b82601f1061185f57805160ff191683800117855561188c565b8280016001018555821561188c579182015b8281111561188c578251825591602001919060010190611871565b5061189892915061189c565b5090565b5b80821115611898576000815560010161189d56fe456e756d657261626c655365743a20696e646578206f7574206f6620626f756e6473416363657373436f6e74726f6c3a2073656e646572206d75737420626520616e2061646d696e20746f206772616e74416461707465723a3a7265706f72745061796f7574733a20496e76616c6964207265736f6c7574696f6e2064617461416461707465723a3a726571756573745265736f6c7574696f6e446174613a205175657374696f6e206e6f7420726561647920746f206265207265736f6c766564416461707465723a3a7265706f72745061796f7574733a207175657374696f6e4944206e6f7420726561647920746f207265706f7274207061796f757473416461707465723a3a656d657267656e63795265706f72745061796f7574733a207175657374696f6e4944206973206e6f7420696e697469616c697a6564416461707465723a3a656d657267656e63795265706f72745061796f7574733a207061796f757473206d7573742062652062696e617279416363657373436f6e74726f6c3a2073656e646572206d75737420626520616e2061646d696e20746f207265766f6b65416461707465723a3a656d657267656e63795265706f72745061796f7574733a2073616665747920706572696f6420686173206e6f7420706173736564416461707465723a3a656d657267656e63795265706f72745061796f7574733a2063616c6c657220646f6573206e6f7420686176652061646d696e20726f6c65416461707465723a3a696e697469616c697a655175657374696f6e3a2063616c6c657220646f6573206e6f7420686176652061646d696e20726f6c65416461707465723a3a696e697469616c697a655175657374696f6e3a205175657374696f6e20616c726561647920696e697469616c697a6564416363657373436f6e74726f6c3a2063616e206f6e6c792072656e6f756e636520726f6c657320666f722073656c66a264697066735822122039cb177726c95d19cd5a8a888ead4b0894aced8378bef78eb2b1494b8cd5438164736f6c63430007050033",
  "devdoc": {
    "kind": "dev",
    "methods": {
      "emergencyReportPayouts(bytes32,uint256[])": {
        "params": {
          "questionID": "- The unique questionID of the condition"
        }
      },
      "getRoleAdmin(bytes32)": {
        "details": "Returns the admin role that controls `role`. See {grantRole} and {revokeRole}. To change a role's admin, use {_setRoleAdmin}."
      },
      "getRoleMember(bytes32,uint256)": {
        "details": "Returns one of the accounts that have `role`. `index` must be a value between 0 and {getRoleMemberCount}, non-inclusive. Role bearers are not sorted in any particular way, and their ordering may change at any point. WARNING: When using {getRoleMember} and {getRoleMemberCount}, make sure you perform all queries on the same block. See the following https://forum.openzeppelin.com/t/iterating-over-elements-on-enumerableset-in-openzeppelin-contracts/2296[forum post] for more information."
      },
      "getRoleMemberCount(bytes32)": {
        "details": "Returns the number of accounts that have `role`. Can be used together with {getRoleMember} to enumerate all bearers of a role."
      },
      "grantRole(bytes32,address)": {
        "details": "Grants `role` to `account`. If `account` had not been already granted `role`, emits a {RoleGranted} event. Requirements: - the caller must have ``role``'s admin role."
      },
      "hasRole(bytes32,address)": {
        "details": "Returns `true` if `account` has been granted `role`."
      },
      "initializeQuestion(bytes32,bytes,uint256,address,uint256)": {
        "params": {
          "ancillaryData": "- Holds data used to resolve a question",
          "questionID": "- The unique questionID of the condition",
          "resolutionTime": "- timestamp at which the Adapter can resolve a question",
          "reward": "- reward offered to a successful proposer",
          "rewardToken": "- ERC20 token address used for payment of rewards and fees"
        }
      },
      "readyToReportPayouts(bytes32)": {
        "params": {
          "questionID": "- The unique questionID of the condition"
        }
      },
      "readyToRequestResolution(bytes32)": {
        "params": {
          "questionID": "- The unique questionID of the condition"
        }
      },
      "renounceRole(bytes32,address)": {
        "details": "Revokes `role` from the calling account. Roles are often managed via {grantRole} and {revokeRole}: this function's purpose is to provide a mechanism for accounts to lose their privileges if they are compromised (such as when a trusted device is misplaced). If the calling account had been granted `role`, emits a {RoleRevoked} event. Requirements: - the caller must be `account`."
      },
      "reportPayouts(bytes32)": {
        "params": {
          "questionID": "- The unique questionID of the condition"
        }
      },
      "requestResolutionData(bytes32)": {
        "params": {
          "questionID": "- The unique questionID of the condition"
        }
      },
      "revokeRole(bytes32,address)": {
        "details": "Revokes `role` from `account`. If `account` had been granted `role`, emits a {RoleRevoked} event. Requirements: - the caller must have ``role``'s admin role."
      }
    },
    "title": "UmaConditionalTokensBinaryAdapter",
    "version": 1
  },
  "userdoc": {
    "kind": "user",
    "methods": {
      "emergencyReportPayouts(bytes32,uint256[])": {
        "notice": "Allows the owner to report payouts in an emergency"
      },
      "initializeQuestion(bytes32,bytes,uint256,address,uint256)": {
        "notice": "Initializes a question on the Adapter to report on. Once initialized, the resolution conditions may not be changed."
      },
      "readyToReportPayouts(bytes32)": {
        "notice": "Checks whether a questionID is ready to report payouts"
      },
      "readyToRequestResolution(bytes32)": {
        "notice": "- Checks whether or not a question can start the resolution process"
      },
      "reportPayouts(bytes32)": {
        "notice": "Can be called by anyone to resolve a condition"
      },
      "requestResolutionData(bytes32)": {
        "notice": "Called by anyone to request resolution data from the Optimistic Oracle"
      }
    },
    "notice": "allows a condition on a ConditionalTokens contract to be resolved via UMA's Optimistic Oracle",
    "version": 1
  },
  "storageLayout": {
    "storage": [
      {
        "astId": 22,
        "contract": "contracts/UmaConditionalTokensBinaryAdapter.sol:UmaConditionalTokensBinaryAdapter",
        "label": "_roles",
        "offset": 0,
        "slot": "0",
        "type": "t_mapping(t_bytes32,t_struct(RoleData)18_storage)"
      },
      {
        "astId": 2074,
        "contract": "contracts/UmaConditionalTokensBinaryAdapter.sol:UmaConditionalTokensBinaryAdapter",
        "label": "questions",
        "offset": 0,
        "slot": "1",
        "type": "t_mapping(t_bytes32,t_struct(QuestionData)2070_storage)"
      }
    ],
    "types": {
      "t_address": {
        "encoding": "inplace",
        "label": "address",
        "numberOfBytes": "20"
      },
      "t_array(t_bytes32)dyn_storage": {
        "base": "t_bytes32",
        "encoding": "dynamic_array",
        "label": "bytes32[]",
        "numberOfBytes": "32"
      },
      "t_bool": {
        "encoding": "inplace",
        "label": "bool",
        "numberOfBytes": "1"
      },
      "t_bytes32": {
        "encoding": "inplace",
        "label": "bytes32",
        "numberOfBytes": "32"
      },
      "t_bytes_storage": {
        "encoding": "bytes",
        "label": "bytes",
        "numberOfBytes": "32"
      },
      "t_mapping(t_bytes32,t_struct(QuestionData)2070_storage)": {
        "encoding": "mapping",
        "key": "t_bytes32",
        "label": "mapping(bytes32 => struct UmaConditionalTokensBinaryAdapter.QuestionData)",
        "numberOfBytes": "32",
        "value": "t_struct(QuestionData)2070_storage"
      },
      "t_mapping(t_bytes32,t_struct(RoleData)18_storage)": {
        "encoding": "mapping",
        "key": "t_bytes32",
        "label": "mapping(bytes32 => struct AccessControl.RoleData)",
        "numberOfBytes": "32",
        "value": "t_struct(RoleData)18_storage"
      },
      "t_mapping(t_bytes32,t_uint256)": {
        "encoding": "mapping",
        "key": "t_bytes32",
        "label": "mapping(bytes32 => uint256)",
        "numberOfBytes": "32",
        "value": "t_uint256"
      },
      "t_struct(AddressSet)1813_storage": {
        "encoding": "inplace",
        "label": "struct EnumerableSet.AddressSet",
        "members": [
          {
            "astId": 1812,
            "contract": "contracts/UmaConditionalTokensBinaryAdapter.sol:UmaConditionalTokensBinaryAdapter",
            "label": "_inner",
            "offset": 0,
            "slot": "0",
            "type": "t_struct(Set)1548_storage"
          }
        ],
        "numberOfBytes": "64"
      },
      "t_struct(QuestionData)2070_storage": {
        "encoding": "inplace",
        "label": "struct UmaConditionalTokensBinaryAdapter.QuestionData",
        "members": [
          {
            "astId": 2057,
            "contract": "contracts/UmaConditionalTokensBinaryAdapter.sol:UmaConditionalTokensBinaryAdapter",
            "label": "questionID",
            "offset": 0,
            "slot": "0",
            "type": "t_bytes32"
          },
          {
            "astId": 2059,
            "contract": "contracts/UmaConditionalTokensBinaryAdapter.sol:UmaConditionalTokensBinaryAdapter",
            "label": "ancillaryData",
            "offset": 0,
            "slot": "1",
            "type": "t_bytes_storage"
          },
          {
            "astId": 2061,
            "contract": "contracts/UmaConditionalTokensBinaryAdapter.sol:UmaConditionalTokensBinaryAdapter",
            "label": "resolutionTime",
            "offset": 0,
            "slot": "2",
            "type": "t_uint256"
          },
          {
            "astId": 2063,
            "contract": "contracts/UmaConditionalTokensBinaryAdapter.sol:UmaConditionalTokensBinaryAdapter",
            "label": "rewardToken",
            "offset": 0,
            "slot": "3",
            "type": "t_address"
          },
          {
            "astId": 2065,
            "contract": "contracts/UmaConditionalTokensBinaryAdapter.sol:UmaConditionalTokensBinaryAdapter",
            "label": "reward",
            "offset": 0,
            "slot": "4",
            "type": "t_uint256"
          },
          {
            "astId": 2067,
            "contract": "contracts/UmaConditionalTokensBinaryAdapter.sol:UmaConditionalTokensBinaryAdapter",
            "label": "resolutionDataRequested",
            "offset": 0,
            "slot": "5",
            "type": "t_bool"
          },
          {
            "astId": 2069,
            "contract": "contracts/UmaConditionalTokensBinaryAdapter.sol:UmaConditionalTokensBinaryAdapter",
            "label": "resolved",
            "offset": 1,
            "slot": "5",
            "type": "t_bool"
          }
        ],
        "numberOfBytes": "192"
      },
      "t_struct(RoleData)18_storage": {
        "encoding": "inplace",
        "label": "struct AccessControl.RoleData",
        "members": [
          {
            "astId": 15,
            "contract": "contracts/UmaConditionalTokensBinaryAdapter.sol:UmaConditionalTokensBinaryAdapter",
            "label": "members",
            "offset": 0,
            "slot": "0",
            "type": "t_struct(AddressSet)1813_storage"
          },
          {
            "astId": 17,
            "contract": "contracts/UmaConditionalTokensBinaryAdapter.sol:UmaConditionalTokensBinaryAdapter",
            "label": "adminRole",
            "offset": 0,
            "slot": "2",
            "type": "t_bytes32"
          }
        ],
        "numberOfBytes": "96"
      },
      "t_struct(Set)1548_storage": {
        "encoding": "inplace",
        "label": "struct EnumerableSet.Set",
        "members": [
          {
            "astId": 1543,
            "contract": "contracts/UmaConditionalTokensBinaryAdapter.sol:UmaConditionalTokensBinaryAdapter",
            "label": "_values",
            "offset": 0,
            "slot": "0",
            "type": "t_array(t_bytes32)dyn_storage"
          },
          {
            "astId": 1547,
            "contract": "contracts/UmaConditionalTokensBinaryAdapter.sol:UmaConditionalTokensBinaryAdapter",
            "label": "_indexes",
            "offset": 0,
            "slot": "1",
            "type": "t_mapping(t_bytes32,t_uint256)"
          }
        ],
        "numberOfBytes": "64"
      },
      "t_uint256": {
        "encoding": "inplace",
        "label": "uint256",
        "numberOfBytes": "32"
      }
    }
  }
}