{
  "address": "0x46546DF11921a781c2e44C370163263E15b739A9",
  "abi": [
    {
      "inputs": [
        {
          "internalType": "address",
          "name": "conditionalTokenAddress",
          "type": "address"
        },
        {
          "internalType": "address",
          "name": "umaFinderAddress",
          "type": "address"
        }
      ],
      "stateMutability": "nonpayable",
      "type": "constructor"
    },
    {
      "anonymous": false,
      "inputs": [
        {
          "indexed": true,
          "internalType": "bytes32",
          "name": "questionID",
          "type": "bytes32"
        },
        {
          "indexed": false,
          "internalType": "bytes",
          "name": "question",
          "type": "bytes"
        },
        {
          "indexed": false,
          "internalType": "uint256",
          "name": "resolutionTime",
          "type": "uint256"
        },
        {
          "indexed": false,
          "internalType": "address",
          "name": "rewardToken",
          "type": "address"
        },
        {
          "indexed": false,
          "internalType": "uint256",
          "name": "reward",
          "type": "uint256"
        }
      ],
      "name": "QuestionInitialized",
      "type": "event"
    },
    {
      "anonymous": false,
      "inputs": [
        {
          "indexed": true,
          "internalType": "bytes32",
          "name": "questionId",
          "type": "bytes32"
        },
        {
          "indexed": true,
          "internalType": "bool",
          "name": "emergencyReport",
          "type": "bool"
        }
      ],
      "name": "QuestionResolved",
      "type": "event"
    },
    {
      "anonymous": false,
      "inputs": [
        {
          "indexed": true,
          "internalType": "bytes32",
          "name": "identifier",
          "type": "bytes32"
        },
        {
          "indexed": true,
          "internalType": "uint256",
          "name": "timestamp",
          "type": "uint256"
        },
        {
          "indexed": true,
          "internalType": "bytes32",
          "name": "questionID",
          "type": "bytes32"
        },
        {
          "indexed": false,
          "internalType": "bytes",
          "name": "ancillaryData",
          "type": "bytes"
        }
      ],
      "name": "ResolutionDataRequested",
      "type": "event"
    },
    {
      "anonymous": false,
      "inputs": [
        {
          "indexed": true,
          "internalType": "bytes32",
          "name": "role",
          "type": "bytes32"
        },
        {
          "indexed": true,
          "internalType": "bytes32",
          "name": "previousAdminRole",
          "type": "bytes32"
        },
        {
          "indexed": true,
          "internalType": "bytes32",
          "name": "newAdminRole",
          "type": "bytes32"
        }
      ],
      "name": "RoleAdminChanged",
      "type": "event"
    },
    {
      "anonymous": false,
      "inputs": [
        {
          "indexed": true,
          "internalType": "bytes32",
          "name": "role",
          "type": "bytes32"
        },
        {
          "indexed": true,
          "internalType": "address",
          "name": "account",
          "type": "address"
        },
        {
          "indexed": true,
          "internalType": "address",
          "name": "sender",
          "type": "address"
        }
      ],
      "name": "RoleGranted",
      "type": "event"
    },
    {
      "anonymous": false,
      "inputs": [
        {
          "indexed": true,
          "internalType": "bytes32",
          "name": "role",
          "type": "bytes32"
        },
        {
          "indexed": true,
          "internalType": "address",
          "name": "account",
          "type": "address"
        },
        {
          "indexed": true,
          "internalType": "address",
          "name": "sender",
          "type": "address"
        }
      ],
      "name": "RoleRevoked",
      "type": "event"
    },
    {
      "inputs": [],
      "name": "DEFAULT_ADMIN_ROLE",
      "outputs": [
        {
          "internalType": "bytes32",
          "name": "",
          "type": "bytes32"
        }
      ],
      "stateMutability": "view",
      "type": "function"
    },
    {
      "inputs": [],
      "name": "conditionalTokenContract",
      "outputs": [
        {
          "internalType": "contract IConditionalTokens",
          "name": "",
          "type": "address"
        }
      ],
      "stateMutability": "view",
      "type": "function"
    },
    {
      "inputs": [
        {
          "internalType": "bytes32",
          "name": "questionID",
          "type": "bytes32"
        },
        {
          "internalType": "uint256[]",
          "name": "payouts",
          "type": "uint256[]"
        }
      ],
      "name": "emergencyReportPayouts",
      "outputs": [],
      "stateMutability": "nonpayable",
      "type": "function"
    },
    {
      "inputs": [],
      "name": "emergencySafetyPeriod",
      "outputs": [
        {
          "internalType": "uint256",
          "name": "",
          "type": "uint256"
        }
      ],
      "stateMutability": "view",
      "type": "function"
    },
    {
      "inputs": [
        {
          "internalType": "bytes32",
          "name": "role",
          "type": "bytes32"
        }
      ],
      "name": "getRoleAdmin",
      "outputs": [
        {
          "internalType": "bytes32",
          "name": "",
          "type": "bytes32"
        }
      ],
      "stateMutability": "view",
      "type": "function"
    },
    {
      "inputs": [
        {
          "internalType": "bytes32",
          "name": "role",
          "type": "bytes32"
        },
        {
          "internalType": "uint256",
          "name": "index",
          "type": "uint256"
        }
      ],
      "name": "getRoleMember",
      "outputs": [
        {
          "internalType": "address",
          "name": "",
          "type": "address"
        }
      ],
      "stateMutability": "view",
      "type": "function"
    },
    {
      "inputs": [
        {
          "internalType": "bytes32",
          "name": "role",
          "type": "bytes32"
        }
      ],
      "name": "getRoleMemberCount",
      "outputs": [
        {
          "internalType": "uint256",
          "name": "",
          "type": "uint256"
        }
      ],
      "stateMutability": "view",
      "type": "function"
    },
    {
      "inputs": [
        {
          "internalType": "bytes32",
          "name": "role",
          "type": "bytes32"
        },
        {
          "internalType": "address",
          "name": "account",
          "type": "address"
        }
      ],
      "name": "grantRole",
      "outputs": [],
      "stateMutability": "nonpayable",
      "type": "function"
    },
    {
      "inputs": [
        {
          "internalType": "bytes32",
          "name": "role",
          "type": "bytes32"
        },
        {
          "internalType": "address",
          "name": "account",
          "type": "address"
        }
      ],
      "name": "hasRole",
      "outputs": [
        {
          "internalType": "bool",
          "name": "",
          "type": "bool"
        }
      ],
      "stateMutability": "view",
      "type": "function"
    },
    {
      "inputs": [],
      "name": "identifier",
      "outputs": [
        {
          "internalType": "bytes32",
          "name": "",
          "type": "bytes32"
        }
      ],
      "stateMutability": "view",
      "type": "function"
    },
    {
      "inputs": [
        {
          "internalType": "bytes32",
          "name": "questionID",
          "type": "bytes32"
        },
        {
          "internalType": "bytes",
          "name": "ancillaryData",
          "type": "bytes"
        },
        {
          "internalType": "uint256",
          "name": "resolutionTime",
          "type": "uint256"
        },
        {
          "internalType": "address",
          "name": "rewardToken",
          "type": "address"
        },
        {
          "internalType": "uint256",
          "name": "reward",
          "type": "uint256"
        }
      ],
      "name": "initializeQuestion",
      "outputs": [],
      "stateMutability": "nonpayable",
      "type": "function"
    },
    {
      "inputs": [],
      "name": "oracle",
      "outputs": [
        {
          "internalType": "bytes32",
          "name": "",
          "type": "bytes32"
        }
      ],
      "stateMutability": "view",
      "type": "function"
    },
    {
      "inputs": [
        {
          "internalType": "bytes32",
          "name": "",
          "type": "bytes32"
        }
      ],
      "name": "questions",
      "outputs": [
        {
          "internalType": "bytes32",
          "name": "questionID",
          "type": "bytes32"
        },
        {
          "internalType": "bytes",
          "name": "ancillaryData",
          "type": "bytes"
        },
        {
          "internalType": "uint256",
          "name": "resolutionTime",
          "type": "uint256"
        },
        {
          "internalType": "address",
          "name": "rewardToken",
          "type": "address"
        },
        {
          "internalType": "uint256",
          "name": "reward",
          "type": "uint256"
        },
        {
          "internalType": "bool",
          "name": "resolutionDataRequested",
          "type": "bool"
        },
        {
          "internalType": "bool",
          "name": "resolved",
          "type": "bool"
        }
      ],
      "stateMutability": "view",
      "type": "function"
    },
    {
      "inputs": [
        {
          "internalType": "bytes32",
          "name": "questionID",
          "type": "bytes32"
        }
      ],
      "name": "readyToReportPayouts",
      "outputs": [
        {
          "internalType": "bool",
          "name": "",
          "type": "bool"
        }
      ],
      "stateMutability": "view",
      "type": "function"
    },
    {
      "inputs": [
        {
          "internalType": "bytes32",
          "name": "questionID",
          "type": "bytes32"
        }
      ],
      "name": "readyToRequestResolution",
      "outputs": [
        {
          "internalType": "bool",
          "name": "",
          "type": "bool"
        }
      ],
      "stateMutability": "view",
      "type": "function"
    },
    {
      "inputs": [
        {
          "internalType": "bytes32",
          "name": "role",
          "type": "bytes32"
        },
        {
          "internalType": "address",
          "name": "account",
          "type": "address"
        }
      ],
      "name": "renounceRole",
      "outputs": [],
      "stateMutability": "nonpayable",
      "type": "function"
    },
    {
      "inputs": [
        {
          "internalType": "bytes32",
          "name": "questionID",
          "type": "bytes32"
        }
      ],
      "name": "reportPayouts",
      "outputs": [],
      "stateMutability": "nonpayable",
      "type": "function"
    },
    {
      "inputs": [
        {
          "internalType": "bytes32",
          "name": "questionID",
          "type": "bytes32"
        }
      ],
      "name": "requestResolutionData",
      "outputs": [],
      "stateMutability": "nonpayable",
      "type": "function"
    },
    {
      "inputs": [
        {
          "internalType": "bytes32",
          "name": "role",
          "type": "bytes32"
        },
        {
          "internalType": "address",
          "name": "account",
          "type": "address"
        }
      ],
      "name": "revokeRole",
      "outputs": [],
      "stateMutability": "nonpayable",
      "type": "function"
    },
    {
      "inputs": [],
      "name": "umaFinder",
      "outputs": [
        {
          "internalType": "contract FinderInterface",
          "name": "",
          "type": "address"
        }
      ],
      "stateMutability": "view",
      "type": "function"
    }
  ],
  "transactionHash": "0x1cba2ea5e781b4a87feb8cefaed7eca5ee30cf8db32af75aabf85285ec3ada4b",
  "args": [
    "0x4D97DCd97eC945f40cF65F87097ACe5EA0476045",
    "0x09aea4b2242abC8bb4BB78D537A67a245A7bEC64"
  ],
  "solcInputHash": "74d16b4e7ed52f21432ea60999044109",
  "bytecode": "0x60a06040523480156200001157600080fd5b5060405162001dfd38038062001dfd833981810160405260408110156200003757600080fd5b508051602090910151606082901b6001600160601b031916608052600180546001600160a01b0319166001600160a01b0383161790556200007a60003362000082565b505062000196565b6200008e828262000092565b5050565b600082815260208181526040909120620000b79183906200151a6200010b821b17901c565b156200008e57620000c76200012b565b6001600160a01b0316816001600160a01b0316837f2f8788117e7eff1d82e926ec794901d17c78024a50270940304540a733656f0d60405160405180910390a45050565b600062000122836001600160a01b0384166200012f565b90505b92915050565b3390565b60006200013d83836200017e565b620001755750815460018181018455600084815260208082209093018490558454848252828601909352604090209190915562000125565b50600062000125565b60009081526001919091016020526040902054151590565b60805160601c611c3f620001be60003980610a2c5280610e5852806111aa5250611c3f6000f3fe608060405234801561001057600080fd5b506004361061016c5760003560e01c80638b5dc504116100cd578063a39cc29911610081578063c66d4c6c11610066578063c66d4c6c14610519578063ca15c87314610521578063d547741f1461053e5761016c565b8063a39cc299146103e1578063c33da506146104585761016c565b806391d14854116100b257806391d14854146102e157806395addb901461030d578063a217fddf146103d95761016c565b80638b5dc504146102b65780639010d07c146102be5761016c565b806336568abe1161012457806370b9e9041161010957806370b9e904146102825780637998a1c4146102a65780637dc0d1d0146102ae5761016c565b806336568abe146102395780633cc79265146102655761016c565b80632654320c116101555780632654320c146101d1578063275180c0146101ee5780632f2ff15d1461020d5761016c565b806310e16b5a14610171578063248a9ca3146101a2575b600080fd5b61018e6004803603602081101561018757600080fd5b503561056a565b604080519115158252519081900360200190f35b6101bf600480360360208110156101b857600080fd5b5035610709565b60408051918252519081900360200190f35b61018e600480360360208110156101e757600080fd5b503561071e565b61020b6004803603602081101561020457600080fd5b503561078d565b005b61020b6004803603604081101561022357600080fd5b50803590602001356001600160a01b0316610af5565b61020b6004803603604081101561024f57600080fd5b50803590602001356001600160a01b0316610b61565b61020b6004803603602081101561027b57600080fd5b5035610bc2565b61028a610e56565b604080516001600160a01b039092168252519081900360200190f35b6101bf610e7a565b6101bf610e90565b61028a610eb4565b61028a600480360360408110156102d457600080fd5b5080359060200135610ec3565b61018e600480360360408110156102f757600080fd5b50803590602001356001600160a01b0316610ee4565b61032a6004803603602081101561032357600080fd5b5035610efc565b6040518088815260200180602001878152602001866001600160a01b0316815260200185815260200184151581526020018315158152602001828103825288818151815260200191508051906020019080838360005b83811015610398578181015183820152602001610380565b50505050905090810190601f1680156103c55780820380516001836020036101000a031916815260200191505b509850505050505050505060405180910390f35b6101bf610fd0565b61020b600480360360408110156103f757600080fd5b8135919081019060408101602082013564010000000081111561041957600080fd5b82018360208201111561042b57600080fd5b8035906020019184602083028401116401000000008311171561044d57600080fd5b509092509050610fd5565b61020b600480360360a081101561046e57600080fd5b8135919081019060408101602082013564010000000081111561049057600080fd5b8201836020820111156104a257600080fd5b803590602001918460018302840111640100000000831117156104c457600080fd5b91908080601f0160208091040260200160405190810160405280939291908181526020018383808284376000920191909152509295505082359350505060208101356001600160a01b03169060400135611268565b6101bf6114a3565b6101bf6004803603602081101561053757600080fd5b50356114aa565b61020b6004803603604081101561055457600080fd5b50803590602001356001600160a01b03166114c1565b60006105758261152f565b61058157506000610704565b6000828152600260205260409020600581015460ff166105a5576000915050610704565b600581015460ff610100909104161515600114156105c7576000915050610704565b60006105d1611547565b9050806001600160a01b031663bc58ccaa306e5945535f4f525f4e4f5f515545525960881b8560020154866001016040518563ffffffff1660e01b815260040180856001600160a01b03168152602001848152602001838152602001806020018281038252838181546001816001161561010002031660029004815260200191508054600181600116156101000203166002900480156106b25780601f10610687576101008083540402835291602001916106b2565b820191906000526020600020905b81548152906001019060200180831161069557829003601f168201915b50509550505050505060206040518083038186803b1580156106d357600080fd5b505afa1580156106e7573d6000803e3d6000fd5b505050506040513d60208110156106fd57600080fd5b5051925050505b919050565b60009081526020819052604090206002015490565b60006107298261152f565b61073557506000610704565b6000828152600260205260409020600581015460ff1615156001141561075f576000915050610704565b600581015460ff61010090910416151560011415610781576000915050610704565b60020154421192915050565b6107968161056a565b6107d15760405162461bcd60e51b815260040180806020018281038252603e815260200180611a06603e913960400191505060405180910390fd5b6000818152600260205260408120906107e8611547565b90506000816001600160a01b03166353b592396e5945535f4f525f4e4f5f515545525960881b8560020154866001016040518463ffffffff1660e01b815260040180848152602001838152602001806020018281038252838181546001816001161561010002031660029004815260200191508054600181600116156101000203166002900480156108bb5780601f10610890576101008083540402835291602001916108bb565b820191906000526020600020905b81548152906001019060200180831161089e57829003601f168201915b5050945050505050602060405180830381600087803b1580156108dd57600080fd5b505af11580156108f1573d6000803e3d6000fd5b505050506040513d602081101561090757600080fd5b505160408051600280825260608083018452939450909160208301908036833701905050905081158061093a5750816001145b6109755760405162461bcd60e51b815260040180806020018281038252602f815260200180611996602f913960400191505060405180910390fd5b816109b55760008160008151811061098957fe5b6020026020010181815250506001816001815181106109a457fe5b6020026020010181815250506109ec565b6001816000815181106109c457fe5b6020026020010181815250506000816001815181106109df57fe5b6020026020010181815250505b60058401805461ff00191661010017905560408051633124a62b60e21b815260048101878152602482019283528351604483015283516001600160a01b037f0000000000000000000000000000000000000000000000000000000000000000169363c49298ac938a938793909291606401906020808601910280838360005b83811015610a83578181015183820152602001610a6b565b505050509050019350505050600060405180830381600087803b158015610aa957600080fd5b505af1158015610abd573d6000803e3d6000fd5b5050604051600092508791507f5c3937ed929cd157b73b417381d743daf6e1ef65999e3ccb5dd64bc3247e28d6908390a35050505050565b600082815260208190526040902060020154610b1890610b136115fc565b610ee4565b610b535760405162461bcd60e51b815260040180806020018281038252602f815260200180611967602f913960400191505060405180910390fd5b610b5d8282611600565b5050565b610b696115fc565b6001600160a01b0316816001600160a01b031614610bb85760405162461bcd60e51b815260040180806020018281038252602f815260200180611bdb602f913960400191505060405180910390fd5b610b5d8282611669565b610bcb8161071e565b610c065760405162461bcd60e51b81526004018080602001828103825260418152602001806119c56041913960600191505060405180910390fd5b600081815260026020526040812090610c1d611547565b60028084015460038501546004808701546040517f11df92f10000000000000000000000000000000000000000000000000000000081526e5945535f4f525f4e4f5f515545525960881b928101838152602482018690526001600160a01b03948516606483018190526084830184905260a0604484019081526001808d0180546000199281161561010002929092019091169990990460a48501819052999a50958a16986311df92f19895979691949360c4019086908015610d205780601f10610cf557610100808354040283529160200191610d20565b820191906000526020600020905b815481529060010190602001808311610d0357829003601f168201915b50509650505050505050602060405180830381600087803b158015610d4457600080fd5b505af1158015610d58573d6000803e3d6000fd5b505050506040513d6020811015610d6e57600080fd5b505060058201805460ff19166001908117909155600280840154604080516020808252878601805460001997811615610100029790970190961694909404938101849052879492936e5945535f4f525f4e4f5f515545525960881b937fb3036668442f09de8ac90882eb5202b825623fdea099ea280fea875ff73f308893909291829182019084908015610e435780601f10610e1857610100808354040283529160200191610e43565b820191906000526020600020905b815481529060010190602001808311610e2657829003601f168201915b50509250505060405180910390a4505050565b7f000000000000000000000000000000000000000000000000000000000000000081565b6e5945535f4f525f4e4f5f515545525960881b81565b7f4f7074696d69737469634f7261636c650000000000000000000000000000000081565b6001546001600160a01b031681565b6000828152602081905260408120610edb90836116d2565b90505b92915050565b6000828152602081905260408120610edb90836116de565b60026020818152600092835260409283902080546001808301805487519281161561010002600019011695909504601f8101859004850282018501909652858152909491939092909190830182828015610f975780601f10610f6c57610100808354040283529160200191610f97565b820191906000526020600020905b815481529060010190602001808311610f7a57829003601f168201915b50505050600283015460038401546004850154600590950154939491936001600160a01b03909116925060ff8082169161010090041687565b600081565b610fe0600033610ee4565b61101b5760405162461bcd60e51b8152600401808060200182810382526040815260200180611b266040913960400191505060405180910390fd5b6110248361152f565b61105f5760405162461bcd60e51b815260040180806020018281038252603e815260200180611a44603e913960400191505060405180910390fd5b6000838152600260208190526040909120015462278d000142116110b45760405162461bcd60e51b815260040180806020018281038252603d815260200180611ae9603d913960400191505060405180910390fd5b818160018181106110c157fe5b90506020020135828260008181106110d557fe5b905060200201350160011461111b5760405162461bcd60e51b8152600401808060200182810382526037815260200180611a826037913960400191505060405180910390fd5b6002811461115a5760405162461bcd60e51b8152600401808060200182810382526037815260200180611a826037913960400191505060405180910390fd5b60008381526002602090815260409182902060058101805461ff0019166101001790558251633124a62b60e21b815260048101878152602482019485526044820186905291936001600160a01b037f0000000000000000000000000000000000000000000000000000000000000000169363c49298ac938993899389939091606401908590850280828437600081840152601f19601f820116905080830192505050945050505050600060405180830381600087803b15801561121c57600080fd5b505af1158015611230573d6000803e3d6000fd5b5050604051600192508691507f5c3937ed929cd157b73b417381d743daf6e1ef65999e3ccb5dd64bc3247e28d690600090a350505050565b611273600033610ee4565b6112ae5760405162461bcd60e51b815260040180806020018281038252603c815260200180611b66603c913960400191505060405180910390fd5b6112b78561152f565b156112f35760405162461bcd60e51b8152600401808060200182810382526039815260200180611ba26039913960400191505060405180910390fd5b6040805160e08101825286815260208082018781528284018790526001600160a01b038616606084015260808301859052600060a0840181905260c084018190528981526002835293909320825181559251805192939261135a92600185019201906118a3565b5060408281015160028301556060808401516003840180547fffffffffffffffffffffffff0000000000000000000000000000000000000000166001600160a01b03928316179055608080860151600486015560a0808701516005909601805460c09098015160ff199098169615159690961761ff0019166101009715159790970296909617909455825160208082018a905291881693810193909352908201859052828252875192820192909252865188937fc90825528edadcc19b4719354e63fb57b1e7d378e1ed2d11a3df71861b3b2dbf9389938993899389938392918301919088019080838360005b8381101561145f578181015183820152602001611447565b50505050905090810190601f16801561148c5780820380516001836020036101000a031916815260200191505b509550505050505060405180910390a25050505050565b62278d0081565b6000818152602081905260408120610ede906116f3565b6000828152602081905260409020600201546114df90610b136115fc565b610bb85760405162461bcd60e51b8152600401808060200182810382526030815260200180611ab96030913960400191505060405180910390fd5b6000610edb836001600160a01b0384166116fe565b60009081526002602081905260409091200154151590565b600154604080517faafd5e400000000000000000000000000000000000000000000000000000000081527f4f7074696d69737469634f7261636c6500000000000000000000000000000000600482015290516000926001600160a01b03169163aafd5e40916024808301926020929190829003018186803b1580156115cb57600080fd5b505afa1580156115df573d6000803e3d6000fd5b505050506040513d60208110156115f557600080fd5b5051905090565b3390565b6000828152602081905260409020611618908261151a565b15610b5d576116256115fc565b6001600160a01b0316816001600160a01b0316837f2f8788117e7eff1d82e926ec794901d17c78024a50270940304540a733656f0d60405160405180910390a45050565b60008281526020819052604090206116819082611748565b15610b5d5761168e6115fc565b6001600160a01b0316816001600160a01b0316837ff6391f5c32d9c69d2a47ea670b442974b53935d1edc7fd64eb21e047a839171b60405160405180910390a45050565b6000610edb838361175d565b6000610edb836001600160a01b0384166117c1565b6000610ede826117d9565b600061170a83836117c1565b61174057508154600181810184556000848152602080822090930184905584548482528286019093526040902091909155610ede565b506000610ede565b6000610edb836001600160a01b0384166117dd565b8154600090821061179f5760405162461bcd60e51b81526004018080602001828103825260228152602001806119456022913960400191505060405180910390fd5b8260000182815481106117ae57fe5b9060005260206000200154905092915050565b60009081526001919091016020526040902054151590565b5490565b60008181526001830160205260408120548015611899578354600019808301919081019060009087908390811061181057fe5b906000526020600020015490508087600001848154811061182d57fe5b60009182526020808320909101929092558281526001898101909252604090209084019055865487908061185d57fe5b60019003818190600052602060002001600090559055866001016000878152602001908152602001600020600090556001945050505050610ede565b6000915050610ede565b828054600181600116156101000203166002900490600052602060002090601f0160209004810192826118d9576000855561191f565b82601f106118f257805160ff191683800117855561191f565b8280016001018555821561191f579182015b8281111561191f578251825591602001919060010190611904565b5061192b92915061192f565b5090565b5b8082111561192b576000815560010161193056fe456e756d657261626c655365743a20696e646578206f7574206f6620626f756e6473416363657373436f6e74726f6c3a2073656e646572206d75737420626520616e2061646d696e20746f206772616e74416461707465723a3a7265706f72745061796f7574733a20496e76616c6964207265736f6c7574696f6e2064617461416461707465723a3a726571756573745265736f6c7574696f6e446174613a205175657374696f6e206e6f7420726561647920746f206265207265736f6c766564416461707465723a3a7265706f72745061796f7574733a207175657374696f6e4944206e6f7420726561647920746f207265706f7274207061796f757473416461707465723a3a656d657267656e63795265706f72745061796f7574733a207175657374696f6e4944206973206e6f7420696e697469616c697a6564416461707465723a3a656d657267656e63795265706f72745061796f7574733a207061796f757473206d7573742062652062696e617279416363657373436f6e74726f6c3a2073656e646572206d75737420626520616e2061646d696e20746f207265766f6b65416461707465723a3a656d657267656e63795265706f72745061796f7574733a2073616665747920706572696f6420686173206e6f7420706173736564416461707465723a3a656d657267656e63795265706f72745061796f7574733a2063616c6c657220646f6573206e6f7420686176652061646d696e20726f6c65416461707465723a3a696e697469616c697a655175657374696f6e3a2063616c6c657220646f6573206e6f7420686176652061646d696e20726f6c65416461707465723a3a696e697469616c697a655175657374696f6e3a205175657374696f6e20616c726561647920696e697469616c697a6564416363657373436f6e74726f6c3a2063616e206f6e6c792072656e6f756e636520726f6c657320666f722073656c66a26469706673582212200395f7f348c59ef4bcd7fe6670dc390fec3c145dba929b7324379a928f2e93c164736f6c63430007050033",
  "devdoc": {
    "kind": "dev",
    "methods": {
      "emergencyReportPayouts(bytes32,uint256[])": {
        "params": {
          "questionID": "- The unique questionID of the condition"
        }
      },
      "getRoleAdmin(bytes32)": {
        "details": "Returns the admin role that controls `role`. See {grantRole} and {revokeRole}. To change a role's admin, use {_setRoleAdmin}."
      },
      "getRoleMember(bytes32,uint256)": {
        "details": "Returns one of the accounts that have `role`. `index` must be a value between 0 and {getRoleMemberCount}, non-inclusive. Role bearers are not sorted in any particular way, and their ordering may change at any point. WARNING: When using {getRoleMember} and {getRoleMemberCount}, make sure you perform all queries on the same block. See the following https://forum.openzeppelin.com/t/iterating-over-elements-on-enumerableset-in-openzeppelin-contracts/2296[forum post] for more information."
      },
      "getRoleMemberCount(bytes32)": {
        "details": "Returns the number of accounts that have `role`. Can be used together with {getRoleMember} to enumerate all bearers of a role."
      },
      "grantRole(bytes32,address)": {
        "details": "Grants `role` to `account`. If `account` had not been already granted `role`, emits a {RoleGranted} event. Requirements: - the caller must have ``role``'s admin role."
      },
      "hasRole(bytes32,address)": {
        "details": "Returns `true` if `account` has been granted `role`."
      },
      "initializeQuestion(bytes32,bytes,uint256,address,uint256)": {
        "params": {
          "ancillaryData": "- Holds data used to resolve a question",
          "questionID": "- The unique questionID of the condition",
          "resolutionTime": "- timestamp at which the Adapter can resolve a question",
          "reward": "- reward offered to a successful proposer",
          "rewardToken": "- ERC20 token address used for payment of rewards and fees"
        }
      },
      "readyToReportPayouts(bytes32)": {
        "params": {
          "questionID": "- The unique questionID of the condition"
        }
      },
      "readyToRequestResolution(bytes32)": {
        "params": {
          "questionID": "- The unique questionID of the condition"
        }
      },
      "renounceRole(bytes32,address)": {
        "details": "Revokes `role` from the calling account. Roles are often managed via {grantRole} and {revokeRole}: this function's purpose is to provide a mechanism for accounts to lose their privileges if they are compromised (such as when a trusted device is misplaced). If the calling account had been granted `role`, emits a {RoleRevoked} event. Requirements: - the caller must be `account`."
      },
      "reportPayouts(bytes32)": {
        "params": {
          "questionID": "- The unique questionID of the condition"
        }
      },
      "requestResolutionData(bytes32)": {
        "params": {
          "questionID": "- The unique questionID of the condition"
        }
      },
      "revokeRole(bytes32,address)": {
        "details": "Revokes `role` from `account`. If `account` had been granted `role`, emits a {RoleRevoked} event. Requirements: - the caller must have ``role``'s admin role."
      }
    },
    "title": "UmaConditionalTokensBinaryAdapter",
    "version": 1
  },
  "userdoc": {
    "kind": "user",
    "methods": {
      "emergencyReportPayouts(bytes32,uint256[])": {
        "notice": "Allows an admin to report payouts in an emergency"
      },
      "initializeQuestion(bytes32,bytes,uint256,address,uint256)": {
        "notice": "Initializes a question on the Adapter to report on. Once initialized, the resolution conditions may not be changed."
      },
      "readyToReportPayouts(bytes32)": {
        "notice": "Checks whether a questionID is ready to report payouts"
      },
      "readyToRequestResolution(bytes32)": {
        "notice": "- Checks whether or not a question can start the resolution process"
      },
      "reportPayouts(bytes32)": {
        "notice": "Can be called by anyone to resolve a condition"
      },
      "requestResolutionData(bytes32)": {
        "notice": "Called by anyone to request resolution data from the Optimistic Oracle"
      }
    },
    "notice": "allows a condition to be resolved via UMA's Optimistic Oracle",
    "version": 1
  },
  "storageLayout": {
    "storage": [
      {
        "astId": 22,
        "contract": "contracts/UmaConditionalTokensBinaryAdapter.sol:UmaConditionalTokensBinaryAdapter",
        "label": "_roles",
        "offset": 0,
        "slot": "0",
        "type": "t_mapping(t_bytes32,t_struct(RoleData)18_storage)"
      },
      {
        "astId": 2048,
        "contract": "contracts/UmaConditionalTokensBinaryAdapter.sol:UmaConditionalTokensBinaryAdapter",
        "label": "umaFinder",
        "offset": 0,
        "slot": "1",
        "type": "t_contract(FinderInterface)2585"
      },
      {
        "astId": 2076,
        "contract": "contracts/UmaConditionalTokensBinaryAdapter.sol:UmaConditionalTokensBinaryAdapter",
        "label": "questions",
        "offset": 0,
        "slot": "2",
        "type": "t_mapping(t_bytes32,t_struct(QuestionData)2072_storage)"
      }
    ],
    "types": {
      "t_address": {
        "encoding": "inplace",
        "label": "address",
        "numberOfBytes": "20"
      },
      "t_array(t_bytes32)dyn_storage": {
        "base": "t_bytes32",
        "encoding": "dynamic_array",
        "label": "bytes32[]",
        "numberOfBytes": "32"
      },
      "t_bool": {
        "encoding": "inplace",
        "label": "bool",
        "numberOfBytes": "1"
      },
      "t_bytes32": {
        "encoding": "inplace",
        "label": "bytes32",
        "numberOfBytes": "32"
      },
      "t_bytes_storage": {
        "encoding": "bytes",
        "label": "bytes",
        "numberOfBytes": "32"
      },
      "t_contract(FinderInterface)2585": {
        "encoding": "inplace",
        "label": "contract FinderInterface",
        "numberOfBytes": "20"
      },
      "t_mapping(t_bytes32,t_struct(QuestionData)2072_storage)": {
        "encoding": "mapping",
        "key": "t_bytes32",
        "label": "mapping(bytes32 => struct UmaConditionalTokensBinaryAdapter.QuestionData)",
        "numberOfBytes": "32",
        "value": "t_struct(QuestionData)2072_storage"
      },
      "t_mapping(t_bytes32,t_struct(RoleData)18_storage)": {
        "encoding": "mapping",
        "key": "t_bytes32",
        "label": "mapping(bytes32 => struct AccessControl.RoleData)",
        "numberOfBytes": "32",
        "value": "t_struct(RoleData)18_storage"
      },
      "t_mapping(t_bytes32,t_uint256)": {
        "encoding": "mapping",
        "key": "t_bytes32",
        "label": "mapping(bytes32 => uint256)",
        "numberOfBytes": "32",
        "value": "t_uint256"
      },
      "t_struct(AddressSet)1813_storage": {
        "encoding": "inplace",
        "label": "struct EnumerableSet.AddressSet",
        "members": [
          {
            "astId": 1812,
            "contract": "contracts/UmaConditionalTokensBinaryAdapter.sol:UmaConditionalTokensBinaryAdapter",
            "label": "_inner",
            "offset": 0,
            "slot": "0",
            "type": "t_struct(Set)1548_storage"
          }
        ],
        "numberOfBytes": "64"
      },
      "t_struct(QuestionData)2072_storage": {
        "encoding": "inplace",
        "label": "struct UmaConditionalTokensBinaryAdapter.QuestionData",
        "members": [
          {
            "astId": 2059,
            "contract": "contracts/UmaConditionalTokensBinaryAdapter.sol:UmaConditionalTokensBinaryAdapter",
            "label": "questionID",
            "offset": 0,
            "slot": "0",
            "type": "t_bytes32"
          },
          {
            "astId": 2061,
            "contract": "contracts/UmaConditionalTokensBinaryAdapter.sol:UmaConditionalTokensBinaryAdapter",
            "label": "ancillaryData",
            "offset": 0,
            "slot": "1",
            "type": "t_bytes_storage"
          },
          {
            "astId": 2063,
            "contract": "contracts/UmaConditionalTokensBinaryAdapter.sol:UmaConditionalTokensBinaryAdapter",
            "label": "resolutionTime",
            "offset": 0,
            "slot": "2",
            "type": "t_uint256"
          },
          {
            "astId": 2065,
            "contract": "contracts/UmaConditionalTokensBinaryAdapter.sol:UmaConditionalTokensBinaryAdapter",
            "label": "rewardToken",
            "offset": 0,
            "slot": "3",
            "type": "t_address"
          },
          {
            "astId": 2067,
            "contract": "contracts/UmaConditionalTokensBinaryAdapter.sol:UmaConditionalTokensBinaryAdapter",
            "label": "reward",
            "offset": 0,
            "slot": "4",
            "type": "t_uint256"
          },
          {
            "astId": 2069,
            "contract": "contracts/UmaConditionalTokensBinaryAdapter.sol:UmaConditionalTokensBinaryAdapter",
            "label": "resolutionDataRequested",
            "offset": 0,
            "slot": "5",
            "type": "t_bool"
          },
          {
            "astId": 2071,
            "contract": "contracts/UmaConditionalTokensBinaryAdapter.sol:UmaConditionalTokensBinaryAdapter",
            "label": "resolved",
            "offset": 1,
            "slot": "5",
            "type": "t_bool"
          }
        ],
        "numberOfBytes": "192"
      },
      "t_struct(RoleData)18_storage": {
        "encoding": "inplace",
        "label": "struct AccessControl.RoleData",
        "members": [
          {
            "astId": 15,
            "contract": "contracts/UmaConditionalTokensBinaryAdapter.sol:UmaConditionalTokensBinaryAdapter",
            "label": "members",
            "offset": 0,
            "slot": "0",
            "type": "t_struct(AddressSet)1813_storage"
          },
          {
            "astId": 17,
            "contract": "contracts/UmaConditionalTokensBinaryAdapter.sol:UmaConditionalTokensBinaryAdapter",
            "label": "adminRole",
            "offset": 0,
            "slot": "2",
            "type": "t_bytes32"
          }
        ],
        "numberOfBytes": "96"
      },
      "t_struct(Set)1548_storage": {
        "encoding": "inplace",
        "label": "struct EnumerableSet.Set",
        "members": [
          {
            "astId": 1543,
            "contract": "contracts/UmaConditionalTokensBinaryAdapter.sol:UmaConditionalTokensBinaryAdapter",
            "label": "_values",
            "offset": 0,
            "slot": "0",
            "type": "t_array(t_bytes32)dyn_storage"
          },
          {
            "astId": 1547,
            "contract": "contracts/UmaConditionalTokensBinaryAdapter.sol:UmaConditionalTokensBinaryAdapter",
            "label": "_indexes",
            "offset": 0,
            "slot": "1",
            "type": "t_mapping(t_bytes32,t_uint256)"
          }
        ],
        "numberOfBytes": "64"
      },
      "t_uint256": {
        "encoding": "inplace",
        "label": "uint256",
        "numberOfBytes": "32"
      }
    }
  }
}