{
  "address": "0x3549A6e441f1EC5740d8A5941e5Afe111a40238A",
  "abi": [
    {
      "inputs": [
        {
          "internalType": "address",
          "name": "conditionalTokenAddress",
          "type": "address"
        },
        {
          "internalType": "address",
          "name": "umaFinderAddress",
          "type": "address"
        }
      ],
      "stateMutability": "nonpayable",
      "type": "constructor"
    },
    {
      "anonymous": false,
      "inputs": [
        {
          "indexed": true,
          "internalType": "bytes32",
          "name": "questionID",
          "type": "bytes32"
        },
        {
          "indexed": false,
          "internalType": "bytes",
          "name": "ancillaryData",
          "type": "bytes"
        },
        {
          "indexed": false,
          "internalType": "uint256",
          "name": "resolutionTime",
          "type": "uint256"
        },
        {
          "indexed": false,
          "internalType": "address",
          "name": "rewardToken",
          "type": "address"
        },
        {
          "indexed": false,
          "internalType": "uint256",
          "name": "reward",
          "type": "uint256"
        },
        {
          "indexed": false,
          "internalType": "uint256",
          "name": "proposalBond",
          "type": "uint256"
        }
      ],
      "name": "QuestionInitialized",
      "type": "event"
    },
    {
      "anonymous": false,
      "inputs": [
        {
          "indexed": false,
          "internalType": "bytes32",
          "name": "questionID",
          "type": "bytes32"
        }
      ],
      "name": "QuestionPaused",
      "type": "event"
    },
    {
      "anonymous": false,
      "inputs": [
        {
          "indexed": true,
          "internalType": "bytes32",
          "name": "questionID",
          "type": "bytes32"
        },
        {
          "indexed": true,
          "internalType": "bool",
          "name": "emergencyReport",
          "type": "bool"
        }
      ],
      "name": "QuestionResolved",
      "type": "event"
    },
    {
      "anonymous": false,
      "inputs": [
        {
          "indexed": true,
          "internalType": "bytes32",
          "name": "questionID",
          "type": "bytes32"
        }
      ],
      "name": "QuestionSettled",
      "type": "event"
    },
    {
      "anonymous": false,
      "inputs": [
        {
          "indexed": false,
          "internalType": "bytes32",
          "name": "questionID",
          "type": "bytes32"
        }
      ],
      "name": "QuestionUnpaused",
      "type": "event"
    },
    {
      "anonymous": false,
      "inputs": [
        {
          "indexed": true,
          "internalType": "bytes32",
          "name": "identifier",
          "type": "bytes32"
        },
        {
          "indexed": true,
          "internalType": "uint256",
          "name": "timestamp",
          "type": "uint256"
        },
        {
          "indexed": true,
          "internalType": "bytes32",
          "name": "questionID",
          "type": "bytes32"
        },
        {
          "indexed": false,
          "internalType": "bytes",
          "name": "ancillaryData",
          "type": "bytes"
        },
        {
          "indexed": false,
          "internalType": "address",
          "name": "rewardToken",
          "type": "address"
        },
        {
          "indexed": false,
          "internalType": "uint256",
          "name": "reward",
          "type": "uint256"
        },
        {
          "indexed": false,
          "internalType": "uint256",
          "name": "proposalBond",
          "type": "uint256"
        }
      ],
      "name": "ResolutionDataRequested",
      "type": "event"
    },
    {
      "anonymous": false,
      "inputs": [
        {
          "indexed": true,
          "internalType": "bytes32",
          "name": "role",
          "type": "bytes32"
        },
        {
          "indexed": true,
          "internalType": "bytes32",
          "name": "previousAdminRole",
          "type": "bytes32"
        },
        {
          "indexed": true,
          "internalType": "bytes32",
          "name": "newAdminRole",
          "type": "bytes32"
        }
      ],
      "name": "RoleAdminChanged",
      "type": "event"
    },
    {
      "anonymous": false,
      "inputs": [
        {
          "indexed": true,
          "internalType": "bytes32",
          "name": "role",
          "type": "bytes32"
        },
        {
          "indexed": true,
          "internalType": "address",
          "name": "account",
          "type": "address"
        },
        {
          "indexed": true,
          "internalType": "address",
          "name": "sender",
          "type": "address"
        }
      ],
      "name": "RoleGranted",
      "type": "event"
    },
    {
      "anonymous": false,
      "inputs": [
        {
          "indexed": true,
          "internalType": "bytes32",
          "name": "role",
          "type": "bytes32"
        },
        {
          "indexed": true,
          "internalType": "address",
          "name": "account",
          "type": "address"
        },
        {
          "indexed": true,
          "internalType": "address",
          "name": "sender",
          "type": "address"
        }
      ],
      "name": "RoleRevoked",
      "type": "event"
    },
    {
      "inputs": [],
      "name": "DEFAULT_ADMIN_ROLE",
      "outputs": [
        {
          "internalType": "bytes32",
          "name": "",
          "type": "bytes32"
        }
      ],
      "stateMutability": "view",
      "type": "function"
    },
    {
      "inputs": [],
      "name": "conditionalTokenContract",
      "outputs": [
        {
          "internalType": "contract IConditionalTokens",
          "name": "",
          "type": "address"
        }
      ],
      "stateMutability": "view",
      "type": "function"
    },
    {
      "inputs": [
        {
          "internalType": "bytes32",
          "name": "questionID",
          "type": "bytes32"
        },
        {
          "internalType": "uint256[]",
          "name": "payouts",
          "type": "uint256[]"
        }
      ],
      "name": "emergencyReportPayouts",
      "outputs": [],
      "stateMutability": "nonpayable",
      "type": "function"
    },
    {
      "inputs": [],
      "name": "emergencySafetyPeriod",
      "outputs": [
        {
          "internalType": "uint256",
          "name": "",
          "type": "uint256"
        }
      ],
      "stateMutability": "view",
      "type": "function"
    },
    {
      "inputs": [
        {
          "internalType": "bytes32",
          "name": "questionID",
          "type": "bytes32"
        }
      ],
      "name": "getExpectedPayouts",
      "outputs": [
        {
          "internalType": "uint256[]",
          "name": "",
          "type": "uint256[]"
        }
      ],
      "stateMutability": "view",
      "type": "function"
    },
    {
      "inputs": [
        {
          "internalType": "bytes32",
          "name": "role",
          "type": "bytes32"
        }
      ],
      "name": "getRoleAdmin",
      "outputs": [
        {
          "internalType": "bytes32",
          "name": "",
          "type": "bytes32"
        }
      ],
      "stateMutability": "view",
      "type": "function"
    },
    {
      "inputs": [
        {
          "internalType": "bytes32",
          "name": "role",
          "type": "bytes32"
        },
        {
          "internalType": "address",
          "name": "account",
          "type": "address"
        }
      ],
      "name": "grantRole",
      "outputs": [],
      "stateMutability": "nonpayable",
      "type": "function"
    },
    {
      "inputs": [
        {
          "internalType": "bytes32",
          "name": "role",
          "type": "bytes32"
        },
        {
          "internalType": "address",
          "name": "account",
          "type": "address"
        }
      ],
      "name": "hasRole",
      "outputs": [
        {
          "internalType": "bool",
          "name": "",
          "type": "bool"
        }
      ],
      "stateMutability": "view",
      "type": "function"
    },
    {
      "inputs": [],
      "name": "identifier",
      "outputs": [
        {
          "internalType": "bytes32",
          "name": "",
          "type": "bytes32"
        }
      ],
      "stateMutability": "view",
      "type": "function"
    },
    {
      "inputs": [
        {
          "internalType": "bytes32",
          "name": "questionID",
          "type": "bytes32"
        },
        {
          "internalType": "bytes",
          "name": "ancillaryData",
          "type": "bytes"
        },
        {
          "internalType": "uint256",
          "name": "resolutionTime",
          "type": "uint256"
        },
        {
          "internalType": "address",
          "name": "rewardToken",
          "type": "address"
        },
        {
          "internalType": "uint256",
          "name": "reward",
          "type": "uint256"
        },
        {
          "internalType": "uint256",
          "name": "proposalBond",
          "type": "uint256"
        }
      ],
      "name": "initializeQuestion",
      "outputs": [],
      "stateMutability": "nonpayable",
      "type": "function"
    },
    {
      "inputs": [
        {
          "internalType": "bytes32",
          "name": "questionID",
          "type": "bytes32"
        }
      ],
      "name": "isQuestionInitialized",
      "outputs": [
        {
          "internalType": "bool",
          "name": "",
          "type": "bool"
        }
      ],
      "stateMutability": "view",
      "type": "function"
    },
    {
      "inputs": [
        {
          "internalType": "bytes32",
          "name": "questionID",
          "type": "bytes32"
        }
      ],
      "name": "pauseQuestion",
      "outputs": [],
      "stateMutability": "nonpayable",
      "type": "function"
    },
    {
      "inputs": [
        {
          "internalType": "bytes32",
          "name": "",
          "type": "bytes32"
        }
      ],
      "name": "questions",
      "outputs": [
        {
          "internalType": "bytes",
          "name": "ancillaryData",
          "type": "bytes"
        },
        {
          "internalType": "uint256",
          "name": "resolutionTime",
          "type": "uint256"
        },
        {
          "internalType": "address",
          "name": "rewardToken",
          "type": "address"
        },
        {
          "internalType": "uint256",
          "name": "reward",
          "type": "uint256"
        },
        {
          "internalType": "uint256",
          "name": "proposalBond",
          "type": "uint256"
        },
        {
          "internalType": "bool",
          "name": "resolutionDataRequested",
          "type": "bool"
        },
        {
          "internalType": "bool",
          "name": "resolved",
          "type": "bool"
        },
        {
          "internalType": "bool",
          "name": "paused",
          "type": "bool"
        },
        {
          "internalType": "uint256",
          "name": "settled",
          "type": "uint256"
        }
      ],
      "stateMutability": "view",
      "type": "function"
    },
    {
      "inputs": [
        {
          "internalType": "bytes32",
          "name": "questionID",
          "type": "bytes32"
        }
      ],
      "name": "readyToRequestResolution",
      "outputs": [
        {
          "internalType": "bool",
          "name": "",
          "type": "bool"
        }
      ],
      "stateMutability": "view",
      "type": "function"
    },
    {
      "inputs": [
        {
          "internalType": "bytes32",
          "name": "questionID",
          "type": "bytes32"
        }
      ],
      "name": "readyToSettle",
      "outputs": [
        {
          "internalType": "bool",
          "name": "",
          "type": "bool"
        }
      ],
      "stateMutability": "view",
      "type": "function"
    },
    {
      "inputs": [
        {
          "internalType": "bytes32",
          "name": "role",
          "type": "bytes32"
        },
        {
          "internalType": "address",
          "name": "account",
          "type": "address"
        }
      ],
      "name": "renounceRole",
      "outputs": [],
      "stateMutability": "nonpayable",
      "type": "function"
    },
    {
      "inputs": [
        {
          "internalType": "bytes32",
          "name": "questionID",
          "type": "bytes32"
        }
      ],
      "name": "reportPayouts",
      "outputs": [],
      "stateMutability": "nonpayable",
      "type": "function"
    },
    {
      "inputs": [
        {
          "internalType": "bytes32",
          "name": "questionID",
          "type": "bytes32"
        }
      ],
      "name": "requestResolutionData",
      "outputs": [],
      "stateMutability": "nonpayable",
      "type": "function"
    },
    {
      "inputs": [
        {
          "internalType": "bytes32",
          "name": "role",
          "type": "bytes32"
        },
        {
          "internalType": "address",
          "name": "account",
          "type": "address"
        }
      ],
      "name": "revokeRole",
      "outputs": [],
      "stateMutability": "nonpayable",
      "type": "function"
    },
    {
      "inputs": [
        {
          "internalType": "bytes32",
          "name": "questionID",
          "type": "bytes32"
        }
      ],
      "name": "settle",
      "outputs": [],
      "stateMutability": "nonpayable",
      "type": "function"
    },
    {
      "inputs": [
        {
          "internalType": "bytes4",
          "name": "interfaceId",
          "type": "bytes4"
        }
      ],
      "name": "supportsInterface",
      "outputs": [
        {
          "internalType": "bool",
          "name": "",
          "type": "bool"
        }
      ],
      "stateMutability": "view",
      "type": "function"
    },
    {
      "inputs": [],
      "name": "umaFinder",
      "outputs": [
        {
          "internalType": "contract FinderInterface",
          "name": "",
          "type": "address"
        }
      ],
      "stateMutability": "view",
      "type": "function"
    },
    {
      "inputs": [
        {
          "internalType": "bytes32",
          "name": "questionID",
          "type": "bytes32"
        }
      ],
      "name": "unPauseQuestion",
      "outputs": [],
      "stateMutability": "nonpayable",
      "type": "function"
    }
  ],
  "transactionHash": "0x24c239e2d4884b01e3c90c971b6240b8beccca4dade214c0c03f06a99e06e96b",
  "args": [
    "0x7D8610E9567d2a6C9FBf66a5A13E9Ba8bb120d43",
    "0xb22033fF04AD01fbE8d78ef4622a20626834271B"
  ],
  "solcInputHash": "2a6486cc00c2b06fc474e1a60e31d25c",
  "bytecode": "0x60a06040523480156200001157600080fd5b5060405162002c2438038062002c2483398101604081905262000034916200015a565b606082901b6001600160601b031916608052600180546001600160a01b0319166001600160a01b0383161790556200006e60003362000076565b505062000191565b62000082828262000086565b5050565b62000092828262000110565b62000082576000828152602081815260408083206001600160a01b03851684529091529020805460ff19166001179055620000cc62000139565b6001600160a01b0316816001600160a01b0316837f2f8788117e7eff1d82e926ec794901d17c78024a50270940304540a733656f0d60405160405180910390a45050565b6000918252602082815260408084206001600160a01b0393909316845291905290205460ff1690565b3390565b80516001600160a01b03811681146200015557600080fd5b919050565b600080604083850312156200016d578182fd5b62000178836200013d565b915062000188602084016200013d565b90509250929050565b60805160601c612a66620001be600039600081816104cb01528181610b480152610ffb0152612a666000f3fe608060405234801561001057600080fd5b506004361061018d5760003560e01c806386ec6288116100e3578063a39cc2991161008c578063cf7655e511610066578063cf7655e51461032b578063d547741f1461033e578063e8143999146103515761018d565b8063a39cc299146102fd578063be70547314610310578063c66d4c6c146103235761018d565b806395addb90116100bd57806395addb90146102ba578063987757dd146102e2578063a217fddf146102f55761018d565b806386ec62881461028c5780638b5dc5041461029f57806391d14854146102a75761018d565b80632f2ff15d116101455780633cc792651161011f5780633cc792651461025c57806370b9e9041461026f5780637998a1c4146102845761018d565b80632f2ff15d1461021657806334e5e28e1461022957806336568abe146102495761018d565b8063248a9ca311610176578063248a9ca3146101ce5780632654320c146101ee578063275180c0146102015761018d565b806301ffc9a714610192578063092149ed146101bb575b600080fd5b6101a56101a0366004611b98565b610364565b6040516101b29190611e9c565b60405180910390f35b6101a56101c9366004611a15565b6103c2565b6101e16101dc366004611a15565b6103d9565b6040516101b29190611ea7565b6101a56101fc366004611a15565b6103ee565b61021461020f366004611a15565b61045d565b005b610214610224366004611a2d565b610566565b61023c610237366004611a15565b61058f565b6040516101b29190611e89565b610214610257366004611a2d565b610892565b61021461026a366004611a15565b6108d8565b610277610b46565b6040516101b29190612068565b6101e1610b6a565b61021461029a366004611a15565b610b80565b610277610c2a565b6101a56102b5366004611a2d565b610c39565b6102cd6102c8366004611a15565b610c62565b6040516101b299989796959493929190611fcf565b6102146102f0366004611a15565b610d48565b6101e1610e9c565b61021461030b366004611a5c565b610ea1565b61021461031e366004611a15565b61109a565b6101e1611133565b610214610339366004611ad5565b61113a565b61021461034c366004611a2d565b61136c565b6101a561035f366004611a15565b61138b565b60007fffffffff0000000000000000000000000000000000000000000000000000000082167f7965db0b0000000000000000000000000000000000000000000000000000000014806103ba57506103ba826114c1565b90505b919050565b600090815260026020526040902060010154151590565b60009081526020819052604090206001015490565b60006103f9826103c2565b610405575060006103bd565b6000828152600260205260409020600581015460ff1615156001141561042f5760009150506103bd565b600581015460ff610100909104161515600114156104515760009150506103bd565b60010154421192915050565b6000818152600260205260408120906104758361058f565b9050816006015443116104a35760405162461bcd60e51b815260040161049a906126ac565b60405180910390fd5b60058201805461ff001916610100179055604051633124a62b60e21b81526001600160a01b037f0000000000000000000000000000000000000000000000000000000000000000169063c49298ac906105029086908590600401611f0a565b600060405180830381600087803b15801561051c57600080fd5b505af1158015610530573d6000803e3d6000fd5b5050604051600092508591507f5c3937ed929cd157b73b417381d743daf6e1ef65999e3ccb5dd64bc3247e28d6908390a3505050565b61056f826103d9565b6105808161057b61150b565b61150f565b61058a8383611573565b505050565b606061059a826103c2565b6105b65760405162461bcd60e51b815260040161049a90612595565b6000828152600260205260409020600581015460ff166105e85760405162461bcd60e51b815260040161049a90612121565b6005810154610100900460ff16156106125760405162461bcd60e51b815260040161049a9061278d565b60008160060154116106365760405162461bcd60e51b815260040161049a906123c4565b600581015462010000900460ff16156106615760405162461bcd60e51b815260040161049a90612287565b600061066b6115f8565b60018301546040517fa9904f9b0000000000000000000000000000000000000000000000000000000081529192506000916001600160a01b0384169163a9904f9b916106d29130916e5945535f4f525f4e4f5f515545525960881b91908990600401611e38565b6101806040518083038186803b1580156106eb57600080fd5b505afa1580156106ff573d6000803e3d6000fd5b505050506040513d601f19601f820116820180604052508101906107239190611bd8565b60c0015160408051600280825260608201835292935060009290916020830190803683370190505090508115806107615750816706f05b59d3b20000145b80610773575081670de0b6b3a7640000145b61078f5760405162461bcd60e51b815260040161049a906121a4565b816107f7576000816000815181106107b757634e487b7160e01b600052603260045260246000fd5b6020026020010181815250506001816001815181106107e657634e487b7160e01b600052603260045260246000fd5b602002602001018181525050610889565b816706f05b59d3b20000141561082a576001816000815181106107b757634e487b7160e01b600052603260045260246000fd5b60018160008151811061084d57634e487b7160e01b600052603260045260246000fd5b60200260200101818152505060008160018151811061087c57634e487b7160e01b600052603260045260246000fd5b6020026020010181815250505b95945050505050565b61089a61150b565b6001600160a01b0316816001600160a01b0316146108ca5760405162461bcd60e51b815260040161049a906128a4565b6108d48282611607565b5050565b6108e1816103ee565b6108fd5760405162461bcd60e51b815260040161049a906122e4565b6000818152600260205260409020600581015462010000900460ff16156109365760405162461bcd60e51b815260040161049a90612847565b60006109406115f8565b60058301805460ff1916600190811790915583015460028401546003850154600486015460405194955087946e5945535f4f525f4e4f5f515545525960881b937f505a8922cc269f3f7ae38e83d512e88b4cd544595179cc34c099e373d2674f59936109b9938a936001600160a01b0390931692612030565b60405180910390a46001820154600283015460038401546040517f11df92f10000000000000000000000000000000000000000000000000000000081526001600160a01b03808616946311df92f194610a2f946e5945535f4f525f4e4f5f515545525960881b9492938a93921691600401611f23565b602060405180830381600087803b158015610a4957600080fd5b505af1158015610a5d573d6000803e3d6000fd5b505050506040513d601f19601f82011682018060405250810190610a819190611c98565b5060048201541561058a5760018201546004808401546040517fad5a755a0000000000000000000000000000000000000000000000000000000081526001600160a01b0385169363ad5a755a93610aee936e5945535f4f525f4e4f5f515545525960881b93899201611f5f565b602060405180830381600087803b158015610b0857600080fd5b505af1158015610b1c573d6000803e3d6000fd5b505050506040513d601f19601f82011682018060405250810190610b409190611c98565b50505050565b7f000000000000000000000000000000000000000000000000000000000000000081565b6e5945535f4f525f4e4f5f515545525960881b81565b610b8b600033610c39565b610ba75760405162461bcd60e51b815260040161049a9061208f565b610bb0816103c2565b610bcc5760405162461bcd60e51b815260040161049a9061222a565b6000818152600260205260409081902060058101805462ff000019166201000017905590517f6ded7250a9d5f79aef5add44600fc20a74a0af6f4730baa4fc4ab87bf484b81290610c1e908490611ea7565b60405180910390a15050565b6001546001600160a01b031681565b6000918252602082815260408084206001600160a01b0393909316845291905290205460ff1690565b600260205260009081526040902080548190610c7d906129b1565b80601f0160208091040260200160405190810160405280929190818152602001828054610ca9906129b1565b8015610cf65780601f10610ccb57610100808354040283529160200191610cf6565b820191906000526020600020905b815481529060010190602001808311610cd957829003601f168201915b50505060018401546002850154600386015460048701546005880154600690980154969793966001600160a01b0390931695509093509160ff8082169261010083048216926201000090049091169089565b610d518161138b565b610d6d5760405162461bcd60e51b815260040161049a9061264f565b6000818152600260205260409020600581015462010000900460ff1615610da65760405162461bcd60e51b815260040161049a906124db565b6000610db06115f8565b43600684015560018301546040517f5e9a79a90000000000000000000000000000000000000000000000000000000081529192506001600160a01b03831691635e9a79a991610e199130916e5945535f4f525f4e4f5f515545525960881b918890600401611e38565b602060405180830381600087803b158015610e3357600080fd5b505af1158015610e47573d6000803e3d6000fd5b505050506040513d601f19601f82011682018060405250810190610e6b9190611c98565b5060405183907fd7e618e02913af732e9bbb7bad555e64867cf63058545af824177bede035337b90600090a2505050565b600081565b610eac600033610c39565b610ec85760405162461bcd60e51b815260040161049a9061272f565b610ed1836103c2565b610eed5760405162461bcd60e51b815260040161049a9061247e565b600083815260026020526040902060010154610f0d9062278d0090612937565b4211610f2b5760405162461bcd60e51b815260040161049a906125f2565b81816001818110610f4c57634e487b7160e01b600052603260045260246000fd5b9050602002013582826000818110610f7457634e487b7160e01b600052603260045260246000fd5b90506020020135610f859190612937565b600114610fa45760405162461bcd60e51b815260040161049a90612538565b60028114610fc45760405162461bcd60e51b815260040161049a90612538565b6000838152600260205260409081902060058101805461ff0019166101001790559051633124a62b60e21b81526001600160a01b037f0000000000000000000000000000000000000000000000000000000000000000169063c49298ac9061103490879087908790600401611eb0565b600060405180830381600087803b15801561104e57600080fd5b505af1158015611062573d6000803e3d6000fd5b5050604051600192508691507f5c3937ed929cd157b73b417381d743daf6e1ef65999e3ccb5dd64bc3247e28d690600090a350505050565b6110a5600033610c39565b6110c15760405162461bcd60e51b815260040161049a90612367565b6110ca816103c2565b6110e65760405162461bcd60e51b815260040161049a90612421565b6000818152600260205260409081902060058101805462ff00001916905590517f92d28918c5574e7fc0f4f948c39502682c81cfb4089b07b83f95b3264e5e5e0690610c1e908490611ea7565b62278d0081565b611143866103c2565b156111605760405162461bcd60e51b815260040161049a906127ea565b604080516101208101825286815260208082018790526001600160a01b038616828401526060820185905260808201849052600060a0830181905260c0830181905260e083018190526101008301819052898152600282529290922081518051929391926111d19284920190611920565b506020820151600182015560408201516002820180547fffffffffffffffffffffffff0000000000000000000000000000000000000000166001600160a01b03909216919091179055606082015160038201556080820151600482015560a082015160058201805460c085015160e086015160ff199092169315159390931761ff00191661010093151584021762ff00001916620100009115159190910217905590910151600690910155600061128661168a565b6040517f095ea7b30000000000000000000000000000000000000000000000000000000081529091506001600160a01b0385169063095ea7b3906112d09084908790600401611e70565b602060405180830381600087803b1580156112ea57600080fd5b505af11580156112fe573d6000803e3d6000fd5b505050506040513d601f19601f8201168201806040525081019061132291906119fb565b50867f5a6801fc8f8820ceb071609ea09438cbab61e56085a50d9a1e672d81aec0adda878787878760405161135b959493929190611f8f565b60405180910390a250505050505050565b611375826103d9565b6113818161057b61150b565b61058a8383611607565b6000611396826103c2565b6113a2575060006103bd565b6000828152600260205260409020600581015460ff166113c65760009150506103bd565b600581015460ff610100909104161515600114156113e85760009150506103bd565b6006810154156113fc5760009150506103bd565b60006114066115f8565b60018301546040517fbc58ccaa0000000000000000000000000000000000000000000000000000000081529192506001600160a01b0383169163bc58ccaa916114699130916e5945535f4f525f4e4f5f515545525960881b918890600401611e38565b60206040518083038186803b15801561148157600080fd5b505afa158015611495573d6000803e3d6000fd5b505050506040513d601f19601f820116820180604052508101906114b991906119fb565b949350505050565b7fffffffff0000000000000000000000000000000000000000000000000000000081167f01ffc9a70000000000000000000000000000000000000000000000000000000014919050565b3390565b6115198282610c39565b6108d457611531816001600160a01b03166014611722565b61153c836020611722565b60405160200161154d929190611db7565b60408051601f198184030181529082905262461bcd60e51b825261049a9160040161207c565b61157d8282610c39565b6108d4576000828152602081815260408083206001600160a01b03851684529091529020805460ff191660011790556115b461150b565b6001600160a01b0316816001600160a01b0316837f2f8788117e7eff1d82e926ec794901d17c78024a50270940304540a733656f0d60405160405180910390a45050565b600061160261168a565b905090565b6116118282610c39565b156108d4576000828152602081815260408083206001600160a01b03851684529091529020805460ff1916905561164661150b565b6001600160a01b0316816001600160a01b0316837ff6391f5c32d9c69d2a47ea670b442974b53935d1edc7fd64eb21e047a839171b60405160405180910390a45050565b6001546040517faafd5e400000000000000000000000000000000000000000000000000000000081526000916001600160a01b03169063aafd5e40906116d290600401612201565b60206040518083038186803b1580156116ea57600080fd5b505afa1580156116fe573d6000803e3d6000fd5b505050506040513d601f19601f8201168201806040525081019061160291906119df565b6060600061173183600261294f565b61173c906002612937565b67ffffffffffffffff81111561176257634e487b7160e01b600052604160045260246000fd5b6040519080825280601f01601f19166020018201604052801561178c576020820181803683370190505b5090507f3000000000000000000000000000000000000000000000000000000000000000816000815181106117d157634e487b7160e01b600052603260045260246000fd5b60200101906001600160f81b031916908160001a9053507f78000000000000000000000000000000000000000000000000000000000000008160018151811061182a57634e487b7160e01b600052603260045260246000fd5b60200101906001600160f81b031916908160001a905350600061184e84600261294f565b611859906001612937565b90505b60018111156118fa577f303132333435363738396162636465660000000000000000000000000000000085600f16601081106118a857634e487b7160e01b600052603260045260246000fd5b1a60f81b8282815181106118cc57634e487b7160e01b600052603260045260246000fd5b60200101906001600160f81b031916908160001a90535060049490941c936118f38161299a565b905061185c565b5083156119195760405162461bcd60e51b815260040161049a906120ec565b9392505050565b82805461192c906129b1565b90600052602060002090601f01602090048101928261194e5760008555611994565b82601f1061196757805160ff1916838001178555611994565b82800160010185558215611994579182015b82811115611994578251825591602001919060010190611979565b506119a09291506119a4565b5090565b5b808211156119a057600081556001016119a5565b80356103bd81612a18565b80516103bd81612a18565b805180151581146103bd57600080fd5b6000602082840312156119f0578081fd5b815161191981612a18565b600060208284031215611a0c578081fd5b611919826119cf565b600060208284031215611a26578081fd5b5035919050565b60008060408385031215611a3f578081fd5b823591506020830135611a5181612a18565b809150509250929050565b600080600060408486031215611a70578081fd5b83359250602084013567ffffffffffffffff80821115611a8e578283fd5b818601915086601f830112611aa1578283fd5b813581811115611aaf578384fd5b8760208083028501011115611ac2578384fd5b6020830194508093505050509250925092565b60008060008060008060c08789031215611aed578182fd5b8635955060208088013567ffffffffffffffff80821115611b0c578485fd5b818a0191508a601f830112611b1f578485fd5b813581811115611b3157611b31612a02565b611b43601f8201601f19168501612901565b91508082528b84828501011115611b58578586fd5b8084840185840137810190920184905250945060408701359350611b7e606088016119b9565b92506080870135915060a087013590509295509295509295565b600060208284031215611ba9578081fd5b81357fffffffff0000000000000000000000000000000000000000000000000000000081168114611919578182fd5b6000610180808385031215611beb578182fd5b611bf481612901565b9050611bff836119c4565b8152611c0d602084016119c4565b6020820152611c1e604084016119c4565b6040820152611c2f606084016119cf565b6060820152611c40608084016119cf565b608082015260a0838101519082015260c0808401519082015260e08084015190820152610100808401519082015261012080840151908201526101408084015190820152610160928301519281019290925250919050565b600060208284031215611ca9578081fd5b5051919050565b6000815180845260208085019450808401835b83811015611cdf57815187529582019590820190600101611cc3565b509495945050505050565b60008151808452611d0281602086016020860161296e565b601f01601f19169290920160200192915050565b805460009060028104600180831680611d3057607f831692505b6020808410821415611d5057634e487b7160e01b86526022600452602486fd5b611d5a8489611ea7565b828015611d6e5760018114611d7f57611daa565b60ff19871682528282019750611daa565b611d888961292b565b60005b87811015611da457815484820152908601908401611d8b565b83019850505b5050505050505092915050565b60007f416363657373436f6e74726f6c3a206163636f756e742000000000000000000082528351611def81601785016020880161296e565b7f206973206d697373696e6720726f6c65200000000000000000000000000000006017918401918201528351611e2c81602884016020880161296e565b01602801949350505050565b60006001600160a01b038616825284602083015283604083015260806060830152611e666080830184611d16565b9695505050505050565b6001600160a01b03929092168252602082015260400190565b6000602082526119196020830184611cb0565b901515815260200190565b90815260200190565b6000848252604060208301528260408301527f07ffffffffffffffffffffffffffffffffffffffffffffffffffffffffffffff831115611eee578081fd5b6020830280856060850137919091016060019081529392505050565b6000838252604060208301526114b96040830184611cb0565b600086825285602083015260a06040830152611f4260a0830186611d16565b6001600160a01b0394909416606083015250608001529392505050565b600085825284602083015260806040830152611f7e6080830185611d16565b905082606083015295945050505050565b600060a08252611fa260a0830188611cea565b90508560208301526001600160a01b03851660408301528360608301528260808301529695505050505050565b6000610120808352611fe38184018d611cea565b602084019b909b5250506001600160a01b039790971660408801526060870195909552608086019390935290151560a0850152151560c0840152151560e083015261010090910152919050565b6000608082526120436080830187611d16565b6001600160a01b03959095166020830152506040810192909252606090910152919050565b6001600160a01b0391909116815260200190565b6000602082526119196020830184611cea565b60208082526037908201527f416461707465723a3a70617573655175657374696f6e3a2063616c6c6572206460408201527f6f6573206e6f7420686176652061646d696e20726f6c65000000000000000000606082015260800190565b6020808252818101527f537472696e67733a20686578206c656e67746820696e73756666696369656e74604082015260600190565b60208082526042908201527f416461707465723a3a67657445787065637465645061796f7574733a2072657360408201527f6f6c7574696f6e4461746120686173206e6f74206265656e207265717565737460608201527f6564000000000000000000000000000000000000000000000000000000000000608082015260a00190565b6020808252602f908201527f416461707465723a3a7265706f72745061796f7574733a20496e76616c69642060408201527f7265736f6c7574696f6e20646174610000000000000000000000000000000000606082015260800190565b7f4f7074696d69737469634f7261636c6500000000000000000000000000000000815260200190565b60208082526035908201527f416461707465723a3a70617573655175657374696f6e3a207175657374696f6e60408201527f4944206973206e6f7420696e697469616c697a65640000000000000000000000606082015260800190565b6020808252602f908201527f416461707465723a3a67657445787065637465645061796f7574733a2051756560408201527f7374696f6e206973207061757365640000000000000000000000000000000000606082015260800190565b60208082526041908201527f416461707465723a3a726571756573745265736f6c7574696f6e446174613a2060408201527f5175657374696f6e206e6f7420726561647920746f206265207265736f6c766560608201527f6400000000000000000000000000000000000000000000000000000000000000608082015260a00190565b60208082526039908201527f416461707465723a3a756e50617573655175657374696f6e3a2063616c6c657260408201527f20646f6573206e6f7420686176652061646d696e20726f6c6500000000000000606082015260800190565b60208082526036908201527f416461707465723a3a67657445787065637465645061796f7574733a2071756560408201527f7374696f6e4944206973206e6f7420736574746c656400000000000000000000606082015260800190565b60208082526037908201527f416461707465723a3a756e50617573655175657374696f6e3a2071756573746960408201527f6f6e4944206973206e6f7420696e697469616c697a6564000000000000000000606082015260800190565b6020808252603e908201527f416461707465723a3a656d657267656e63795265706f72745061796f7574733a60408201527f207175657374696f6e4944206973206e6f7420696e697469616c697a65640000606082015260800190565b60208082526023908201527f416461707465723a3a736574746c653a205175657374696f6e2069732070617560408201527f7365640000000000000000000000000000000000000000000000000000000000606082015260800190565b60208082526037908201527f416461707465723a3a656d657267656e63795265706f72745061796f7574733a60408201527f207061796f757473206d7573742062652062696e617279000000000000000000606082015260800190565b6020808252603a908201527f416461707465723a3a67657445787065637465645061796f7574733a2071756560408201527f7374696f6e4944206973206e6f7420696e697469616c697a6564000000000000606082015260800190565b6020808252603d908201527f416461707465723a3a656d657267656e63795265706f72745061796f7574733a60408201527f2073616665747920706572696f6420686173206e6f7420706173736564000000606082015260800190565b60208082526036908201527f416461707465723a3a736574746c653a207175657374696f6e4944206973206e60408201527f6f7420726561647920746f20626520736574746c656400000000000000000000606082015260800190565b60208082526050908201527f416461707465723a3a7265706f72745061796f7574733a20417474656d70746960408201527f6e6720746f20736574746c6520616e64207265706f72745061796f757473206960608201527f6e207468652073616d6520626c6f636b00000000000000000000000000000000608082015260a00190565b602080825260409082018190527f416461707465723a3a656d657267656e63795265706f72745061796f7574733a908201527f2063616c6c657220646f6573206e6f7420686176652061646d696e20726f6c65606082015260800190565b6020808252603b908201527f416461707465723a3a67657445787065637465645061796f7574733a2071756560408201527f7374696f6e494420697320616c7265616479207265736f6c7665640000000000606082015260800190565b60208082526039908201527f416461707465723a3a696e697469616c697a655175657374696f6e3a2051756560408201527f7374696f6e20616c726561647920696e697469616c697a656400000000000000606082015260800190565b60208082526032908201527f416461707465723a3a726571756573745265736f6c7574696f6e446174613a2060408201527f5175657374696f6e206973207061757365640000000000000000000000000000606082015260800190565b6020808252602f908201527f416363657373436f6e74726f6c3a2063616e206f6e6c792072656e6f756e636560408201527f20726f6c657320666f722073656c660000000000000000000000000000000000606082015260800190565b60405181810167ffffffffffffffff8111828210171561292357612923612a02565b604052919050565b60009081526020902090565b6000821982111561294a5761294a6129ec565b500190565b6000816000190483118215151615612969576129696129ec565b500290565b60005b83811015612989578181015183820152602001612971565b83811115610b405750506000910152565b6000816129a9576129a96129ec565b506000190190565b6002810460018216806129c557607f821691505b602082108114156129e657634e487b7160e01b600052602260045260246000fd5b50919050565b634e487b7160e01b600052601160045260246000fd5b634e487b7160e01b600052604160045260246000fd5b6001600160a01b0381168114612a2d57600080fd5b5056fea264697066735822122015d9619730bfd251a934996aa418bd58595284b4643153b49e26f0976aed0fbd64736f6c63430008000033",
  "devdoc": {
    "kind": "dev",
    "methods": {
      "emergencyReportPayouts(bytes32,uint256[])": {
        "params": {
          "questionID": "- The unique questionID of the question"
        }
      },
      "getExpectedPayouts(bytes32)": {
        "params": {
          "questionID": "- The unique questionID of the question"
        }
      },
      "getRoleAdmin(bytes32)": {
        "details": "Returns the admin role that controls `role`. See {grantRole} and {revokeRole}. To change a role's admin, use {_setRoleAdmin}."
      },
      "grantRole(bytes32,address)": {
        "details": "Grants `role` to `account`. If `account` had not been already granted `role`, emits a {RoleGranted} event. Requirements: - the caller must have ``role``'s admin role."
      },
      "hasRole(bytes32,address)": {
        "details": "Returns `true` if `account` has been granted `role`."
      },
      "initializeQuestion(bytes32,bytes,uint256,address,uint256,uint256)": {
        "params": {
          "ancillaryData": "- Holds data used to resolve a question",
          "proposalBond": "- Additional bond required to be posted by a price proposer and disputer",
          "questionID": "- The unique questionID of the question",
          "resolutionTime": "- Timestamp at which the Adapter can resolve a question",
          "reward": "- Reward offered to a successful proposer",
          "rewardToken": "- ERC20 token address used for payment of rewards and fees"
        }
      },
      "pauseQuestion(bytes32)": {
        "params": {
          "questionID": "- The unique questionID of the question"
        }
      },
      "readyToRequestResolution(bytes32)": {
        "params": {
          "questionID": "- The unique questionID of the question"
        }
      },
      "readyToSettle(bytes32)": {
        "params": {
          "questionID": "- The unique questionID of the question"
        }
      },
      "renounceRole(bytes32,address)": {
        "details": "Revokes `role` from the calling account. Roles are often managed via {grantRole} and {revokeRole}: this function's purpose is to provide a mechanism for accounts to lose their privileges if they are compromised (such as when a trusted device is misplaced). If the calling account had been granted `role`, emits a {RoleRevoked} event. Requirements: - the caller must be `account`."
      },
      "reportPayouts(bytes32)": {
        "params": {
          "questionID": "- The unique questionID of the question"
        }
      },
      "requestResolutionData(bytes32)": {
        "params": {
          "questionID": "- The unique questionID of the question"
        }
      },
      "revokeRole(bytes32,address)": {
        "details": "Revokes `role` from `account`. If `account` had been granted `role`, emits a {RoleRevoked} event. Requirements: - the caller must have ``role``'s admin role."
      },
      "settle(bytes32)": {
        "params": {
          "questionID": "- The unique questionID of the question"
        }
      },
      "supportsInterface(bytes4)": {
        "details": "See {IERC165-supportsInterface}."
      },
      "unPauseQuestion(bytes32)": {
        "params": {
          "questionID": "- The unique questionID of the question"
        }
      }
    },
    "title": "UmaConditionalTokensBinaryAdapter",
    "version": 1
  },
  "userdoc": {
    "kind": "user",
    "methods": {
      "emergencyReportPayouts(bytes32,uint256[])": {
        "notice": "Allows an admin to report payouts in an emergency"
      },
      "getExpectedPayouts(bytes32)": {
        "notice": "Can be called by anyone to retrieve the expected payout of a settled question"
      },
      "initializeQuestion(bytes32,bytes,uint256,address,uint256,uint256)": {
        "notice": "Initializes a question on the Adapter to report on"
      },
      "pauseQuestion(bytes32)": {
        "notice": "Allows an admin to pause market resolution in an emergency"
      },
      "readyToRequestResolution(bytes32)": {
        "notice": "- Checks whether or not a question can start the resolution process"
      },
      "readyToSettle(bytes32)": {
        "notice": "Checks whether a questionID is ready to be settled"
      },
      "reportPayouts(bytes32)": {
        "notice": "Can be called by anyone to resolve a question"
      },
      "requestResolutionData(bytes32)": {
        "notice": "Called by anyone to request resolution data from the Optimistic Oracle"
      },
      "settle(bytes32)": {
        "notice": "Can be called by anyone to settle/finalize the price of a question"
      },
      "unPauseQuestion(bytes32)": {
        "notice": "Allows an admin to unpause market resolution in an emergency"
      }
    },
    "notice": "allows a condition to be resolved via UMA's Optimistic Oracle",
    "version": 1
  },
  "storageLayout": {
    "storage": [
      {
        "astId": 24,
        "contract": "contracts/UmaConditionalTokensBinaryAdapter.sol:UmaConditionalTokensBinaryAdapter",
        "label": "_roles",
        "offset": 0,
        "slot": "0",
        "type": "t_mapping(t_bytes32,t_struct(RoleData)19_storage)"
      },
      {
        "astId": 1622,
        "contract": "contracts/UmaConditionalTokensBinaryAdapter.sol:UmaConditionalTokensBinaryAdapter",
        "label": "umaFinder",
        "offset": 0,
        "slot": "1",
        "type": "t_contract(FinderInterface)2474"
      },
      {
        "astId": 1652,
        "contract": "contracts/UmaConditionalTokensBinaryAdapter.sol:UmaConditionalTokensBinaryAdapter",
        "label": "questions",
        "offset": 0,
        "slot": "2",
        "type": "t_mapping(t_bytes32,t_struct(QuestionData)1647_storage)"
      }
    ],
    "types": {
      "t_address": {
        "encoding": "inplace",
        "label": "address",
        "numberOfBytes": "20"
      },
      "t_bool": {
        "encoding": "inplace",
        "label": "bool",
        "numberOfBytes": "1"
      },
      "t_bytes32": {
        "encoding": "inplace",
        "label": "bytes32",
        "numberOfBytes": "32"
      },
      "t_bytes_storage": {
        "encoding": "bytes",
        "label": "bytes",
        "numberOfBytes": "32"
      },
      "t_contract(FinderInterface)2474": {
        "encoding": "inplace",
        "label": "contract FinderInterface",
        "numberOfBytes": "20"
      },
      "t_mapping(t_address,t_bool)": {
        "encoding": "mapping",
        "key": "t_address",
        "label": "mapping(address => bool)",
        "numberOfBytes": "32",
        "value": "t_bool"
      },
      "t_mapping(t_bytes32,t_struct(QuestionData)1647_storage)": {
        "encoding": "mapping",
        "key": "t_bytes32",
        "label": "mapping(bytes32 => struct UmaConditionalTokensBinaryAdapter.QuestionData)",
        "numberOfBytes": "32",
        "value": "t_struct(QuestionData)1647_storage"
      },
      "t_mapping(t_bytes32,t_struct(RoleData)19_storage)": {
        "encoding": "mapping",
        "key": "t_bytes32",
        "label": "mapping(bytes32 => struct AccessControl.RoleData)",
        "numberOfBytes": "32",
        "value": "t_struct(RoleData)19_storage"
      },
      "t_struct(QuestionData)1647_storage": {
        "encoding": "inplace",
        "label": "struct UmaConditionalTokensBinaryAdapter.QuestionData",
        "members": [
          {
            "astId": 1630,
            "contract": "contracts/UmaConditionalTokensBinaryAdapter.sol:UmaConditionalTokensBinaryAdapter",
            "label": "ancillaryData",
            "offset": 0,
            "slot": "0",
            "type": "t_bytes_storage"
          },
          {
            "astId": 1632,
            "contract": "contracts/UmaConditionalTokensBinaryAdapter.sol:UmaConditionalTokensBinaryAdapter",
            "label": "resolutionTime",
            "offset": 0,
            "slot": "1",
            "type": "t_uint256"
          },
          {
            "astId": 1634,
            "contract": "contracts/UmaConditionalTokensBinaryAdapter.sol:UmaConditionalTokensBinaryAdapter",
            "label": "rewardToken",
            "offset": 0,
            "slot": "2",
            "type": "t_address"
          },
          {
            "astId": 1636,
            "contract": "contracts/UmaConditionalTokensBinaryAdapter.sol:UmaConditionalTokensBinaryAdapter",
            "label": "reward",
            "offset": 0,
            "slot": "3",
            "type": "t_uint256"
          },
          {
            "astId": 1638,
            "contract": "contracts/UmaConditionalTokensBinaryAdapter.sol:UmaConditionalTokensBinaryAdapter",
            "label": "proposalBond",
            "offset": 0,
            "slot": "4",
            "type": "t_uint256"
          },
          {
            "astId": 1640,
            "contract": "contracts/UmaConditionalTokensBinaryAdapter.sol:UmaConditionalTokensBinaryAdapter",
            "label": "resolutionDataRequested",
            "offset": 0,
            "slot": "5",
            "type": "t_bool"
          },
          {
            "astId": 1642,
            "contract": "contracts/UmaConditionalTokensBinaryAdapter.sol:UmaConditionalTokensBinaryAdapter",
            "label": "resolved",
            "offset": 1,
            "slot": "5",
            "type": "t_bool"
          },
          {
            "astId": 1644,
            "contract": "contracts/UmaConditionalTokensBinaryAdapter.sol:UmaConditionalTokensBinaryAdapter",
            "label": "paused",
            "offset": 2,
            "slot": "5",
            "type": "t_bool"
          },
          {
            "astId": 1646,
            "contract": "contracts/UmaConditionalTokensBinaryAdapter.sol:UmaConditionalTokensBinaryAdapter",
            "label": "settled",
            "offset": 0,
            "slot": "6",
            "type": "t_uint256"
          }
        ],
        "numberOfBytes": "224"
      },
      "t_struct(RoleData)19_storage": {
        "encoding": "inplace",
        "label": "struct AccessControl.RoleData",
        "members": [
          {
            "astId": 16,
            "contract": "contracts/UmaConditionalTokensBinaryAdapter.sol:UmaConditionalTokensBinaryAdapter",
            "label": "members",
            "offset": 0,
            "slot": "0",
            "type": "t_mapping(t_address,t_bool)"
          },
          {
            "astId": 18,
            "contract": "contracts/UmaConditionalTokensBinaryAdapter.sol:UmaConditionalTokensBinaryAdapter",
            "label": "adminRole",
            "offset": 0,
            "slot": "1",
            "type": "t_bytes32"
          }
        ],
        "numberOfBytes": "64"
      },
      "t_uint256": {
        "encoding": "inplace",
        "label": "uint256",
        "numberOfBytes": "32"
      }
    }
  }
}