{
  "address": "0x14aa3d1162821E21ef1C5a933F08467CD8cefAd5",
  "abi": [
    {
      "inputs": [
        {
          "internalType": "address",
          "name": "conditionalTokenAddress",
          "type": "address"
        },
        {
          "internalType": "address",
          "name": "umaFinderAddress",
          "type": "address"
        }
      ],
      "stateMutability": "nonpayable",
      "type": "constructor"
    },
    {
      "anonymous": false,
      "inputs": [
        {
          "indexed": true,
          "internalType": "bytes32",
          "name": "questionID",
          "type": "bytes32"
        },
        {
          "indexed": false,
          "internalType": "bytes",
          "name": "ancillaryData",
          "type": "bytes"
        },
        {
          "indexed": false,
          "internalType": "uint256",
          "name": "resolutionTime",
          "type": "uint256"
        },
        {
          "indexed": false,
          "internalType": "address",
          "name": "rewardToken",
          "type": "address"
        },
        {
          "indexed": false,
          "internalType": "uint256",
          "name": "reward",
          "type": "uint256"
        },
        {
          "indexed": false,
          "internalType": "uint256",
          "name": "proposalBond",
          "type": "uint256"
        }
      ],
      "name": "QuestionInitialized",
      "type": "event"
    },
    {
      "anonymous": false,
      "inputs": [
        {
          "indexed": true,
          "internalType": "bytes32",
          "name": "questionId",
          "type": "bytes32"
        },
        {
          "indexed": true,
          "internalType": "bool",
          "name": "emergencyReport",
          "type": "bool"
        }
      ],
      "name": "QuestionResolved",
      "type": "event"
    },
    {
      "anonymous": false,
      "inputs": [
        {
          "indexed": true,
          "internalType": "bytes32",
          "name": "identifier",
          "type": "bytes32"
        },
        {
          "indexed": true,
          "internalType": "uint256",
          "name": "timestamp",
          "type": "uint256"
        },
        {
          "indexed": true,
          "internalType": "bytes32",
          "name": "questionID",
          "type": "bytes32"
        },
        {
          "indexed": false,
          "internalType": "bytes",
          "name": "ancillaryData",
          "type": "bytes"
        },
        {
          "indexed": false,
          "internalType": "address",
          "name": "rewardToken",
          "type": "address"
        },
        {
          "indexed": false,
          "internalType": "uint256",
          "name": "reward",
          "type": "uint256"
        },
        {
          "indexed": false,
          "internalType": "uint256",
          "name": "proposalBond",
          "type": "uint256"
        }
      ],
      "name": "ResolutionDataRequested",
      "type": "event"
    },
    {
      "anonymous": false,
      "inputs": [
        {
          "indexed": true,
          "internalType": "bytes32",
          "name": "role",
          "type": "bytes32"
        },
        {
          "indexed": true,
          "internalType": "bytes32",
          "name": "previousAdminRole",
          "type": "bytes32"
        },
        {
          "indexed": true,
          "internalType": "bytes32",
          "name": "newAdminRole",
          "type": "bytes32"
        }
      ],
      "name": "RoleAdminChanged",
      "type": "event"
    },
    {
      "anonymous": false,
      "inputs": [
        {
          "indexed": true,
          "internalType": "bytes32",
          "name": "role",
          "type": "bytes32"
        },
        {
          "indexed": true,
          "internalType": "address",
          "name": "account",
          "type": "address"
        },
        {
          "indexed": true,
          "internalType": "address",
          "name": "sender",
          "type": "address"
        }
      ],
      "name": "RoleGranted",
      "type": "event"
    },
    {
      "anonymous": false,
      "inputs": [
        {
          "indexed": true,
          "internalType": "bytes32",
          "name": "role",
          "type": "bytes32"
        },
        {
          "indexed": true,
          "internalType": "address",
          "name": "account",
          "type": "address"
        },
        {
          "indexed": true,
          "internalType": "address",
          "name": "sender",
          "type": "address"
        }
      ],
      "name": "RoleRevoked",
      "type": "event"
    },
    {
      "inputs": [],
      "name": "DEFAULT_ADMIN_ROLE",
      "outputs": [
        {
          "internalType": "bytes32",
          "name": "",
          "type": "bytes32"
        }
      ],
      "stateMutability": "view",
      "type": "function"
    },
    {
      "inputs": [],
      "name": "conditionalTokenContract",
      "outputs": [
        {
          "internalType": "contract IConditionalTokens",
          "name": "",
          "type": "address"
        }
      ],
      "stateMutability": "view",
      "type": "function"
    },
    {
      "inputs": [
        {
          "internalType": "bytes32",
          "name": "questionID",
          "type": "bytes32"
        },
        {
          "internalType": "uint256[]",
          "name": "payouts",
          "type": "uint256[]"
        }
      ],
      "name": "emergencyReportPayouts",
      "outputs": [],
      "stateMutability": "nonpayable",
      "type": "function"
    },
    {
      "inputs": [],
      "name": "emergencySafetyPeriod",
      "outputs": [
        {
          "internalType": "uint256",
          "name": "",
          "type": "uint256"
        }
      ],
      "stateMutability": "view",
      "type": "function"
    },
    {
      "inputs": [
        {
          "internalType": "bytes32",
          "name": "role",
          "type": "bytes32"
        }
      ],
      "name": "getRoleAdmin",
      "outputs": [
        {
          "internalType": "bytes32",
          "name": "",
          "type": "bytes32"
        }
      ],
      "stateMutability": "view",
      "type": "function"
    },
    {
      "inputs": [
        {
          "internalType": "bytes32",
          "name": "role",
          "type": "bytes32"
        },
        {
          "internalType": "uint256",
          "name": "index",
          "type": "uint256"
        }
      ],
      "name": "getRoleMember",
      "outputs": [
        {
          "internalType": "address",
          "name": "",
          "type": "address"
        }
      ],
      "stateMutability": "view",
      "type": "function"
    },
    {
      "inputs": [
        {
          "internalType": "bytes32",
          "name": "role",
          "type": "bytes32"
        }
      ],
      "name": "getRoleMemberCount",
      "outputs": [
        {
          "internalType": "uint256",
          "name": "",
          "type": "uint256"
        }
      ],
      "stateMutability": "view",
      "type": "function"
    },
    {
      "inputs": [
        {
          "internalType": "bytes32",
          "name": "role",
          "type": "bytes32"
        },
        {
          "internalType": "address",
          "name": "account",
          "type": "address"
        }
      ],
      "name": "grantRole",
      "outputs": [],
      "stateMutability": "nonpayable",
      "type": "function"
    },
    {
      "inputs": [
        {
          "internalType": "bytes32",
          "name": "role",
          "type": "bytes32"
        },
        {
          "internalType": "address",
          "name": "account",
          "type": "address"
        }
      ],
      "name": "hasRole",
      "outputs": [
        {
          "internalType": "bool",
          "name": "",
          "type": "bool"
        }
      ],
      "stateMutability": "view",
      "type": "function"
    },
    {
      "inputs": [],
      "name": "identifier",
      "outputs": [
        {
          "internalType": "bytes32",
          "name": "",
          "type": "bytes32"
        }
      ],
      "stateMutability": "view",
      "type": "function"
    },
    {
      "inputs": [
        {
          "internalType": "bytes32",
          "name": "questionID",
          "type": "bytes32"
        },
        {
          "internalType": "bytes",
          "name": "ancillaryData",
          "type": "bytes"
        },
        {
          "internalType": "uint256",
          "name": "resolutionTime",
          "type": "uint256"
        },
        {
          "internalType": "address",
          "name": "rewardToken",
          "type": "address"
        },
        {
          "internalType": "uint256",
          "name": "reward",
          "type": "uint256"
        },
        {
          "internalType": "uint256",
          "name": "proposalBond",
          "type": "uint256"
        }
      ],
      "name": "initializeQuestion",
      "outputs": [],
      "stateMutability": "nonpayable",
      "type": "function"
    },
    {
      "inputs": [
        {
          "internalType": "bytes32",
          "name": "questionID",
          "type": "bytes32"
        }
      ],
      "name": "isQuestionInitialized",
      "outputs": [
        {
          "internalType": "bool",
          "name": "",
          "type": "bool"
        }
      ],
      "stateMutability": "view",
      "type": "function"
    },
    {
      "inputs": [
        {
          "internalType": "bytes32",
          "name": "",
          "type": "bytes32"
        }
      ],
      "name": "questions",
      "outputs": [
        {
          "internalType": "bytes",
          "name": "ancillaryData",
          "type": "bytes"
        },
        {
          "internalType": "uint256",
          "name": "resolutionTime",
          "type": "uint256"
        },
        {
          "internalType": "address",
          "name": "rewardToken",
          "type": "address"
        },
        {
          "internalType": "uint256",
          "name": "reward",
          "type": "uint256"
        },
        {
          "internalType": "uint256",
          "name": "proposalBond",
          "type": "uint256"
        },
        {
          "internalType": "bool",
          "name": "resolutionDataRequested",
          "type": "bool"
        },
        {
          "internalType": "bool",
          "name": "resolved",
          "type": "bool"
        }
      ],
      "stateMutability": "view",
      "type": "function"
    },
    {
      "inputs": [
        {
          "internalType": "bytes32",
          "name": "questionID",
          "type": "bytes32"
        }
      ],
      "name": "readyToReportPayouts",
      "outputs": [
        {
          "internalType": "bool",
          "name": "",
          "type": "bool"
        }
      ],
      "stateMutability": "view",
      "type": "function"
    },
    {
      "inputs": [
        {
          "internalType": "bytes32",
          "name": "questionID",
          "type": "bytes32"
        }
      ],
      "name": "readyToRequestResolution",
      "outputs": [
        {
          "internalType": "bool",
          "name": "",
          "type": "bool"
        }
      ],
      "stateMutability": "view",
      "type": "function"
    },
    {
      "inputs": [
        {
          "internalType": "bytes32",
          "name": "role",
          "type": "bytes32"
        },
        {
          "internalType": "address",
          "name": "account",
          "type": "address"
        }
      ],
      "name": "renounceRole",
      "outputs": [],
      "stateMutability": "nonpayable",
      "type": "function"
    },
    {
      "inputs": [
        {
          "internalType": "bytes32",
          "name": "questionID",
          "type": "bytes32"
        }
      ],
      "name": "reportPayouts",
      "outputs": [],
      "stateMutability": "nonpayable",
      "type": "function"
    },
    {
      "inputs": [
        {
          "internalType": "bytes32",
          "name": "questionID",
          "type": "bytes32"
        }
      ],
      "name": "requestResolutionData",
      "outputs": [],
      "stateMutability": "nonpayable",
      "type": "function"
    },
    {
      "inputs": [
        {
          "internalType": "bytes32",
          "name": "role",
          "type": "bytes32"
        },
        {
          "internalType": "address",
          "name": "account",
          "type": "address"
        }
      ],
      "name": "revokeRole",
      "outputs": [],
      "stateMutability": "nonpayable",
      "type": "function"
    },
    {
      "inputs": [],
      "name": "umaFinder",
      "outputs": [
        {
          "internalType": "contract FinderInterface",
          "name": "",
          "type": "address"
        }
      ],
      "stateMutability": "view",
      "type": "function"
    }
  ],
  "transactionHash": "0x752b54928f002d624b60548c6e2e8087366ac6d67b08211cb4bc70a2a3a61f56",
  "args": [
    "0x7D8610E9567d2a6C9FBf66a5A13E9Ba8bb120d43",
    "0xb22033fF04AD01fbE8d78ef4622a20626834271B"
  ],
  "solcInputHash": "ee2c0dc095e126b12a08cb55b98fffbb",
  "bytecode": "0x60a06040523480156200001157600080fd5b5060405162001f9138038062001f91833981810160405260408110156200003757600080fd5b508051602090910151606082901b6001600160601b031916608052600180546001600160a01b0319166001600160a01b0383161790556200007a60003362000082565b505062000196565b6200008e828262000092565b5050565b600082815260208181526040909120620000b7918390620016f36200010b821b17901c565b156200008e57620000c76200012b565b6001600160a01b0316816001600160a01b0316837f2f8788117e7eff1d82e926ec794901d17c78024a50270940304540a733656f0d60405160405180910390a45050565b600062000122836001600160a01b0384166200012f565b90505b92915050565b3390565b60006200013d83836200017e565b620001755750815460018181018455600084815260208082209093018490558454848252828601909352604090209190915562000125565b50600062000125565b60009081526001919091016020526040902054151590565b60805160601c611dd3620001be60003980610a5f5280610fee52806113175250611dd36000f3fe608060405234801561001057600080fd5b506004361061016c5760003560e01c80638b5dc504116100cd578063a39cc29911610081578063ca15c87311610066578063ca15c87314610475578063cf7655e514610492578063d547741f146105595761016c565b8063a39cc299146103f6578063c66d4c6c1461046d5761016c565b806391d14854116100b257806391d14854146102f657806395addb9014610322578063a217fddf146103ee5761016c565b80638b5dc504146102cb5780639010d07c146102d35761016c565b80632f2ff15d116101245780633cc79265116101095780633cc792651461028257806370b9e9041461029f5780637998a1c4146102c35761016c565b80632f2ff15d1461022a57806336568abe146102565761016c565b8063248a9ca311610155578063248a9ca3146101bf5780632654320c146101ee578063275180c01461020b5761016c565b8063092149ed1461017157806310e16b5a146101a2575b600080fd5b61018e6004803603602081101561018757600080fd5b5035610585565b604080519115158252519081900360200190f35b61018e600480360360208110156101b857600080fd5b503561059f565b6101dc600480360360208110156101d557600080fd5b503561073c565b60408051918252519081900360200190f35b61018e6004803603602081101561020457600080fd5b5035610751565b6102286004803603602081101561022157600080fd5b50356107c0565b005b6102286004803603604081101561024057600080fd5b50803590602001356001600160a01b0316610b28565b6102286004803603604081101561026c57600080fd5b50803590602001356001600160a01b0316610b94565b6102286004803603602081101561029857600080fd5b5035610bf5565b6102a7610fec565b604080516001600160a01b039092168252519081900360200190f35b6101dc611010565b6102a7611026565b6102a7600480360360408110156102e957600080fd5b5080359060200135611035565b61018e6004803603604081101561030c57600080fd5b50803590602001356001600160a01b0316611056565b61033f6004803603602081101561033857600080fd5b503561106e565b6040518080602001888152602001876001600160a01b0316815260200186815260200185815260200184151581526020018315158152602001828103825289818151815260200191508051906020019080838360005b838110156103ad578181015183820152602001610395565b50505050905090810190601f1680156103da5780820380516001836020036101000a031916815260200191505b509850505050505050505060405180910390f35b6101dc61113e565b6102286004803603604081101561040c57600080fd5b8135919081019060408101602082013564010000000081111561042e57600080fd5b82018360208201111561044057600080fd5b8035906020019184602083028401116401000000008311171561046257600080fd5b509092509050611143565b6101dc6113d5565b6101dc6004803603602081101561048b57600080fd5b50356113dc565b610228600480360360c08110156104a857600080fd5b813591908101906040810160208201356401000000008111156104ca57600080fd5b8201836020820111156104dc57600080fd5b803590602001918460018302840111640100000000831117156104fe57600080fd5b91908080601f0160208091040260200160405190810160405280939291908181526020018383808284376000920191909152509295505082359350506001600160a01b036020830135169160408101359150606001356113f3565b6102286004803603604081101561056f57600080fd5b50803590602001356001600160a01b031661169a565b60008181526002602052604090206001015415155b919050565b60006105aa82610585565b6105b65750600061059a565b6000828152600260205260409020600581015460ff166105da57600091505061059a565b600581015460ff610100909104161515600114156105fc57600091505061059a565b6000610606611708565b9050806001600160a01b031663bc58ccaa306e5945535f4f525f4e4f5f515545525960881b8560010154866000016040518563ffffffff1660e01b815260040180856001600160a01b03168152602001848152602001838152602001806020018281038252838181546001816001161561010002031660029004815260200191508054600181600116156101000203166002900480156106e75780601f106106bc576101008083540402835291602001916106e7565b820191906000526020600020905b8154815290600101906020018083116106ca57829003601f168201915b50509550505050505060206040518083038186803b15801561070857600080fd5b505afa15801561071c573d6000803e3d6000fd5b505050506040513d602081101561073257600080fd5b5051949350505050565b60009081526020819052604090206002015490565b600061075c82610585565b6107685750600061059a565b6000828152600260205260409020600581015460ff1615156001141561079257600091505061059a565b600581015460ff610100909104161515600114156107b457600091505061059a565b60010154421192915050565b6107c98161059f565b6108045760405162461bcd60e51b815260040180806020018281038252603e815260200180611bd6603e913960400191505060405180910390fd5b60008181526002602052604081209061081b611708565b90506000816001600160a01b03166353b592396e5945535f4f525f4e4f5f515545525960881b8560010154866000016040518463ffffffff1660e01b815260040180848152602001838152602001806020018281038252838181546001816001161561010002031660029004815260200191508054600181600116156101000203166002900480156108ee5780601f106108c3576101008083540402835291602001916108ee565b820191906000526020600020905b8154815290600101906020018083116108d157829003601f168201915b5050945050505050602060405180830381600087803b15801561091057600080fd5b505af1158015610924573d6000803e3d6000fd5b505050506040513d602081101561093a57600080fd5b505160408051600280825260608083018452939450909160208301908036833701905050905081158061096d5750816001145b6109a85760405162461bcd60e51b815260040180806020018281038252602f815260200180611b66602f913960400191505060405180910390fd5b816109e8576000816000815181106109bc57fe5b6020026020010181815250506001816001815181106109d757fe5b602002602001018181525050610a1f565b6001816000815181106109f757fe5b602002602001018181525050600081600181518110610a1257fe5b6020026020010181815250505b60058401805461ff00191661010017905560408051633124a62b60e21b815260048101878152602482019283528351604483015283516001600160a01b037f0000000000000000000000000000000000000000000000000000000000000000169363c49298ac938a938793909291606401906020808601910280838360005b83811015610ab6578181015183820152602001610a9e565b505050509050019350505050600060405180830381600087803b158015610adc57600080fd5b505af1158015610af0573d6000803e3d6000fd5b5050604051600092508791507f5c3937ed929cd157b73b417381d743daf6e1ef65999e3ccb5dd64bc3247e28d6908390a35050505050565b600082815260208190526040902060020154610b4b90610b46611717565b611056565b610b865760405162461bcd60e51b815260040180806020018281038252602f815260200180611b37602f913960400191505060405180910390fd5b610b90828261171b565b5050565b610b9c611717565b6001600160a01b0316816001600160a01b031614610beb5760405162461bcd60e51b815260040180806020018281038252602f815260200180611d6f602f913960400191505060405180910390fd5b610b908282611784565b610bfe81610751565b610c395760405162461bcd60e51b8152600401808060200182810382526041815260200180611b956041913960600191505060405180910390fd5b600081815260026020526040812090610c50611708565b60058301805460ff191660019081179091558381015460028086015460038701546004880154604080516001600160a01b03909416602085018190529084018390526060840182905260808085528a5460001998811615610100029890980190971694909404958301869052959650889593946e5945535f4f525f4e4f5f515545525960881b947f505a8922cc269f3f7ae38e83d512e88b4cd544595179cc34c099e373d2674f59948a94909392819060a082019087908015610d545780601f10610d2957610100808354040283529160200191610d54565b820191906000526020600020905b815481529060010190602001808311610d3757829003601f168201915b50509550505050505060405180910390a460018083015460028085015460038601546040517f11df92f10000000000000000000000000000000000000000000000000000000081526e5945535f4f525f4e4f5f515545525960881b60048201818152602483018790526001600160a01b03948516606484018190526084840185905260a0604485019081528b546000199a811615610100029a909a019099169690960460a48401819052948916976311df92f197929692958b95939460c4019086908015610e635780601f10610e3857610100808354040283529160200191610e63565b820191906000526020600020905b815481529060010190602001808311610e4657829003601f168201915b50509650505050505050602060405180830381600087803b158015610e8757600080fd5b505af1158015610e9b573d6000803e3d6000fd5b505050506040513d6020811015610eb157600080fd5b5050600482015415610fe757806001600160a01b031663ad5a755a6e5945535f4f525f4e4f5f515545525960881b84600101548560000186600401546040518563ffffffff1660e01b81526004018085815260200184815260200180602001838152602001828103825284818154600181600116156101000203166002900481526020019150805460018160011615610100020316600290048015610f975780601f10610f6c57610100808354040283529160200191610f97565b820191906000526020600020905b815481529060010190602001808311610f7a57829003601f168201915b505095505050505050602060405180830381600087803b158015610fba57600080fd5b505af1158015610fce573d6000803e3d6000fd5b505050506040513d6020811015610fe457600080fd5b50505b505050565b7f000000000000000000000000000000000000000000000000000000000000000081565b6e5945535f4f525f4e4f5f515545525960881b81565b6001546001600160a01b031681565b600082815260208190526040812061104d90836117ed565b90505b92915050565b600082815260208190526040812061104d90836117f9565b600260208181526000928352604092839020805484516001821615610100026000190190911693909304601f81018390048302840183019094528383529283918301828280156110ff5780601f106110d4576101008083540402835291602001916110ff565b820191906000526020600020905b8154815290600101906020018083116110e257829003601f168201915b5050506001840154600285015460038601546004870154600590970154959692956001600160a01b039092169450925060ff8082169161010090041687565b600081565b61114e600033611056565b6111895760405162461bcd60e51b8152600401808060200182810382526040815260200180611cf66040913960400191505060405180910390fd5b61119283610585565b6111cd5760405162461bcd60e51b815260040180806020018281038252603e815260200180611c14603e913960400191505060405180910390fd5b60008381526002602052604090206001015462278d000142116112215760405162461bcd60e51b815260040180806020018281038252603d815260200180611cb9603d913960400191505060405180910390fd5b8181600181811061122e57fe5b905060200201358282600081811061124257fe5b90506020020135016001146112885760405162461bcd60e51b8152600401808060200182810382526037815260200180611c526037913960400191505060405180910390fd5b600281146112c75760405162461bcd60e51b8152600401808060200182810382526037815260200180611c526037913960400191505060405180910390fd5b60008381526002602090815260409182902060058101805461ff0019166101001790558251633124a62b60e21b815260048101878152602482019485526044820186905291936001600160a01b037f0000000000000000000000000000000000000000000000000000000000000000169363c49298ac938993899389939091606401908590850280828437600081840152601f19601f820116905080830192505050945050505050600060405180830381600087803b15801561138957600080fd5b505af115801561139d573d6000803e3d6000fd5b5050604051600192508691507f5c3937ed929cd157b73b417381d743daf6e1ef65999e3ccb5dd64bc3247e28d690600090a350505050565b62278d0081565b60008181526020819052604081206110509061180e565b6113fc86610585565b156114385760405162461bcd60e51b8152600401808060200182810382526039815260200180611d366039913960400191505060405180910390fd5b600081156114435750805b6040805160e08101825287815260208082018890526001600160a01b038716828401526060820186905260808201849052600060a0830181905260c083018190528a8152600282529290922081518051929391926114a49284920190611a73565b506020820151600182015560408201516002820180547fffffffffffffffffffffffff0000000000000000000000000000000000000000166001600160a01b03909216919091179055606082015160038201556080820151600482015560a08201516005909101805460c09093015160ff199093169115159190911761ff00191661010092151592909202919091179055600061153f611819565b9050846001600160a01b031663095ea7b382866040518363ffffffff1660e01b815260040180836001600160a01b0316815260200182815260200192505050602060405180830381600087803b15801561159857600080fd5b505af11580156115ac573d6000803e3d6000fd5b505050506040513d60208110156115c257600080fd5b50506040805160208181018990526001600160a01b03881692820192909252606081018690526080810185905260a080825289519082015288518a927f5a6801fc8f8820ceb071609ea09438cbab61e56085a50d9a1e672d81aec0adda928b928b928b928b928b92829160c083019189019080838360005b8381101561165257818101518382015260200161163a565b50505050905090810190601f16801561167f5780820380516001836020036101000a031916815260200191505b50965050505050505060405180910390a25050505050505050565b6000828152602081905260409020600201546116b890610b46611717565b610beb5760405162461bcd60e51b8152600401808060200182810382526030815260200180611c896030913960400191505060405180910390fd5b600061104d836001600160a01b0384166118ce565b6000611712611819565b905090565b3390565b600082815260208190526040902061173390826116f3565b15610b9057611740611717565b6001600160a01b0316816001600160a01b0316837f2f8788117e7eff1d82e926ec794901d17c78024a50270940304540a733656f0d60405160405180910390a45050565b600082815260208190526040902061179c9082611918565b15610b90576117a9611717565b6001600160a01b0316816001600160a01b0316837ff6391f5c32d9c69d2a47ea670b442974b53935d1edc7fd64eb21e047a839171b60405160405180910390a45050565b600061104d838361192d565b600061104d836001600160a01b038416611991565b6000611050826119a9565b600154604080517faafd5e400000000000000000000000000000000000000000000000000000000081527f4f7074696d69737469634f7261636c6500000000000000000000000000000000600482015290516000926001600160a01b03169163aafd5e40916024808301926020929190829003018186803b15801561189d57600080fd5b505afa1580156118b1573d6000803e3d6000fd5b505050506040513d60208110156118c757600080fd5b5051905090565b60006118da8383611991565b61191057508154600181810184556000848152602080822090930184905584548482528286019093526040902091909155611050565b506000611050565b600061104d836001600160a01b0384166119ad565b8154600090821061196f5760405162461bcd60e51b8152600401808060200182810382526022815260200180611b156022913960400191505060405180910390fd5b82600001828154811061197e57fe5b9060005260206000200154905092915050565b60009081526001919091016020526040902054151590565b5490565b60008181526001830160205260408120548015611a6957835460001980830191908101906000908790839081106119e057fe5b90600052602060002001549050808760000184815481106119fd57fe5b600091825260208083209091019290925582815260018981019092526040902090840190558654879080611a2d57fe5b60019003818190600052602060002001600090559055866001016000878152602001908152602001600020600090556001945050505050611050565b6000915050611050565b828054600181600116156101000203166002900490600052602060002090601f016020900481019282611aa95760008555611aef565b82601f10611ac257805160ff1916838001178555611aef565b82800160010185558215611aef579182015b82811115611aef578251825591602001919060010190611ad4565b50611afb929150611aff565b5090565b5b80821115611afb5760008155600101611b0056fe456e756d657261626c655365743a20696e646578206f7574206f6620626f756e6473416363657373436f6e74726f6c3a2073656e646572206d75737420626520616e2061646d696e20746f206772616e74416461707465723a3a7265706f72745061796f7574733a20496e76616c6964207265736f6c7574696f6e2064617461416461707465723a3a726571756573745265736f6c7574696f6e446174613a205175657374696f6e206e6f7420726561647920746f206265207265736f6c766564416461707465723a3a7265706f72745061796f7574733a207175657374696f6e4944206e6f7420726561647920746f207265706f7274207061796f757473416461707465723a3a656d657267656e63795265706f72745061796f7574733a207175657374696f6e4944206973206e6f7420696e697469616c697a6564416461707465723a3a656d657267656e63795265706f72745061796f7574733a207061796f757473206d7573742062652062696e617279416363657373436f6e74726f6c3a2073656e646572206d75737420626520616e2061646d696e20746f207265766f6b65416461707465723a3a656d657267656e63795265706f72745061796f7574733a2073616665747920706572696f6420686173206e6f7420706173736564416461707465723a3a656d657267656e63795265706f72745061796f7574733a2063616c6c657220646f6573206e6f7420686176652061646d696e20726f6c65416461707465723a3a696e697469616c697a655175657374696f6e3a205175657374696f6e20616c726561647920696e697469616c697a6564416363657373436f6e74726f6c3a2063616e206f6e6c792072656e6f756e636520726f6c657320666f722073656c66a26469706673582212200ca19e6748993ca4be9f4eb5d1157ddf9a5029dff8bcf99951c7ea38d8b5513664736f6c63430007050033",
  "devdoc": {
    "kind": "dev",
    "methods": {
      "emergencyReportPayouts(bytes32,uint256[])": {
        "params": {
          "questionID": "- The unique questionID of the condition"
        }
      },
      "getRoleAdmin(bytes32)": {
        "details": "Returns the admin role that controls `role`. See {grantRole} and {revokeRole}. To change a role's admin, use {_setRoleAdmin}."
      },
      "getRoleMember(bytes32,uint256)": {
        "details": "Returns one of the accounts that have `role`. `index` must be a value between 0 and {getRoleMemberCount}, non-inclusive. Role bearers are not sorted in any particular way, and their ordering may change at any point. WARNING: When using {getRoleMember} and {getRoleMemberCount}, make sure you perform all queries on the same block. See the following https://forum.openzeppelin.com/t/iterating-over-elements-on-enumerableset-in-openzeppelin-contracts/2296[forum post] for more information."
      },
      "getRoleMemberCount(bytes32)": {
        "details": "Returns the number of accounts that have `role`. Can be used together with {getRoleMember} to enumerate all bearers of a role."
      },
      "grantRole(bytes32,address)": {
        "details": "Grants `role` to `account`. If `account` had not been already granted `role`, emits a {RoleGranted} event. Requirements: - the caller must have ``role``'s admin role."
      },
      "hasRole(bytes32,address)": {
        "details": "Returns `true` if `account` has been granted `role`."
      },
      "initializeQuestion(bytes32,bytes,uint256,address,uint256,uint256)": {
        "params": {
          "ancillaryData": "- Holds data used to resolve a question",
          "proposalBond": "- Additional bond required to be posted by a price proposer and disputer",
          "questionID": "- The unique questionID of the condition",
          "resolutionTime": "- Timestamp at which the Adapter can resolve a question",
          "reward": "- Reward offered to a successful proposer",
          "rewardToken": "- ERC20 token address used for payment of rewards and fees"
        }
      },
      "readyToReportPayouts(bytes32)": {
        "params": {
          "questionID": "- The unique questionID of the condition"
        }
      },
      "readyToRequestResolution(bytes32)": {
        "params": {
          "questionID": "- The unique questionID of the condition"
        }
      },
      "renounceRole(bytes32,address)": {
        "details": "Revokes `role` from the calling account. Roles are often managed via {grantRole} and {revokeRole}: this function's purpose is to provide a mechanism for accounts to lose their privileges if they are compromised (such as when a trusted device is misplaced). If the calling account had been granted `role`, emits a {RoleRevoked} event. Requirements: - the caller must be `account`."
      },
      "reportPayouts(bytes32)": {
        "params": {
          "questionID": "- The unique questionID of the condition"
        }
      },
      "requestResolutionData(bytes32)": {
        "params": {
          "questionID": "- The unique questionID of the condition"
        }
      },
      "revokeRole(bytes32,address)": {
        "details": "Revokes `role` from `account`. If `account` had been granted `role`, emits a {RoleRevoked} event. Requirements: - the caller must have ``role``'s admin role."
      }
    },
    "title": "UmaConditionalTokensBinaryAdapter",
    "version": 1
  },
  "userdoc": {
    "kind": "user",
    "methods": {
      "emergencyReportPayouts(bytes32,uint256[])": {
        "notice": "Allows an admin to report payouts in an emergency"
      },
      "initializeQuestion(bytes32,bytes,uint256,address,uint256,uint256)": {
        "notice": "Initializes a question on the Adapter to report on"
      },
      "readyToReportPayouts(bytes32)": {
        "notice": "Checks whether a questionID is ready to report payouts"
      },
      "readyToRequestResolution(bytes32)": {
        "notice": "- Checks whether or not a question can start the resolution process"
      },
      "reportPayouts(bytes32)": {
        "notice": "Can be called by anyone to resolve a condition"
      },
      "requestResolutionData(bytes32)": {
        "notice": "Called by anyone to request resolution data from the Optimistic Oracle"
      }
    },
    "notice": "allows a condition to be resolved via UMA's Optimistic Oracle",
    "version": 1
  },
  "storageLayout": {
    "storage": [
      {
        "astId": 22,
        "contract": "contracts/UmaConditionalTokensBinaryAdapter.sol:UmaConditionalTokensBinaryAdapter",
        "label": "_roles",
        "offset": 0,
        "slot": "0",
        "type": "t_mapping(t_bytes32,t_struct(RoleData)18_storage)"
      },
      {
        "astId": 2048,
        "contract": "contracts/UmaConditionalTokensBinaryAdapter.sol:UmaConditionalTokensBinaryAdapter",
        "label": "umaFinder",
        "offset": 0,
        "slot": "1",
        "type": "t_contract(FinderInterface)2640"
      },
      {
        "astId": 2073,
        "contract": "contracts/UmaConditionalTokensBinaryAdapter.sol:UmaConditionalTokensBinaryAdapter",
        "label": "questions",
        "offset": 0,
        "slot": "2",
        "type": "t_mapping(t_bytes32,t_struct(QuestionData)2069_storage)"
      }
    ],
    "types": {
      "t_address": {
        "encoding": "inplace",
        "label": "address",
        "numberOfBytes": "20"
      },
      "t_array(t_bytes32)dyn_storage": {
        "base": "t_bytes32",
        "encoding": "dynamic_array",
        "label": "bytes32[]",
        "numberOfBytes": "32"
      },
      "t_bool": {
        "encoding": "inplace",
        "label": "bool",
        "numberOfBytes": "1"
      },
      "t_bytes32": {
        "encoding": "inplace",
        "label": "bytes32",
        "numberOfBytes": "32"
      },
      "t_bytes_storage": {
        "encoding": "bytes",
        "label": "bytes",
        "numberOfBytes": "32"
      },
      "t_contract(FinderInterface)2640": {
        "encoding": "inplace",
        "label": "contract FinderInterface",
        "numberOfBytes": "20"
      },
      "t_mapping(t_bytes32,t_struct(QuestionData)2069_storage)": {
        "encoding": "mapping",
        "key": "t_bytes32",
        "label": "mapping(bytes32 => struct UmaConditionalTokensBinaryAdapter.QuestionData)",
        "numberOfBytes": "32",
        "value": "t_struct(QuestionData)2069_storage"
      },
      "t_mapping(t_bytes32,t_struct(RoleData)18_storage)": {
        "encoding": "mapping",
        "key": "t_bytes32",
        "label": "mapping(bytes32 => struct AccessControl.RoleData)",
        "numberOfBytes": "32",
        "value": "t_struct(RoleData)18_storage"
      },
      "t_mapping(t_bytes32,t_uint256)": {
        "encoding": "mapping",
        "key": "t_bytes32",
        "label": "mapping(bytes32 => uint256)",
        "numberOfBytes": "32",
        "value": "t_uint256"
      },
      "t_struct(AddressSet)1813_storage": {
        "encoding": "inplace",
        "label": "struct EnumerableSet.AddressSet",
        "members": [
          {
            "astId": 1812,
            "contract": "contracts/UmaConditionalTokensBinaryAdapter.sol:UmaConditionalTokensBinaryAdapter",
            "label": "_inner",
            "offset": 0,
            "slot": "0",
            "type": "t_struct(Set)1548_storage"
          }
        ],
        "numberOfBytes": "64"
      },
      "t_struct(QuestionData)2069_storage": {
        "encoding": "inplace",
        "label": "struct UmaConditionalTokensBinaryAdapter.QuestionData",
        "members": [
          {
            "astId": 2056,
            "contract": "contracts/UmaConditionalTokensBinaryAdapter.sol:UmaConditionalTokensBinaryAdapter",
            "label": "ancillaryData",
            "offset": 0,
            "slot": "0",
            "type": "t_bytes_storage"
          },
          {
            "astId": 2058,
            "contract": "contracts/UmaConditionalTokensBinaryAdapter.sol:UmaConditionalTokensBinaryAdapter",
            "label": "resolutionTime",
            "offset": 0,
            "slot": "1",
            "type": "t_uint256"
          },
          {
            "astId": 2060,
            "contract": "contracts/UmaConditionalTokensBinaryAdapter.sol:UmaConditionalTokensBinaryAdapter",
            "label": "rewardToken",
            "offset": 0,
            "slot": "2",
            "type": "t_address"
          },
          {
            "astId": 2062,
            "contract": "contracts/UmaConditionalTokensBinaryAdapter.sol:UmaConditionalTokensBinaryAdapter",
            "label": "reward",
            "offset": 0,
            "slot": "3",
            "type": "t_uint256"
          },
          {
            "astId": 2064,
            "contract": "contracts/UmaConditionalTokensBinaryAdapter.sol:UmaConditionalTokensBinaryAdapter",
            "label": "proposalBond",
            "offset": 0,
            "slot": "4",
            "type": "t_uint256"
          },
          {
            "astId": 2066,
            "contract": "contracts/UmaConditionalTokensBinaryAdapter.sol:UmaConditionalTokensBinaryAdapter",
            "label": "resolutionDataRequested",
            "offset": 0,
            "slot": "5",
            "type": "t_bool"
          },
          {
            "astId": 2068,
            "contract": "contracts/UmaConditionalTokensBinaryAdapter.sol:UmaConditionalTokensBinaryAdapter",
            "label": "resolved",
            "offset": 1,
            "slot": "5",
            "type": "t_bool"
          }
        ],
        "numberOfBytes": "192"
      },
      "t_struct(RoleData)18_storage": {
        "encoding": "inplace",
        "label": "struct AccessControl.RoleData",
        "members": [
          {
            "astId": 15,
            "contract": "contracts/UmaConditionalTokensBinaryAdapter.sol:UmaConditionalTokensBinaryAdapter",
            "label": "members",
            "offset": 0,
            "slot": "0",
            "type": "t_struct(AddressSet)1813_storage"
          },
          {
            "astId": 17,
            "contract": "contracts/UmaConditionalTokensBinaryAdapter.sol:UmaConditionalTokensBinaryAdapter",
            "label": "adminRole",
            "offset": 0,
            "slot": "2",
            "type": "t_bytes32"
          }
        ],
        "numberOfBytes": "96"
      },
      "t_struct(Set)1548_storage": {
        "encoding": "inplace",
        "label": "struct EnumerableSet.Set",
        "members": [
          {
            "astId": 1543,
            "contract": "contracts/UmaConditionalTokensBinaryAdapter.sol:UmaConditionalTokensBinaryAdapter",
            "label": "_values",
            "offset": 0,
            "slot": "0",
            "type": "t_array(t_bytes32)dyn_storage"
          },
          {
            "astId": 1547,
            "contract": "contracts/UmaConditionalTokensBinaryAdapter.sol:UmaConditionalTokensBinaryAdapter",
            "label": "_indexes",
            "offset": 0,
            "slot": "1",
            "type": "t_mapping(t_bytes32,t_uint256)"
          }
        ],
        "numberOfBytes": "64"
      },
      "t_uint256": {
        "encoding": "inplace",
        "label": "uint256",
        "numberOfBytes": "32"
      }
    }
  }
}