{
  "address": "0x66a1D8F7BaFf26081E7E90B33e1B143bd4934821",
  "abi": [
    {
      "inputs": [
        {
          "internalType": "address",
          "name": "conditionalTokenAddress",
          "type": "address"
        },
        {
          "internalType": "address",
          "name": "umaFinderAddress",
          "type": "address"
        }
      ],
      "stateMutability": "nonpayable",
      "type": "constructor"
    },
    {
      "anonymous": false,
      "inputs": [
        {
          "indexed": true,
          "internalType": "address",
          "name": "usr",
          "type": "address"
        }
      ],
      "name": "AuthorizedUser",
      "type": "event"
    },
    {
      "anonymous": false,
      "inputs": [
        {
          "indexed": true,
          "internalType": "address",
          "name": "usr",
          "type": "address"
        }
      ],
      "name": "DeauthorizedUser",
      "type": "event"
    },
    {
      "anonymous": false,
      "inputs": [
        {
          "indexed": false,
          "internalType": "address",
          "name": "oldFinder",
          "type": "address"
        },
        {
          "indexed": false,
          "internalType": "address",
          "name": "newFinder",
          "type": "address"
        }
      ],
      "name": "NewFinderAddress",
      "type": "event"
    },
    {
      "anonymous": false,
      "inputs": [
        {
          "indexed": true,
          "internalType": "bytes32",
          "name": "questionID",
          "type": "bytes32"
        },
        {
          "indexed": false,
          "internalType": "bytes",
          "name": "ancillaryData",
          "type": "bytes"
        },
        {
          "indexed": false,
          "internalType": "uint256",
          "name": "resolutionTime",
          "type": "uint256"
        },
        {
          "indexed": false,
          "internalType": "address",
          "name": "rewardToken",
          "type": "address"
        },
        {
          "indexed": false,
          "internalType": "uint256",
          "name": "reward",
          "type": "uint256"
        },
        {
          "indexed": false,
          "internalType": "uint256",
          "name": "proposalBond",
          "type": "uint256"
        },
        {
          "indexed": false,
          "internalType": "bool",
          "name": "earlyResolutionEnabled",
          "type": "bool"
        }
      ],
      "name": "QuestionInitialized",
      "type": "event"
    },
    {
      "anonymous": false,
      "inputs": [
        {
          "indexed": false,
          "internalType": "bytes32",
          "name": "questionID",
          "type": "bytes32"
        }
      ],
      "name": "QuestionPaused",
      "type": "event"
    },
    {
      "anonymous": false,
      "inputs": [
        {
          "indexed": true,
          "internalType": "bytes32",
          "name": "questionID",
          "type": "bytes32"
        },
        {
          "indexed": true,
          "internalType": "bool",
          "name": "emergencyReport",
          "type": "bool"
        }
      ],
      "name": "QuestionResolved",
      "type": "event"
    },
    {
      "anonymous": false,
      "inputs": [
        {
          "indexed": true,
          "internalType": "bytes32",
          "name": "questionID",
          "type": "bytes32"
        },
        {
          "indexed": true,
          "internalType": "int256",
          "name": "settledPrice",
          "type": "int256"
        },
        {
          "indexed": true,
          "internalType": "bool",
          "name": "earlyResolution",
          "type": "bool"
        }
      ],
      "name": "QuestionSettled",
      "type": "event"
    },
    {
      "anonymous": false,
      "inputs": [
        {
          "indexed": false,
          "internalType": "bytes32",
          "name": "questionID",
          "type": "bytes32"
        }
      ],
      "name": "QuestionUnpaused",
      "type": "event"
    },
    {
      "anonymous": false,
      "inputs": [
        {
          "indexed": true,
          "internalType": "bytes32",
          "name": "questionID",
          "type": "bytes32"
        },
        {
          "indexed": false,
          "internalType": "bytes",
          "name": "ancillaryData",
          "type": "bytes"
        },
        {
          "indexed": false,
          "internalType": "uint256",
          "name": "resolutionTime",
          "type": "uint256"
        },
        {
          "indexed": false,
          "internalType": "address",
          "name": "rewardToken",
          "type": "address"
        },
        {
          "indexed": false,
          "internalType": "uint256",
          "name": "reward",
          "type": "uint256"
        },
        {
          "indexed": false,
          "internalType": "uint256",
          "name": "proposalBond",
          "type": "uint256"
        },
        {
          "indexed": false,
          "internalType": "bool",
          "name": "earlyResolutionEnabled",
          "type": "bool"
        }
      ],
      "name": "QuestionUpdated",
      "type": "event"
    },
    {
      "anonymous": false,
      "inputs": [
        {
          "indexed": true,
          "internalType": "bytes32",
          "name": "identifier",
          "type": "bytes32"
        },
        {
          "indexed": true,
          "internalType": "uint256",
          "name": "resolutionTimestamp",
          "type": "uint256"
        },
        {
          "indexed": true,
          "internalType": "bytes32",
          "name": "questionID",
          "type": "bytes32"
        },
        {
          "indexed": false,
          "internalType": "bytes",
          "name": "ancillaryData",
          "type": "bytes"
        },
        {
          "indexed": false,
          "internalType": "address",
          "name": "rewardToken",
          "type": "address"
        },
        {
          "indexed": false,
          "internalType": "uint256",
          "name": "reward",
          "type": "uint256"
        },
        {
          "indexed": false,
          "internalType": "uint256",
          "name": "proposalBond",
          "type": "uint256"
        },
        {
          "indexed": false,
          "internalType": "bool",
          "name": "earlyResolution",
          "type": "bool"
        }
      ],
      "name": "ResolutionDataRequested",
      "type": "event"
    },
    {
      "inputs": [],
      "name": "conditionalTokenContract",
      "outputs": [
        {
          "internalType": "contract IConditionalTokens",
          "name": "",
          "type": "address"
        }
      ],
      "stateMutability": "view",
      "type": "function"
    },
    {
      "inputs": [
        {
          "internalType": "address",
          "name": "usr",
          "type": "address"
        }
      ],
      "name": "deny",
      "outputs": [],
      "stateMutability": "nonpayable",
      "type": "function"
    },
    {
      "inputs": [
        {
          "internalType": "bytes32",
          "name": "questionID",
          "type": "bytes32"
        },
        {
          "internalType": "uint256[]",
          "name": "payouts",
          "type": "uint256[]"
        }
      ],
      "name": "emergencyReportPayouts",
      "outputs": [],
      "stateMutability": "nonpayable",
      "type": "function"
    },
    {
      "inputs": [],
      "name": "emergencySafetyPeriod",
      "outputs": [
        {
          "internalType": "uint256",
          "name": "",
          "type": "uint256"
        }
      ],
      "stateMutability": "view",
      "type": "function"
    },
    {
      "inputs": [
        {
          "internalType": "bytes32",
          "name": "questionID",
          "type": "bytes32"
        }
      ],
      "name": "getExpectedPayouts",
      "outputs": [
        {
          "internalType": "uint256[]",
          "name": "",
          "type": "uint256[]"
        }
      ],
      "stateMutability": "view",
      "type": "function"
    },
    {
      "inputs": [],
      "name": "identifier",
      "outputs": [
        {
          "internalType": "bytes32",
          "name": "",
          "type": "bytes32"
        }
      ],
      "stateMutability": "view",
      "type": "function"
    },
    {
      "inputs": [],
      "name": "ignorePrice",
      "outputs": [
        {
          "internalType": "int256",
          "name": "",
          "type": "int256"
        }
      ],
      "stateMutability": "pure",
      "type": "function"
    },
    {
      "inputs": [
        {
          "internalType": "bytes32",
          "name": "questionID",
          "type": "bytes32"
        },
        {
          "internalType": "bytes",
          "name": "ancillaryData",
          "type": "bytes"
        },
        {
          "internalType": "uint256",
          "name": "resolutionTime",
          "type": "uint256"
        },
        {
          "internalType": "address",
          "name": "rewardToken",
          "type": "address"
        },
        {
          "internalType": "uint256",
          "name": "reward",
          "type": "uint256"
        },
        {
          "internalType": "uint256",
          "name": "proposalBond",
          "type": "uint256"
        },
        {
          "internalType": "bool",
          "name": "earlyResolutionEnabled",
          "type": "bool"
        }
      ],
      "name": "initializeQuestion",
      "outputs": [],
      "stateMutability": "nonpayable",
      "type": "function"
    },
    {
      "inputs": [
        {
          "internalType": "bytes32",
          "name": "questionID",
          "type": "bytes32"
        }
      ],
      "name": "isQuestionInitialized",
      "outputs": [
        {
          "internalType": "bool",
          "name": "",
          "type": "bool"
        }
      ],
      "stateMutability": "view",
      "type": "function"
    },
    {
      "inputs": [
        {
          "internalType": "bytes32",
          "name": "questionID",
          "type": "bytes32"
        }
      ],
      "name": "pauseQuestion",
      "outputs": [],
      "stateMutability": "nonpayable",
      "type": "function"
    },
    {
      "inputs": [
        {
          "internalType": "bytes32",
          "name": "",
          "type": "bytes32"
        }
      ],
      "name": "questions",
      "outputs": [
        {
          "internalType": "uint256",
          "name": "resolutionTime",
          "type": "uint256"
        },
        {
          "internalType": "uint256",
          "name": "reward",
          "type": "uint256"
        },
        {
          "internalType": "uint256",
          "name": "proposalBond",
          "type": "uint256"
        },
        {
          "internalType": "uint256",
          "name": "settled",
          "type": "uint256"
        },
        {
          "internalType": "uint256",
          "name": "earlyResolutionTimestamp",
          "type": "uint256"
        },
        {
          "internalType": "bool",
          "name": "earlyResolutionEnabled",
          "type": "bool"
        },
        {
          "internalType": "bool",
          "name": "resolutionDataRequested",
          "type": "bool"
        },
        {
          "internalType": "bool",
          "name": "resolved",
          "type": "bool"
        },
        {
          "internalType": "bool",
          "name": "paused",
          "type": "bool"
        },
        {
          "internalType": "address",
          "name": "rewardToken",
          "type": "address"
        },
        {
          "internalType": "bytes",
          "name": "ancillaryData",
          "type": "bytes"
        }
      ],
      "stateMutability": "view",
      "type": "function"
    },
    {
      "inputs": [
        {
          "internalType": "bytes32",
          "name": "questionID",
          "type": "bytes32"
        }
      ],
      "name": "readyToRequestResolution",
      "outputs": [
        {
          "internalType": "bool",
          "name": "",
          "type": "bool"
        }
      ],
      "stateMutability": "view",
      "type": "function"
    },
    {
      "inputs": [
        {
          "internalType": "bytes32",
          "name": "questionID",
          "type": "bytes32"
        }
      ],
      "name": "readyToSettle",
      "outputs": [
        {
          "internalType": "bool",
          "name": "",
          "type": "bool"
        }
      ],
      "stateMutability": "view",
      "type": "function"
    },
    {
      "inputs": [
        {
          "internalType": "address",
          "name": "usr",
          "type": "address"
        }
      ],
      "name": "rely",
      "outputs": [],
      "stateMutability": "nonpayable",
      "type": "function"
    },
    {
      "inputs": [
        {
          "internalType": "bytes32",
          "name": "questionID",
          "type": "bytes32"
        }
      ],
      "name": "reportPayouts",
      "outputs": [],
      "stateMutability": "nonpayable",
      "type": "function"
    },
    {
      "inputs": [
        {
          "internalType": "bytes32",
          "name": "questionID",
          "type": "bytes32"
        }
      ],
      "name": "requestResolutionData",
      "outputs": [],
      "stateMutability": "nonpayable",
      "type": "function"
    },
    {
      "inputs": [
        {
          "internalType": "address",
          "name": "newFinderAddress",
          "type": "address"
        }
      ],
      "name": "setFinderAddress",
      "outputs": [],
      "stateMutability": "nonpayable",
      "type": "function"
    },
    {
      "inputs": [
        {
          "internalType": "bytes32",
          "name": "questionID",
          "type": "bytes32"
        }
      ],
      "name": "settle",
      "outputs": [],
      "stateMutability": "nonpayable",
      "type": "function"
    },
    {
      "inputs": [],
      "name": "umaFinder",
      "outputs": [
        {
          "internalType": "address",
          "name": "",
          "type": "address"
        }
      ],
      "stateMutability": "view",
      "type": "function"
    },
    {
      "inputs": [
        {
          "internalType": "bytes32",
          "name": "questionID",
          "type": "bytes32"
        }
      ],
      "name": "unPauseQuestion",
      "outputs": [],
      "stateMutability": "nonpayable",
      "type": "function"
    },
    {
      "inputs": [
        {
          "internalType": "bytes32",
          "name": "questionID",
          "type": "bytes32"
        },
        {
          "internalType": "bytes",
          "name": "ancillaryData",
          "type": "bytes"
        },
        {
          "internalType": "uint256",
          "name": "resolutionTime",
          "type": "uint256"
        },
        {
          "internalType": "address",
          "name": "rewardToken",
          "type": "address"
        },
        {
          "internalType": "uint256",
          "name": "reward",
          "type": "uint256"
        },
        {
          "internalType": "uint256",
          "name": "proposalBond",
          "type": "uint256"
        },
        {
          "internalType": "bool",
          "name": "earlyResolutionEnabled",
          "type": "bool"
        }
      ],
      "name": "updateQuestion",
      "outputs": [],
      "stateMutability": "nonpayable",
      "type": "function"
    },
    {
      "inputs": [
        {
          "internalType": "address",
          "name": "",
          "type": "address"
        }
      ],
      "name": "wards",
      "outputs": [
        {
          "internalType": "uint256",
          "name": "",
          "type": "uint256"
        }
      ],
      "stateMutability": "view",
      "type": "function"
    }
  ],
  "transactionHash": "0xd0e6e3df3354be5d51ebbfe78f0ba2d623dc21c6ca7f8dae2618aa76493b8a90",
  "args": [
    "0x7D8610E9567d2a6C9FBf66a5A13E9Ba8bb120d43",
    "0xb22033fF04AD01fbE8d78ef4622a20626834271B"
  ],
  "solcInputHash": "1e1926c2c8c03cd96f7f18626e6fb5e7",
  "bytecode": "0x60a06040523480156200001157600080fd5b5060405162003140380380620031408339810160408190526200003491620000c2565b3360008181526020819052604080822060019055517f6be99b533364b794276e94ff114fbf96f7a82420a2033d88717a24603e4bd2959190a260609190911b6001600160601b031916608052600180546001600160a01b0319166001600160a01b03909216919091179055620000f9565b80516001600160a01b0381168114620000bd57600080fd5b919050565b60008060408385031215620000d5578182fd5b620000e083620000a5565b9150620000f060208401620000a5565b90509250929050565b60805160601c61301a6200012660003960008181610521015281816109170152611035015261301a6000f3fe608060405234801561001057600080fd5b50600436106101825760003560e01c80638b5dc504116100d8578063a39cc2991161008c578063c66d4c6c11610066578063c66d4c6c1461031a578063de0ea61214610322578063e81439991461033557610182565b8063a39cc299146102e1578063be705473146102f4578063bf353dbb1461030757610182565b8063987757dd116100bd578063987757dd146102a85780639c52a7f1146102bb578063a29f7fd8146102ce57610182565b80638b5dc5041461027657806395addb901461027e57610182565b806334e5e28e1161013a57806370b9e9041161011457806370b9e904146102465780637998a1c41461025b57806386ec62881461026357610182565b806334e5e28e146102005780633cc792651461022057806365fae35e1461023357610182565b80631d45ae871161016b5780631d45ae87146101c55780632654320c146101da578063275180c0146101ed57610182565b8063092149ed146101875780630b950ca9146101b0575b600080fd5b61019a61019536600461214a565b610348565b6040516101a79190612540565b60405180910390f35b6101c36101be3660046120ef565b61035f565b005b6101cd610418565b6040516101a7919061254b565b61019a6101e836600461214a565b61043c565b6101c36101fb36600461214a565b6104ba565b61021361020e36600461214a565b6105bc565b6040516101a7919061252d565b6101c361022e36600461214a565b61080a565b6101c36102413660046120ef565b6108a1565b61024e610915565b6040516101a791906124ae565b6101cd610939565b6101c361027136600461214a565b61094f565b61024e610a03565b61029161028c36600461214a565b610a12565b6040516101a79b9a99989796959493929190612ea0565b6101c36102b636600461214a565b610b0e565b6101c36102c93660046120ef565b610b9e565b6101c36102dc3660046121db565b610c11565b6101c36102ef366004612162565b610ed4565b6101c361030236600461214a565b6110d4565b6101cd6103153660046120ef565b611176565b6101cd611188565b6101c36103303660046121db565b61118f565b61019a61034336600461214a565b611413565b60008181526002602052604090205415155b919050565b336000908152602081905260409020546001146103975760405162461bcd60e51b815260040161038e906128a7565b60405180910390fd5b6001546040517fbedcf54426d8d55b60e4e4112df13f213106b6fdfb1f61984a08d007a1653069916103d6916001600160a01b039091169084906124c2565b60405180910390a1600180547fffffffffffffffffffffffff0000000000000000000000000000000000000000166001600160a01b0392909216919091179055565b7f800000000000000000000000000000000000000000000000000000000000000090565b600061044782610348565b6104535750600061035a565b60008281526002602052604090206005810154610100900460ff161561047d57600091505061035a565b600581015462010000900460ff161561049a57600091505061035a565b600581015460ff16156104b157600191505061035a565b54421192915050565b6000818152600260205260408120906104d2836105bc565b9050816003015443116104f75760405162461bcd60e51b815260040161038e90612cdd565b60058201805462ff0000191662010000179055604051633124a62b60e21b81526001600160a01b037f0000000000000000000000000000000000000000000000000000000000000000169063c49298ac9061055890869085906004016125ae565b600060405180830381600087803b15801561057257600080fd5b505af1158015610586573d6000803e3d6000fd5b5050604051600092508591507f5c3937ed929cd157b73b417381d743daf6e1ef65999e3ccb5dd64bc3247e28d6908390a3505050565b60606105c782610348565b6105e35760405162461bcd60e51b815260040161038e90612bc6565b60008281526002602052604090206005810154610100900460ff1661061a5760405162461bcd60e51b815260040161038e906126e4565b600581015462010000900460ff16156106455760405162461bcd60e51b815260040161038e90612d60565b60008160030154116106695760405162461bcd60e51b815260040161038e90612961565b60058101546301000000900460ff16156106955760405162461bcd60e51b815260040161038e9061284a565b60006106a0826115ee565b60408051600280825260608201835292935060009290916020830190803683370190505090508115806106da5750816706f05b59d3b20000145b806106ec575081670de0b6b3a7640000145b6107085760405162461bcd60e51b815260040161038e90612767565b816107705760008160008151811061073057634e487b7160e01b600052603260045260246000fd5b60200260200101818152505060018160018151811061075f57634e487b7160e01b600052603260045260246000fd5b602002602001018181525050610802565b816706f05b59d3b2000014156107a35760018160008151811061073057634e487b7160e01b600052603260045260246000fd5b6001816000815181106107c657634e487b7160e01b600052603260045260246000fd5b6020026020010181815250506000816001815181106107f557634e487b7160e01b600052603260045260246000fd5b6020026020010181815250505b949350505050565b6108138161043c565b61082f5760405162461bcd60e51b815260040161038e906128de565b600081815260026020526040902060058101546301000000900460ff16156108695760405162461bcd60e51b815260040161038e90612e43565b600581015460ff16801561087d5750805442105b156108925761088c8282611768565b5061089e565b61089c82826118c9565b505b50565b336000908152602081905260409020546001146108d05760405162461bcd60e51b815260040161038e906128a7565b6001600160a01b03811660008181526020819052604080822060019055517f6be99b533364b794276e94ff114fbf96f7a82420a2033d88717a24603e4bd2959190a250565b7f000000000000000000000000000000000000000000000000000000000000000081565b6e5945535f4f525f4e4f5f515545525960881b81565b3360009081526020819052604090205460011461097e5760405162461bcd60e51b815260040161038e906128a7565b61098781610348565b6109a35760405162461bcd60e51b815260040161038e906127ed565b6000818152600260205260409081902060058101805463ff0000001916630100000017905590517f6ded7250a9d5f79aef5add44600fc20a74a0af6f4730baa4fc4ab87bf484b812906109f790849061254b565b60405180910390a15050565b6001546001600160a01b031681565b6002602081905260009182526040909120805460018201549282015460038301546004840154600585015460068601805495979694959394929360ff80841694610100850482169462010000810483169463010000008204909316936401000000009091046001600160a01b03169290610a8b90612f70565b80601f0160208091040260200160405190810160405280929190818152602001828054610ab790612f70565b8015610b045780601f10610ad957610100808354040283529160200191610b04565b820191906000526020600020905b815481529060010190602001808311610ae757829003601f168201915b505050505090508b565b610b1781611413565b610b335760405162461bcd60e51b815260040161038e90612c80565b600081815260026020526040902060058101546301000000900460ff1615610b6d5760405162461bcd60e51b815260040161038e90612aaf565b600581015460ff168015610b85575060008160040154115b15610b945761088c8282611a24565b61089c8282611bdb565b33600090815260208190526040902054600114610bcd5760405162461bcd60e51b815260040161038e906128a7565b6001600160a01b038116600081815260208190526040808220829055517f75f7d814a7e98645388e45a05bafaf87a30979dbebd30db64acf618a8de3b10a9190a250565b33600090815260208190526040902054600114610c405760405162461bcd60e51b815260040161038e906128a7565b610c4987610348565b610c655760405162461bcd60e51b815260040161038e90612b0c565b610c6e84611d87565b610c8a5760405162461bcd60e51b815260040161038e906129be565b60405180610160016040528086815260200184815260200183815260200160008152602001600081526020018215158152602001600015158152602001600015158152602001600015158152602001856001600160a01b031681526020018781525060026000898152602001908152602001600020600082015181600001556020820151816001015560408201518160020155606082015181600301556080820151816004015560a08201518160050160006101000a81548160ff02191690831515021790555060c08201518160050160016101000a81548160ff02191690831515021790555060e08201518160050160026101000a81548160ff0219169083151502179055506101008201518160050160036101000a81548160ff0219169083151502179055506101208201518160050160046101000a8154816001600160a01b0302191690836001600160a01b03160217905550610140820151816006019080519060200190610dfd92919061202a565b50905050836001600160a01b031663095ea7b3610e18611e12565b856040518363ffffffff1660e01b8152600401610e36929190612514565b602060405180830381600087803b158015610e5057600080fd5b505af1158015610e64573d6000803e3d6000fd5b505050506040513d601f19601f82011682018060405250810190610e88919061212e565b50867f32da4770ea275a14ae9d822d58709fe7bfb296969d46357149ed02fb4135a17b878787878787604051610ec39695949392919061265b565b60405180910390a250505050505050565b33600090815260208190526040902054600114610f035760405162461bcd60e51b815260040161038e906128a7565b610f0c83610348565b610f285760405162461bcd60e51b815260040161038e90612a52565b600083815260026020526040902054610f459062278d0090612f4c565b4211610f635760405162461bcd60e51b815260040161038e90612c23565b81816001818110610f8457634e487b7160e01b600052603260045260246000fd5b9050602002013582826000818110610fac57634e487b7160e01b600052603260045260246000fd5b90506020020135610fbd9190612f4c565b600114610fdc5760405162461bcd60e51b815260040161038e90612b69565b60028114610ffc5760405162461bcd60e51b815260040161038e90612b69565b6000838152600260205260409081902060058101805462ff00001916620100001790559051633124a62b60e21b81526001600160a01b037f0000000000000000000000000000000000000000000000000000000000000000169063c49298ac9061106e90879087908790600401612554565b600060405180830381600087803b15801561108857600080fd5b505af115801561109c573d6000803e3d6000fd5b5050604051600192508691507f5c3937ed929cd157b73b417381d743daf6e1ef65999e3ccb5dd64bc3247e28d690600090a350505050565b336000908152602081905260409020546001146111035760405162461bcd60e51b815260040161038e906128a7565b61110c81610348565b6111285760405162461bcd60e51b815260040161038e906129f5565b6000818152600260205260409081902060058101805463ff0000001916905590517f92d28918c5574e7fc0f4f948c39502682c81cfb4089b07b83f95b3264e5e5e06906109f790849061254b565b60006020819052908152604090205481565b62278d0081565b61119887610348565b156111b55760405162461bcd60e51b815260040161038e90612dbd565b6111be84611d87565b6111da5760405162461bcd60e51b815260040161038e906129be565b60405180610160016040528086815260200184815260200183815260200160008152602001600081526020018215158152602001600015158152602001600015158152602001600015158152602001856001600160a01b031681526020018781525060026000898152602001908152602001600020600082015181600001556020820151816001015560408201518160020155606082015181600301556080820151816004015560a08201518160050160006101000a81548160ff02191690831515021790555060c08201518160050160016101000a81548160ff02191690831515021790555060e08201518160050160026101000a81548160ff0219169083151502179055506101008201518160050160036101000a81548160ff0219169083151502179055506101208201518160050160046101000a8154816001600160a01b0302191690836001600160a01b0316021790555061014082015181600601908051906020019061134d92919061202a565b50905050836001600160a01b031663095ea7b3611368611e12565b856040518363ffffffff1660e01b8152600401611386929190612514565b602060405180830381600087803b1580156113a057600080fd5b505af11580156113b4573d6000803e3d6000fd5b505050506040513d601f19601f820116820180604052508101906113d8919061212e565b50867f53af6c2e40505bb55a47d917203a12c8f063b6c505c11094d98ac8f772e8a031878787878787604051610ec39695949392919061265b565b600061141e82610348565b61142a5750600061035a565b60008281526002602052604090206005810154610100900460ff1661145357600091505061035a565b600581015462010000900460ff1615156001141561147557600091505061035a565b60038101541561148957600091505061035a565b6000611493611e96565b600583015490915060ff1680156114ae575060008260040154115b1561155657600480830154604051635e2c665560e11b81526001600160a01b0384169263bc58ccaa926114fd9230926e5945535f4f525f4e4f5f515545525960881b929160068a0191016124dc565b60206040518083038186803b15801561151557600080fd5b505afa158015611529573d6000803e3d6000fd5b505050506040513d601f19601f8201168201806040525081019061154d919061212e565b9250505061035a565b8154604051635e2c665560e11b81526001600160a01b0383169163bc58ccaa9161159e9130916e5945535f4f525f4e4f5f515545525960881b919060068901906004016124dc565b60206040518083038186803b1580156115b657600080fd5b505afa1580156115ca573d6000803e3d6000fd5b505050506040513d601f19601f82011682018060405250810190610802919061212e565b600581015460009060ff168015611609575060008260040154115b156116bc57611616611e96565b6001600160a01b031663a9904f9b306e5945535f4f525f4e4f5f515545525960881b8560040154866006016040518563ffffffff1660e01b815260040161166094939291906124dc565b6101806040518083038186803b15801561167957600080fd5b505afa15801561168d573d6000803e3d6000fd5b505050506040513d601f19601f820116820180604052508101906116b191906122c8565b60c00151905061035a565b6116c4611e96565b825460405163a9904f9b60e01b81526001600160a01b03929092169163a9904f9b9161170d9130916e5945535f4f525f4e4f5f515545525960881b9160068901906004016124dc565b6101806040518083038186803b15801561172657600080fd5b505afa15801561173a573d6000803e3d6000fd5b505050506040513d601f19601f8201168201806040525081019061175e91906122c8565b60c0015192915050565b60004290506118386e5945535f4f525f4e4f5f515545525960881b8284600601805461179390612f70565b80601f01602080910402602001604051908101604052809291908181526020018280546117bf90612f70565b801561180c5780601f106117e15761010080835404028352916020019161180c565b820191906000526020600020905b8154815290600101906020018083116117ef57829003601f168201915b50505050508560050160049054906101000a90046001600160a01b031686600101548760020154611ea0565b6004820181905560058201805461ff00191661010017908190556001808401546002850154604051879486946e5945535f4f525f4e4f5f515545525960881b947f57315458a3fc8bd6910ecc5580606ed7bcc964f23371b3947afe85aaf8595596946118bc9460068c01946001600160a01b036401000000009091041693906126a2565b60405180910390a4505050565b6119986e5945535f4f525f4e4f5f515545525960881b82600001548360060180546118f390612f70565b80601f016020809104026020016040519081016040528092919081815260200182805461191f90612f70565b801561196c5780601f106119415761010080835404028352916020019161196c565b820191906000526020600020905b81548152906001019060200180831161194f57829003601f168201915b50505050508460050160049054906101000a90046001600160a01b031685600101548660020154611ea0565b60058101805461ff001916610100179081905581546001830154600284015460405186946e5945535f4f525f4e4f5f515545525960881b937f57315458a3fc8bd6910ecc5580606ed7bcc964f23371b3947afe85aaf859559693611a189360068a01936001600160a01b03640100000000909104169291906000906126a2565b60405180910390a45050565b6000611a2e611e96565b90506000816001600160a01b031663a9904f9b306e5945535f4f525f4e4f5f515545525960881b8660040154876006016040518563ffffffff1660e01b8152600401611a7d94939291906124dc565b6101806040518083038186803b158015611a9657600080fd5b505afa158015611aaa573d6000803e3d6000fd5b505050506040513d601f19601f82011682018060405250810190611ace91906122c8565b60a001519050611adc610418565b811415611afe5750506000600482015560058101805461ff001916905561089c565b4360038401556004808401546040516353b5923960e01b81526000926001600160a01b038616926353b5923992611b4f926e5945535f4f525f4e4f5f515545525960881b929160068b019101612633565b602060405180830381600087803b158015611b6957600080fd5b505af1158015611b7d573d6000803e3d6000fd5b505050506040513d601f19601f82011682018060405250810190611ba191906122b0565b604051909150600190829087907fa6da625874a330dac87557bbedb7b127cb0a1877a8a3e62d97dc00f8b57622bb90600090a45050505050565b6000611be5611e96565b825460405163a9904f9b60e01b81529192506000916001600160a01b0384169163a9904f9b91611c339130916e5945535f4f525f4e4f5f515545525960881b919060068a01906004016124dc565b6101806040518083038186803b158015611c4c57600080fd5b505afa158015611c60573d6000803e3d6000fd5b505050506040513d601f19601f82011682018060405250810190611c8491906122c8565b60a001519050611c92610418565b811415611cad57505060058101805461ff001916905561089c565b43600384015582546040516353b5923960e01b81526000916001600160a01b038516916353b5923991611cfc916e5945535f4f525f4e4f5f515545525960881b919060068a0190600401612633565b602060405180830381600087803b158015611d1657600080fd5b505af1158015611d2a573d6000803e3d6000fd5b505050506040513d601f19601f82011682018060405250810190611d4e91906122b0565b604051909150600090829087907fa6da625874a330dac87557bbedb7b127cb0a1877a8a3e62d97dc00f8b57622bb908490a45050505050565b6000611d91611ffb565b6001600160a01b0316633a3ab672836040518263ffffffff1660e01b8152600401611dbc91906124ae565b60206040518083038186803b158015611dd457600080fd5b505afa158015611de8573d6000803e3d6000fd5b505050506040513d601f19601f82011682018060405250810190611e0c919061212e565b92915050565b6001546040516302abf57960e61b81526000916001600160a01b03169063aafd5e4090611e41906004016127c4565b60206040518083038186803b158015611e5957600080fd5b505afa158015611e6d573d6000803e3d6000fd5b505050506040513d601f19601f82011682018060405250810190611e919190612112565b905090565b6000611e91611e12565b6000611eaa611e96565b6040517f11df92f10000000000000000000000000000000000000000000000000000000081529091506001600160a01b038216906311df92f190611efa908a908a908a908a908a906004016125c7565b602060405180830381600087803b158015611f1457600080fd5b505af1158015611f28573d6000803e3d6000fd5b505050506040513d601f19601f82011682018060405250810190611f4c91906122b0565b508115611ff2576040517fad5a755a0000000000000000000000000000000000000000000000000000000081526001600160a01b0382169063ad5a755a90611f9e908a908a908a908890600401612603565b602060405180830381600087803b158015611fb857600080fd5b505af1158015611fcc573d6000803e3d6000fd5b505050506040513d601f19601f82011682018060405250810190611ff091906122b0565b505b50505050505050565b6001546040516302abf57960e61b81526000916001600160a01b03169063aafd5e4090611e4190600401612e1a565b82805461203690612f70565b90600052602060002090601f016020900481019282612058576000855561209e565b82601f1061207157805160ff191683800117855561209e565b8280016001018555821561209e579182015b8281111561209e578251825591602001919060010190612083565b506120aa9291506120ae565b5090565b5b808211156120aa57600081556001016120af565b803561035a81612fc1565b805161035a81612fc1565b803561035a81612fd6565b805161035a81612fd6565b600060208284031215612100578081fd5b813561210b81612fc1565b9392505050565b600060208284031215612123578081fd5b815161210b81612fc1565b60006020828403121561213f578081fd5b815161210b81612fd6565b60006020828403121561215b578081fd5b5035919050565b600080600060408486031215612176578182fd5b83359250602084013567ffffffffffffffff80821115612194578384fd5b818601915086601f8301126121a7578384fd5b8135818111156121b5578485fd5b87602080830285010111156121c8578485fd5b6020830194508093505050509250925092565b600080600080600080600060e0888a0312156121f5578283fd5b8735965060208089013567ffffffffffffffff80821115612214578586fd5b818b0191508b601f830112612227578586fd5b81358181111561223957612239612fab565b61224b601f8201601f19168501612f16565b91508082528c84828501011115612260578687fd5b8084840185840137810190920185905250955060408801359450612286606089016120c3565b93506080880135925060a088013591506122a260c089016120d9565b905092959891949750929550565b6000602082840312156122c1578081fd5b5051919050565b60006101808083850312156122db578182fd5b6122e481612f16565b90506122ef836120ce565b81526122fd602084016120ce565b602082015261230e604084016120ce565b604082015261231f606084016120e4565b6060820152612330608084016120e4565b608082015260a0838101519082015260c0808401519082015260e08084015190820152610100808401519082015261012080840151908201526101408084015190820152610160928301519281019290925250919050565b6000815180845260208085019450808401835b838110156123b75781518752958201959082019060010161239b565b509495945050505050565b60008151808452815b818110156123e7576020818501810151868301820152016123cb565b818111156123f85782602083870101525b50601f01601f19169290920160200192915050565b80546000906002810460018083168061242757607f831692505b602080841082141561244757634e487b7160e01b86526022600452602486fd5b612451848961254b565b8280156124655760018114612476576124a1565b60ff198716825282820197506124a1565b61247f89612f40565b60005b8781101561249b57815484820152908601908401612482565b83019850505b5050505050505092915050565b6001600160a01b0391909116815260200190565b6001600160a01b0392831681529116602082015260400190565b60006001600160a01b03861682528460208301528360408301526080606083015261250a608083018461240d565b9695505050505050565b6001600160a01b03929092168252602082015260400190565b60006020825261210b6020830184612388565b901515815260200190565b90815260200190565b6000848252604060208301528260408301527f07ffffffffffffffffffffffffffffffffffffffffffffffffffffffffffffff831115612592578081fd5b6020830280856060850137919091016060019081529392505050565b6000838252604060208301526108026040830184612388565b600086825285602083015260a060408301526125e660a08301866123c2565b6001600160a01b0394909416606083015250608001529392505050565b60008582528460208301526080604083015261262260808301856123c2565b905082606083015295945050505050565b600084825283602083015260606040830152612652606083018461240d565b95945050505050565b600060c0825261266e60c08301896123c2565b6020830197909752506001600160a01b0394909416604085015260608401929092526080830152151560a090910152919050565b600060a082526126b560a083018861240d565b90506001600160a01b038616602083015284604083015283606083015282151560808301529695505050505050565b60208082526042908201527f416461707465723a3a67657445787065637465645061796f7574733a2072657360408201527f6f6c7574696f6e4461746120686173206e6f74206265656e207265717565737460608201527f6564000000000000000000000000000000000000000000000000000000000000608082015260a00190565b6020808252602f908201527f416461707465723a3a7265706f72745061796f7574733a20496e76616c69642060408201527f7265736f6c7574696f6e20646174610000000000000000000000000000000000606082015260800190565b7f4f7074696d69737469634f7261636c6500000000000000000000000000000000815260200190565b60208082526035908201527f416461707465723a3a70617573655175657374696f6e3a207175657374696f6e60408201527f4944206973206e6f7420696e697469616c697a65640000000000000000000000606082015260800190565b6020808252602f908201527f416461707465723a3a67657445787065637465645061796f7574733a2051756560408201527f7374696f6e206973207061757365640000000000000000000000000000000000606082015260800190565b60208082526016908201527f416461707465722f6e6f742d617574686f72697a656400000000000000000000604082015260600190565b60208082526041908201527f416461707465723a3a726571756573745265736f6c7574696f6e446174613a2060408201527f5175657374696f6e206e6f7420726561647920746f206265207265736f6c766560608201527f6400000000000000000000000000000000000000000000000000000000000000608082015260a00190565b60208082526036908201527f416461707465723a3a67657445787065637465645061796f7574733a2071756560408201527f7374696f6e4944206973206e6f7420736574746c656400000000000000000000606082015260800190565b6020808252601d908201527f416461707465723a3a756e737570706f727465642063757272656e6379000000604082015260600190565b60208082526037908201527f416461707465723a3a756e50617573655175657374696f6e3a2071756573746960408201527f6f6e4944206973206e6f7420696e697469616c697a6564000000000000000000606082015260800190565b6020808252603e908201527f416461707465723a3a656d657267656e63795265706f72745061796f7574733a60408201527f207175657374696f6e4944206973206e6f7420696e697469616c697a65640000606082015260800190565b60208082526023908201527f416461707465723a3a736574746c653a205175657374696f6e2069732070617560408201527f7365640000000000000000000000000000000000000000000000000000000000606082015260800190565b60208082526029908201527f416461707465723a3a7570646174653a205175657374696f6e206e6f7420696e60408201527f697469616c697a65640000000000000000000000000000000000000000000000606082015260800190565b60208082526037908201527f416461707465723a3a656d657267656e63795265706f72745061796f7574733a60408201527f207061796f757473206d7573742062652062696e617279000000000000000000606082015260800190565b6020808252603a908201527f416461707465723a3a67657445787065637465645061796f7574733a2071756560408201527f7374696f6e4944206973206e6f7420696e697469616c697a6564000000000000606082015260800190565b6020808252603d908201527f416461707465723a3a656d657267656e63795265706f72745061796f7574733a60408201527f2073616665747920706572696f6420686173206e6f7420706173736564000000606082015260800190565b60208082526036908201527f416461707465723a3a736574746c653a207175657374696f6e4944206973206e60408201527f6f7420726561647920746f20626520736574746c656400000000000000000000606082015260800190565b60208082526050908201527f416461707465723a3a7265706f72745061796f7574733a20417474656d70746960408201527f6e6720746f20736574746c6520616e64207265706f72745061796f757473206960608201527f6e207468652073616d6520626c6f636b00000000000000000000000000000000608082015260a00190565b6020808252603b908201527f416461707465723a3a67657445787065637465645061796f7574733a2071756560408201527f7374696f6e494420697320616c7265616479207265736f6c7665640000000000606082015260800190565b60208082526039908201527f416461707465723a3a696e697469616c697a655175657374696f6e3a2051756560408201527f7374696f6e20616c726561647920696e697469616c697a656400000000000000606082015260800190565b7f436f6c6c61746572616c57686974656c69737400000000000000000000000000815260200190565b60208082526032908201527f416461707465723a3a726571756573745265736f6c7574696f6e446174613a2060408201527f5175657374696f6e206973207061757365640000000000000000000000000000606082015260800190565b60006101608d83528c60208401528b60408401528a606084015289608084015288151560a084015287151560c084015286151560e08401528515156101008401526001600160a01b03851661012084015280610140840152612f04818401856123c2565b9e9d5050505050505050505050505050565b60405181810167ffffffffffffffff81118282101715612f3857612f38612fab565b604052919050565b60009081526020902090565b60008219821115612f6b57634e487b7160e01b81526011600452602481fd5b500190565b600281046001821680612f8457607f821691505b60208210811415612fa557634e487b7160e01b600052602260045260246000fd5b50919050565b634e487b7160e01b600052604160045260246000fd5b6001600160a01b038116811461089e57600080fd5b801515811461089e57600080fdfea2646970667358221220f4f5dc98eec7de69d102df21a5601978d0d9a3f4d8df4aee6b2af298a95591c964736f6c63430008000033",
  "devdoc": {
    "kind": "dev",
    "methods": {
      "emergencyReportPayouts(bytes32,uint256[])": {
        "params": {
          "questionID": "- The unique questionID of the question"
        }
      },
      "getExpectedPayouts(bytes32)": {
        "params": {
          "questionID": "- The unique questionID of the question"
        }
      },
      "initializeQuestion(bytes32,bytes,uint256,address,uint256,uint256,bool)": {
        "params": {
          "ancillaryData": "- Data used to resolve a question",
          "earlyResolutionEnabled": "- Determines whether a question can be resolved early",
          "proposalBond": "- Bond required to be posted by a price proposer and disputer",
          "questionID": "- The unique questionID of the question",
          "resolutionTime": "- Timestamp after which the Adapter can resolve a question",
          "reward": "- Reward offered to a successful proposer",
          "rewardToken": "- ERC20 token address used for payment of rewards and fees"
        }
      },
      "pauseQuestion(bytes32)": {
        "params": {
          "questionID": "- The unique questionID of the question"
        }
      },
      "readyToRequestResolution(bytes32)": {
        "params": {
          "questionID": "- The unique questionID of the question"
        }
      },
      "readyToSettle(bytes32)": {
        "params": {
          "questionID": "- The unique questionID of the question"
        }
      },
      "reportPayouts(bytes32)": {
        "params": {
          "questionID": "- The unique questionID of the question"
        }
      },
      "requestResolutionData(bytes32)": {
        "params": {
          "questionID": "- The unique questionID of the question"
        }
      },
      "settle(bytes32)": {
        "params": {
          "questionID": "- The unique questionID of the question"
        }
      },
      "unPauseQuestion(bytes32)": {
        "params": {
          "questionID": "- The unique questionID of the question"
        }
      },
      "updateQuestion(bytes32,bytes,uint256,address,uint256,uint256,bool)": {
        "params": {
          "ancillaryData": "- Data used to resolve a question",
          "earlyResolutionEnabled": "- Determines whether a question can be resolved early",
          "proposalBond": "- Bond required to be posted by a price proposer and disputer",
          "questionID": "- The unique questionID of the question",
          "resolutionTime": "- Timestamp after which the Adapter can resolve a question",
          "reward": "- Reward offered to a successful proposer",
          "rewardToken": "- ERC20 token address used for payment of rewards and fees"
        }
      }
    },
    "title": "UmaConditionalTokensBinaryAdapter",
    "version": 1
  },
  "userdoc": {
    "events": {
      "NewFinderAddress(address,address)": {
        "notice": "Emitted when the UMA Finder is changed"
      },
      "QuestionInitialized(bytes32,bytes,uint256,address,uint256,uint256,bool)": {
        "notice": "Emitted when a questionID is initialized"
      },
      "QuestionPaused(bytes32)": {
        "notice": "Emitted when a question is paused by the Admin"
      },
      "QuestionResolved(bytes32,bool)": {
        "notice": "Emitted when a question is resolved"
      },
      "QuestionSettled(bytes32,int256,bool)": {
        "notice": "Emitted when a question is settled"
      },
      "QuestionUnpaused(bytes32)": {
        "notice": "Emitted when a question is unpaused by the Admin"
      },
      "QuestionUpdated(bytes32,bytes,uint256,address,uint256,uint256,bool)": {
        "notice": "Emitted when a questionID is updated"
      },
      "ResolutionDataRequested(bytes32,uint256,bytes32,bytes,address,uint256,uint256,bool)": {
        "notice": "Emitted when resolution data is requested from the Optimistic Oracle"
      }
    },
    "kind": "user",
    "methods": {
      "conditionalTokenContract()": {
        "notice": "Conditional Tokens"
      },
      "deny(address)": {
        "notice": "Deauthorizes a user"
      },
      "emergencyReportPayouts(bytes32,uint256[])": {
        "notice": "Allows an admin to report payouts in an emergency"
      },
      "emergencySafetyPeriod()": {
        "notice": "Time period after which an admin can emergency resolve a condition"
      },
      "getExpectedPayouts(bytes32)": {
        "notice": "Retrieves the expected payout of a settled question"
      },
      "identifier()": {
        "notice": "Unique query identifier for the Optimistic Oracle"
      },
      "ignorePrice()": {
        "notice": "Price that indicates that the OO does not have a valid price yet"
      },
      "initializeQuestion(bytes32,bytes,uint256,address,uint256,uint256,bool)": {
        "notice": "Initializes a question on the Adapter to report on"
      },
      "pauseQuestion(bytes32)": {
        "notice": "Allows an admin to pause market resolution in an emergency"
      },
      "questions(bytes32)": {
        "notice": "Mapping of questionID to QuestionData"
      },
      "readyToRequestResolution(bytes32)": {
        "notice": "Checks whether or not a question can start the resolution process"
      },
      "readyToSettle(bytes32)": {
        "notice": "Checks whether a questionID is ready to be settled"
      },
      "rely(address)": {
        "notice": "Authorizes a user"
      },
      "reportPayouts(bytes32)": {
        "notice": "Resolves a question"
      },
      "requestResolutionData(bytes32)": {
        "notice": "Request resolution data from the Optimistic Oracle"
      },
      "settle(bytes32)": {
        "notice": "Settle/finalize the resolution data of a questionIf the OO returns the ignore price, this method \"refreshes\"         the question, allowing new price requests"
      },
      "umaFinder()": {
        "notice": "UMA Finder address"
      },
      "unPauseQuestion(bytes32)": {
        "notice": "Allows an admin to unpause market resolution in an emergency"
      },
      "updateQuestion(bytes32,bytes,uint256,address,uint256,uint256,bool)": {
        "notice": "Allows an admin to update a question"
      },
      "wards(address)": {
        "notice": "Auth"
      }
    },
    "notice": "Enables Conditional Token resolution via UMA's Optimistic Oracle",
    "version": 1
  },
  "storageLayout": {
    "storage": [
      {
        "astId": 1000,
        "contract": "contracts/UmaConditionalTokensBinaryAdapter.sol:UmaConditionalTokensBinaryAdapter",
        "label": "wards",
        "offset": 0,
        "slot": "0",
        "type": "t_mapping(t_address,t_uint256)"
      },
      {
        "astId": 1068,
        "contract": "contracts/UmaConditionalTokensBinaryAdapter.sol:UmaConditionalTokensBinaryAdapter",
        "label": "umaFinder",
        "offset": 0,
        "slot": "1",
        "type": "t_address"
      },
      {
        "astId": 1105,
        "contract": "contracts/UmaConditionalTokensBinaryAdapter.sol:UmaConditionalTokensBinaryAdapter",
        "label": "questions",
        "offset": 0,
        "slot": "2",
        "type": "t_mapping(t_bytes32,t_struct(QuestionData)1099_storage)"
      }
    ],
    "types": {
      "t_address": {
        "encoding": "inplace",
        "label": "address",
        "numberOfBytes": "20"
      },
      "t_bool": {
        "encoding": "inplace",
        "label": "bool",
        "numberOfBytes": "1"
      },
      "t_bytes32": {
        "encoding": "inplace",
        "label": "bytes32",
        "numberOfBytes": "32"
      },
      "t_bytes_storage": {
        "encoding": "bytes",
        "label": "bytes",
        "numberOfBytes": "32"
      },
      "t_mapping(t_address,t_uint256)": {
        "encoding": "mapping",
        "key": "t_address",
        "label": "mapping(address => uint256)",
        "numberOfBytes": "32",
        "value": "t_uint256"
      },
      "t_mapping(t_bytes32,t_struct(QuestionData)1099_storage)": {
        "encoding": "mapping",
        "key": "t_bytes32",
        "label": "mapping(bytes32 => struct UmaConditionalTokensBinaryAdapter.QuestionData)",
        "numberOfBytes": "32",
        "value": "t_struct(QuestionData)1099_storage"
      },
      "t_struct(QuestionData)1099_storage": {
        "encoding": "inplace",
        "label": "struct UmaConditionalTokensBinaryAdapter.QuestionData",
        "members": [
          {
            "astId": 1078,
            "contract": "contracts/UmaConditionalTokensBinaryAdapter.sol:UmaConditionalTokensBinaryAdapter",
            "label": "resolutionTime",
            "offset": 0,
            "slot": "0",
            "type": "t_uint256"
          },
          {
            "astId": 1080,
            "contract": "contracts/UmaConditionalTokensBinaryAdapter.sol:UmaConditionalTokensBinaryAdapter",
            "label": "reward",
            "offset": 0,
            "slot": "1",
            "type": "t_uint256"
          },
          {
            "astId": 1082,
            "contract": "contracts/UmaConditionalTokensBinaryAdapter.sol:UmaConditionalTokensBinaryAdapter",
            "label": "proposalBond",
            "offset": 0,
            "slot": "2",
            "type": "t_uint256"
          },
          {
            "astId": 1084,
            "contract": "contracts/UmaConditionalTokensBinaryAdapter.sol:UmaConditionalTokensBinaryAdapter",
            "label": "settled",
            "offset": 0,
            "slot": "3",
            "type": "t_uint256"
          },
          {
            "astId": 1086,
            "contract": "contracts/UmaConditionalTokensBinaryAdapter.sol:UmaConditionalTokensBinaryAdapter",
            "label": "earlyResolutionTimestamp",
            "offset": 0,
            "slot": "4",
            "type": "t_uint256"
          },
          {
            "astId": 1088,
            "contract": "contracts/UmaConditionalTokensBinaryAdapter.sol:UmaConditionalTokensBinaryAdapter",
            "label": "earlyResolutionEnabled",
            "offset": 0,
            "slot": "5",
            "type": "t_bool"
          },
          {
            "astId": 1090,
            "contract": "contracts/UmaConditionalTokensBinaryAdapter.sol:UmaConditionalTokensBinaryAdapter",
            "label": "resolutionDataRequested",
            "offset": 1,
            "slot": "5",
            "type": "t_bool"
          },
          {
            "astId": 1092,
            "contract": "contracts/UmaConditionalTokensBinaryAdapter.sol:UmaConditionalTokensBinaryAdapter",
            "label": "resolved",
            "offset": 2,
            "slot": "5",
            "type": "t_bool"
          },
          {
            "astId": 1094,
            "contract": "contracts/UmaConditionalTokensBinaryAdapter.sol:UmaConditionalTokensBinaryAdapter",
            "label": "paused",
            "offset": 3,
            "slot": "5",
            "type": "t_bool"
          },
          {
            "astId": 1096,
            "contract": "contracts/UmaConditionalTokensBinaryAdapter.sol:UmaConditionalTokensBinaryAdapter",
            "label": "rewardToken",
            "offset": 4,
            "slot": "5",
            "type": "t_address"
          },
          {
            "astId": 1098,
            "contract": "contracts/UmaConditionalTokensBinaryAdapter.sol:UmaConditionalTokensBinaryAdapter",
            "label": "ancillaryData",
            "offset": 0,
            "slot": "6",
            "type": "t_bytes_storage"
          }
        ],
        "numberOfBytes": "224"
      },
      "t_uint256": {
        "encoding": "inplace",
        "label": "uint256",
        "numberOfBytes": "32"
      }
    }
  }
}